{
  "_format": "hh-sol-artifact-1",
  "contractName": "NonfungibleTokenPositionDescriptor",
  "sourceName": "contracts/uniswap/v3-periphery/NonfungibleTokenPositionDescriptor.sol",
  "abi": [
    {
      "inputs": [
        {
          "internalType": "address",
          "name": "_WETH9",
          "type": "address"
        },
        {
          "internalType": "bytes32",
          "name": "_nativeCurrencyLabelBytes",
          "type": "bytes32"
        }
      ],
      "stateMutability": "nonpayable",
      "type": "constructor"
    },
    {
      "inputs": [],
      "name": "WETH9",
      "outputs": [
        {
          "internalType": "address",
          "name": "",
          "type": "address"
        }
      ],
      "stateMutability": "view",
      "type": "function"
    },
    {
      "inputs": [
        {
          "internalType": "address",
          "name": "token0",
          "type": "address"
        },
        {
          "internalType": "address",
          "name": "token1",
          "type": "address"
        },
        {
          "internalType": "uint256",
          "name": "chainId",
          "type": "uint256"
        }
      ],
      "name": "flipRatio",
      "outputs": [
        {
          "internalType": "bool",
          "name": "",
          "type": "bool"
        }
      ],
      "stateMutability": "view",
      "type": "function"
    },
    {
      "inputs": [],
      "name": "nativeCurrencyLabel",
      "outputs": [
        {
          "internalType": "string",
          "name": "",
          "type": "string"
        }
      ],
      "stateMutability": "view",
      "type": "function"
    },
    {
      "inputs": [],
      "name": "nativeCurrencyLabelBytes",
      "outputs": [
        {
          "internalType": "bytes32",
          "name": "",
          "type": "bytes32"
        }
      ],
      "stateMutability": "view",
      "type": "function"
    },
    {
      "inputs": [
        {
          "internalType": "address",
          "name": "token",
          "type": "address"
        },
        {
          "internalType": "uint256",
          "name": "chainId",
          "type": "uint256"
        }
      ],
      "name": "tokenRatioPriority",
      "outputs": [
        {
          "internalType": "int256",
          "name": "",
          "type": "int256"
        }
      ],
      "stateMutability": "view",
      "type": "function"
    },
    {
      "inputs": [
        {
          "internalType": "contract INonfungiblePositionManager",
          "name": "positionManager",
          "type": "address"
        },
        {
          "internalType": "uint256",
          "name": "tokenId",
          "type": "uint256"
        }
      ],
      "name": "tokenURI",
      "outputs": [
        {
          "internalType": "string",
          "name": "",
          "type": "string"
        }
      ],
      "stateMutability": "view",
      "type": "function"
    }
  ],
  "bytecode": "0x60c060405234801561001057600080fd5b5060405161161038038061161083398101604081905261002f9161004a565b60609190911b6001600160601b03191660805260a052610082565b6000806040838503121561005c578182fd5b82516001600160a01b0381168114610072578283fd5b6020939093015192949293505050565b60805160601c60a0516115506100c06000398061027f52806102b3528061034f52508060f7528061013c52806105f2528061064652506115506000f3fe608060405234801561001057600080fd5b50600436106100625760003560e01c80634aa4a4fc146100675780637e5af771146100855780639d7b0ea8146100a5578063a18246e2146100c5578063b7af3cdc146100cd578063e9dc6375146100e2575b600080fd5b61006f6100f5565b60405161007c9190611374565b60405180910390f35b61009861009336600461107a565b610119565b60405161007c9190611388565b6100b86100b33660046110ba565b610138565b60405161007c9190611393565b6100b861027d565b6100d56102a1565b60405161007c919061139c565b6100d56100f03660046110ba565b6103af565b7f000000000000000000000000000000000000000000000000000000000000000081565b60006101258383610138565b61012f8584610138565b13949350505050565b60007f00000000000000000000000000000000000000000000000000000000000000006001600160a01b0316836001600160a01b0316141561017d5750606319610277565b8160011415610273576001600160a01b03831673a0b86991c6218b36c1d19d4a2e9eb0ce3606eb4814156101b4575061012c610277565b6001600160a01b03831673dac17f958d2ee523a2206206994597c13d831ec714156101e1575060c8610277565b6001600160a01b038316736b175474e89094c44da98b954eedeac495271d0f141561020e57506064610277565b6001600160a01b038316738daebade922df735c38c80c7ebd708af50815faa141561023c575060c719610277565b6001600160a01b038316732260fac5e5542a773aa44fbcfedf7c193bc2c599141561026b575061012b19610277565b506000610277565b5060005b92915050565b7f000000000000000000000000000000000000000000000000000000000000000081565b606060005b6020811080156102ee57507f000000000000000000000000000000000000000000000000000000000000000081602081106102dd57fe5b1a60f81b6001600160f81b03191615155b156102fb576001016102a6565b60008167ffffffffffffffff8111801561031457600080fd5b506040519080825280601f01601f19166020018201604052801561033f576020820181803683370190505b50905060005b828110156103a8577f0000000000000000000000000000000000000000000000000000000000000000816020811061037957fe5b1a60f81b82828151811061038957fe5b60200101906001600160f81b031916908160001a905350600101610345565b5091505090565b60606000806000806000876001600160a01b03166399fbab88886040518263ffffffff1660e01b81526004016103e59190611393565b6101806040518083038186803b1580156103fe57600080fd5b505afa158015610412573d6000803e3d6000fd5b505050506040513d601f19601f82011682018060405250810190610436919061123f565b505050505096509650965096509650505060006104f4896001600160a01b031663c45a01556040518163ffffffff1660e01b815260040160206040518083038186803b15801561048557600080fd5b505afa158015610499573d6000803e3d6000fd5b505050506040513d601f19601f820116820180604052508101906104bd9190611057565b6040518060600160405280896001600160a01b03168152602001886001600160a01b031681526020018762ffffff168152506108bf565b9050600061050587876100936109c5565b9050600081156105155787610517565b865b9050600082156105275787610529565b885b90506000846001600160a01b0316633850c7bd6040518163ffffffff1660e01b815260040160e06040518083038186803b15801561056657600080fd5b505afa15801561057a573d6000803e3d6000fd5b505050506040513d601f19601f8201168201806040525081019061059e9190611196565b505050505091505073__$080d0c10a5f6ce90a02d5b6463afcac785$__63c49917d7604051806101c001604052808f8152602001866001600160a01b03168152602001856001600160a01b031681526020017f00000000000000000000000000000000000000000000000000000000000000006001600160a01b0316876001600160a01b03161461063757610632876109c9565b61063f565b61063f6102a1565b81526020017f00000000000000000000000000000000000000000000000000000000000000006001600160a01b0316866001600160a01b03161461068b57610686866109c9565b610693565b6106936102a1565b8152602001866001600160a01b031663313ce5676040518163ffffffff1660e01b815260040160206040518083038186803b1580156106d157600080fd5b505afa1580156106e5573d6000803e3d6000fd5b505050506040513d601f19601f820116820180604052508101906107099190611225565b60ff168152602001856001600160a01b031663313ce5676040518163ffffffff1660e01b815260040160206040518083038186803b15801561074a57600080fd5b505afa15801561075e573d6000803e3d6000fd5b505050506040513d601f19601f820116820180604052508101906107829190611225565b60ff16815260200187151581526020018a60020b81526020018960020b81526020018460020b8152602001886001600160a01b031663d0c93a7c6040518163ffffffff1660e01b815260040160206040518083038186803b1580156107e657600080fd5b505afa1580156107fa573d6000803e3d6000fd5b505050506040513d601f19601f8201168201806040525081019061081e91906110e5565b60020b81526020018b62ffffff168152602001886001600160a01b03168152506040518263ffffffff1660e01b815260040161085a91906113af565b60006040518083038186803b15801561087257600080fd5b505af4158015610886573d6000803e3d6000fd5b505050506040513d6000823e601f3d908101601f191682016040526108ae91908101906110ff565b9d9c50505050505050505050505050565b600081602001516001600160a01b031682600001516001600160a01b0316106108e757600080fd5b50805160208083015160408085015181516001600160a01b0395861681860152949092168482015262ffffff9091166060808501919091528151808503820181526080850183528051908401206001600160f81b031960a08601529086901b6bffffffffffffffffffffffff191660a185015260b58401527fd3e7f58b9af034cfa7a0597e539bae7c6b393817a47a6fc1e1503cd6eaffe22a60d5808501919091528151808503909101815260f584018083528151919093012061015584019091526031808352909261027792919061151390610115013982610a03565b4690565b606060006109de836395d89b4160e01b610abe565b90508051600014156109fb576109f383610ce6565b9150506109fe565b90505b919050565b610aba82826040516024018080602001836001600160a01b03168152602001828103825284818151815260200191508051906020019080838360005b83811015610a57578181015183820152602001610a3f565b50505050905090810190601f168015610a845780820380516001836020036101000a031916815260200191505b5060408051601f198184030181529190526020810180516001600160e01b031663319af33360e01b1790529350610cf392505050565b5050565b60408051600481526024810182526020810180516001600160e01b03166001600160e01b031985161781529151815160609360009384936001600160a01b03891693919290918291908083835b60208310610b2a5780518252601f199092019160209182019101610b0b565b6001836020036101000a038019825116818451168082178552505050505050905001915050600060405180830381855afa9150503d8060008114610b8a576040519150601f19603f3d011682016040523d82523d6000602084013e610b8f565b606091505b5091509150811580610ba057508051155b15610bbe576040518060200160405280600081525092505050610277565b805160201415610bf6576000818060200190516020811015610bdf57600080fd5b50519050610bec81610d0d565b9350505050610277565b604081511115610cce57808060200190516020811015610c1557600080fd5b8101908080516040519392919084640100000000821115610c3557600080fd5b908301906020820185811115610c4a57600080fd5b8251640100000000811182820188101715610c6457600080fd5b82525081516020918201929091019080838360005b83811015610c91578181015183820152602001610c79565b50505050905090810190601f168015610cbe5780820380516001836020036101000a031916815260200191505b5060405250505092505050610277565b50506040805160208101909152600081529392505050565b60606109fb826006610e35565b610d0a81610d02610f98610fb9565b63ffffffff16565b50565b604080516020808252818301909252606091600091906020820181803683370190505090506000805b6020811015610d97576000858260208110610d4d57fe5b1a60f81b90506001600160f81b0319811615610d8e5780848481518110610d7057fe5b60200101906001600160f81b031916908160001a9053506001909201915b50600101610d36565b5060008167ffffffffffffffff81118015610db157600080fd5b506040519080825280601f01601f191660200182016040528015610ddc576020820181803683370190505b50905060005b82811015610e2c57838181518110610df657fe5b602001015160f81c60f81b828281518110610e0d57fe5b60200101906001600160f81b031916908160001a905350600101610de2565b50949350505050565b606060028206158015610e485750600082115b8015610e55575060288211155b610ea6576040805162461bcd60e51b815260206004820152601e60248201527f41646472657373537472696e675574696c3a20494e56414c49445f4c454e0000604482015290519081900360640190fd5b60008267ffffffffffffffff81118015610ebf57600080fd5b506040519080825280601f01601f191660200182016040528015610eea576020820181803683370190505b5090506001600160a01b03841660005b60028504811015610f8e57600860138290030282901c600f600482901c1660f082168203610f2782610fbc565b868560020281518110610f3657fe5b60200101906001600160f81b031916908160001a905350610f5681610fbc565b868560020260010181518110610f6857fe5b60200101906001600160f81b031916908160001a9053505060019092019150610efa9050565b5090949350505050565b60006a636f6e736f6c652e6c6f679050600080835160208501845afa505050565b90565b6000600a8260ff161015610fd757506030810160f81b6109fe565b506037810160f81b6109fe565b80516109fe816114fd565b8051600281900b81146109fe57600080fd5b80516fffffffffffffffffffffffffffffffff811681146109fe57600080fd5b805161ffff811681146109fe57600080fd5b805162ffffff811681146109fe57600080fd5b805160ff811681146109fe57600080fd5b600060208284031215611068578081fd5b8151611073816114fd565b9392505050565b60008060006060848603121561108e578182fd5b8335611099816114fd565b925060208401356110a9816114fd565b929592945050506040919091013590565b600080604083850312156110cc578182fd5b82356110d7816114fd565b946020939093013593505050565b6000602082840312156110f6578081fd5b61107382610fef565b600060208284031215611110578081fd5b815167ffffffffffffffff80821115611127578283fd5b818401915084601f83011261113a578283fd5b81518181111561114657fe5b604051601f8201601f19168101602001838111828210171561116457fe5b60405281815283820160200187101561117b578485fd5b61118c8260208301602087016114cd565b9695505050505050565b600080600080600080600060e0888a0312156111b0578283fd5b87516111bb816114fd565b96506111c960208901610fef565b95506111d760408901611021565b94506111e560608901611021565b93506111f360808901611021565b925061120160a08901611046565b915060c08801518015158114611215578182fd5b8091505092959891949750929550565b600060208284031215611236578081fd5b61107382611046565b6000806000806000806000806000806000806101808d8f031215611261578485fd5b8c516bffffffffffffffffffffffff8116811461127c578586fd5b9b5061128a60208e01610fe4565b9a5061129860408e01610fe4565b99506112a660608e01610fe4565b98506112b460808e01611033565b97506112c260a08e01610fef565b96506112d060c08e01610fef565b95506112de60e08e01611001565b94506101008d015193506101208d015192506112fd6101408e01611001565b915061130c6101608e01611001565b90509295989b509295989b509295989b565b6001600160a01b03169052565b15159052565b60020b9052565b600081518084526113508160208601602086016114cd565b601f01601f19169290920160200192915050565b62ffffff169052565b60ff169052565b6001600160a01b0391909116815260200190565b901515815260200190565b90815260200190565b6000602082526110736020830184611338565b6000602082528251602083015260208301516113ce604084018261131e565b5060408301516113e1606084018261131e565b5060608301516101c08060808501526113fe6101e0850183611338565b91506080850151601f198584030160a086015261141b8382611338565b92505060a085015161143060c086018261136d565b5060c085015161144360e086018261136d565b5060e08501516101006114588187018361132b565b860151905061012061146c86820183611331565b860151905061014061148086820183611331565b860151905061016061149486820183611331565b86015190506101806114a886820183611331565b86015190506101a06114bc86820183611364565b8601519050610f8e8583018261131e565b60005b838110156114e85781810151838201526020016114d0565b838111156114f7576000848401525b50505050565b6001600160a01b0381168114610d0a57600080fdfe506f6f6c416464726573732e636f6d707574654164647265737328666163746f72792c206b6579292d706f6f6c3a202573a164736f6c6343000706000a",
  "linkReferences": {
    "contracts/uniswap/v3-periphery/libraries/NFTDescriptor.sol": {
      "NFTDescriptor": [
        {
          "length": 20,
          "start": 1640
        }
      ]
    }
  },
  "deployedLinkReferences": {
    "contracts/uniswap/v3-periphery/libraries/NFTDescriptor.sol": {
      "NFTDescriptor": [
        {
          "length": 20,
          "start": 1448
        }
      ]
    }
  }
}