{
  "_format": "hh-sol-artifact-1",
  "contractName": "PairFlash",
  "sourceName": "contracts/uniswap/v3-periphery/examples/PairFlash.sol",
  "abi": [
    {
      "inputs": [
        {
          "internalType": "contract ISwapRouter",
          "name": "_swapRouter",
          "type": "address"
        },
        {
          "internalType": "address",
          "name": "_factory",
          "type": "address"
        },
        {
          "internalType": "address",
          "name": "_WETH9",
          "type": "address"
        }
      ],
      "stateMutability": "nonpayable",
      "type": "constructor"
    },
    {
      "inputs": [],
      "name": "WETH9",
      "outputs": [
        {
          "internalType": "address",
          "name": "",
          "type": "address"
        }
      ],
      "stateMutability": "view",
      "type": "function"
    },
    {
      "inputs": [],
      "name": "factory",
      "outputs": [
        {
          "internalType": "address",
          "name": "",
          "type": "address"
        }
      ],
      "stateMutability": "view",
      "type": "function"
    },
    {
      "inputs": [
        {
          "components": [
            {
              "internalType": "address",
              "name": "token0",
              "type": "address"
            },
            {
              "internalType": "address",
              "name": "token1",
              "type": "address"
            },
            {
              "internalType": "uint24",
              "name": "fee1",
              "type": "uint24"
            },
            {
              "internalType": "uint256",
              "name": "amount0",
              "type": "uint256"
            },
            {
              "internalType": "uint256",
              "name": "amount1",
              "type": "uint256"
            },
            {
              "internalType": "uint24",
              "name": "fee2",
              "type": "uint24"
            },
            {
              "internalType": "uint24",
              "name": "fee3",
              "type": "uint24"
            }
          ],
          "internalType": "struct PairFlash.FlashParams",
          "name": "params",
          "type": "tuple"
        }
      ],
      "name": "initFlash",
      "outputs": [],
      "stateMutability": "nonpayable",
      "type": "function"
    },
    {
      "inputs": [],
      "name": "refundETH",
      "outputs": [],
      "stateMutability": "payable",
      "type": "function"
    },
    {
      "inputs": [],
      "name": "swapRouter",
      "outputs": [
        {
          "internalType": "contract ISwapRouter",
          "name": "",
          "type": "address"
        }
      ],
      "stateMutability": "view",
      "type": "function"
    },
    {
      "inputs": [
        {
          "internalType": "address",
          "name": "token",
          "type": "address"
        },
        {
          "internalType": "uint256",
          "name": "amountMinimum",
          "type": "uint256"
        },
        {
          "internalType": "address",
          "name": "recipient",
          "type": "address"
        }
      ],
      "name": "sweepToken",
      "outputs": [],
      "stateMutability": "payable",
      "type": "function"
    },
    {
      "inputs": [
        {
          "internalType": "uint256",
          "name": "fee0",
          "type": "uint256"
        },
        {
          "internalType": "uint256",
          "name": "fee1",
          "type": "uint256"
        },
        {
          "internalType": "bytes",
          "name": "data",
          "type": "bytes"
        }
      ],
      "name": "uniswapV3FlashCallback",
      "outputs": [],
      "stateMutability": "nonpayable",
      "type": "function"
    },
    {
      "inputs": [
        {
          "internalType": "uint256",
          "name": "amountMinimum",
          "type": "uint256"
        },
        {
          "internalType": "address",
          "name": "recipient",
          "type": "address"
        }
      ],
      "name": "unwrapWETH9",
      "outputs": [],
      "stateMutability": "payable",
      "type": "function"
    },
    {
      "stateMutability": "payable",
      "type": "receive"
    }
  ],
  "bytecode": "0x60e06040523480156200001157600080fd5b50604051620017443803806200174483398101604081905262000034916200005c565b6001600160601b0319606092831b811660805290821b811660a05291901b1660c052620000c8565b60008060006060848603121562000071578283fd5b83516200007e81620000af565b60208501519093506200009181620000af565b6040850151909250620000a481620000af565b809150509250925092565b6001600160a01b0381168114620000c557600080fd5b50565b60805160601c60a05160601c60c05160601c61160b62000139600039806104b85280610651528061067e528061078d5280610815525080608f528061031c528061040752806104945280610dd75280610e1d5280610e9152508061021252806104dc52806105f1525061160b6000f3fe60806040526004361061007f5760003560e01c8063c31c9c071161004e578063c31c9c071461015a578063c45a01551461016f578063df2ab5bb14610184578063e9cbafb014610197576100ef565b806312210e8a146100f45780632384463b146100fc57806349404b7c1461011c5780634aa4a4fc1461012f576100ef565b366100ef57336001600160a01b037f000000000000000000000000000000000000000000000000000000000000000016146100ed576040805162461bcd60e51b81526020600482015260096024820152684e6f7420574554483960b81b604482015290519081900360640190fd5b005b600080fd5b6100ed6101b7565b34801561010857600080fd5b506100ed6101173660046112fe565b6101c9565b6100ed61012a3660046113b1565b610318565b34801561013b57600080fd5b50610144610492565b6040516101519190611460565b60405180910390f35b34801561016657600080fd5b506101446104b6565b34801561017b57600080fd5b506101446104da565b6100ed6101923660046111e5565b6104fe565b3480156101a357600080fd5b506100ed6101b23660046113dc565b6105dc565b47156101c7576101c73347610912565b565b6000604051806060016040528083600001516001600160a01b0316815260200183602001516001600160a01b03168152602001836040015162ffffff16815250905060006102377f000000000000000000000000000000000000000000000000000000000000000083610a01565b9050806001600160a01b031663490e6cbc30856060015186608001516040518060c001604052808960600151815260200189608001518152602001336001600160a01b031681526020018881526020018960a0015162ffffff1681526020018960c0015162ffffff168152506040516020016102b3919061154e565b6040516020818303038152906040526040518563ffffffff1660e01b81526004016102e19493929190611474565b600060405180830381600087803b1580156102fb57600080fd5b505af115801561030f573d6000803e3d6000fd5b50505050505050565b60007f00000000000000000000000000000000000000000000000000000000000000006001600160a01b03166370a08231306040518263ffffffff1660e01b815260040180826001600160a01b0316815260200191505060206040518083038186803b15801561038757600080fd5b505afa15801561039b573d6000803e3d6000fd5b505050506040513d60208110156103b157600080fd5b50519050828110156103ff576040805162461bcd60e51b8152602060048201526012602482015271496e73756666696369656e7420574554483960701b604482015290519081900360640190fd5b801561048d577f00000000000000000000000000000000000000000000000000000000000000006001600160a01b0316632e1a7d4d826040518263ffffffff1660e01b815260040180828152602001915050600060405180830381600087803b15801561046b57600080fd5b505af115801561047f573d6000803e3d6000fd5b5050505061048d8282610912565b505050565b7f000000000000000000000000000000000000000000000000000000000000000081565b7f000000000000000000000000000000000000000000000000000000000000000081565b7f000000000000000000000000000000000000000000000000000000000000000081565b6000836001600160a01b03166370a08231306040518263ffffffff1660e01b815260040180826001600160a01b0316815260200191505060206040518083038186803b15801561054d57600080fd5b505afa158015610561573d6000803e3d6000fd5b505050506040513d602081101561057757600080fd5b50519050828110156105c5576040805162461bcd60e51b815260206004820152601260248201527124b739bab33334b1b4b2b73a103a37b5b2b760711b604482015290519081900360640190fd5b80156105d6576105d6848383610b0d565b50505050565b60006105ea82840184611220565b905061061a7f00000000000000000000000000000000000000000000000000000000000000008260600151610c5b565b506060810151805160209091015182516000906106379089610c7e565b90506000610649856020015189610c7e565b905061067a837f00000000000000000000000000000000000000000000000000000000000000008760200151610c8e565b60007f00000000000000000000000000000000000000000000000000000000000000006001600160a01b031663414bf389604051806101000160405280876001600160a01b03168152602001886001600160a01b03168152602001896080015162ffffff168152602001306001600160a01b031681526020014281526020018960200151815260200186815260200160006001600160a01b03168152506040518263ffffffff1660e01b815260040161073391906114e5565b602060405180830381600087803b15801561074d57600080fd5b505af1158015610761573d6000803e3d6000fd5b505050506040513d601f19601f820116820180604052508101906107859190611399565b90506107b6857f00000000000000000000000000000000000000000000000000000000000000008860000151610c8e565b60408051610100810182526001600160a01b038781168252868116602083015260a08981015162ffffff168385015230606084015242608084015289519083015260c08201859052600060e08301819052925163414bf38960e01b81527f00000000000000000000000000000000000000000000000000000000000000009091169163414bf3899161084b91906004016114e5565b602060405180830381600087803b15801561086557600080fd5b505af1158015610879573d6000803e3d6000fd5b505050506040513d601f19601f8201168201806040525081019061089d9190611399565b905083156108b1576108b186303387610dd5565b82156108c3576108c385303386610dd5565b838211156108e457600084830390506108e287308a6040015184610dd5565b505b82811115610905576000838203905061090386308a6040015184610dd5565b505b5050505050505050505050565b604080516000808252602082019092526001600160a01b0384169083906040518082805190602001908083835b6020831061095e5780518252601f19909201916020918201910161093f565b6001836020036101000a03801982511681845116808217855250505050505090500191505060006040518083038185875af1925050503d80600081146109c0576040519150601f19603f3d011682016040523d82523d6000602084013e6109c5565b606091505b505090508061048d576040805162461bcd60e51b815260206004820152600360248201526253544560e81b604482015290519081900360640190fd5b600081602001516001600160a01b031682600001516001600160a01b031610610a2957600080fd5b50805160208083015160408085015181516001600160a01b0395861681860152949092168482015262ffffff9091166060808501919091528151808503820181526080850183528051908401206001600160f81b031960a08601529086901b6bffffffffffffffffffffffff191660a185015260b58401527fd3e7f58b9af034cfa7a0597e539bae7c6b393817a47a6fc1e1503cd6eaffe22a60d5808501919091528151808503909101815260f5840180835281519190930120610155840190915260318083529092610b079291906115ce90610115013982610f65565b92915050565b604080516001600160a01b038481166024830152604480830185905283518084039091018152606490920183526020820180516001600160e01b031663a9059cbb60e01b1781529251825160009485949389169392918291908083835b60208310610b895780518252601f199092019160209182019101610b6a565b6001836020036101000a0380198251168184511680821785525050505050509050019150506000604051808303816000865af19150503d8060008114610beb576040519150601f19603f3d011682016040523d82523d6000602084013e610bf0565b606091505b5091509150818015610c1e575080511580610c1e5750808060200190516020811015610c1b57600080fd5b50515b610c54576040805162461bcd60e51b815260206004820152600260248201526114d560f21b604482015290519081900360640190fd5b5050505050565b6000610c678383610a01565b9050336001600160a01b03821614610b0757600080fd5b80820182811015610b0757600080fd5b604080516001600160a01b038481166024830152604480830185905283518084039091018152606490920183526020820180516001600160e01b031663095ea7b360e01b1781529251825160009485949389169392918291908083835b60208310610d0a5780518252601f199092019160209182019101610ceb565b6001836020036101000a0380198251168184511680821785525050505050509050019150506000604051808303816000865af19150503d8060008114610d6c576040519150601f19603f3d011682016040523d82523d6000602084013e610d71565b606091505b5091509150818015610d9f575080511580610d9f5750808060200190516020811015610d9c57600080fd5b50515b610c54576040805162461bcd60e51b8152602060048201526002602482015261534160f01b604482015290519081900360640190fd5b7f00000000000000000000000000000000000000000000000000000000000000006001600160a01b0316846001600160a01b0316148015610e165750804710155b15610f38577f00000000000000000000000000000000000000000000000000000000000000006001600160a01b031663d0e30db0826040518263ffffffff1660e01b81526004016000604051808303818588803b158015610e7657600080fd5b505af1158015610e8a573d6000803e3d6000fd5b50505050507f00000000000000000000000000000000000000000000000000000000000000006001600160a01b031663a9059cbb83836040518363ffffffff1660e01b815260040180836001600160a01b0316815260200182815260200192505050602060405180830381600087803b158015610f0657600080fd5b505af1158015610f1a573d6000803e3d6000fd5b505050506040513d6020811015610f3057600080fd5b506105d69050565b6001600160a01b038316301415610f5957610f54848383610b0d565b6105d6565b6105d684848484611020565b61101c82826040516024018080602001836001600160a01b03168152602001828103825284818151815260200191508051906020019080838360005b83811015610fb9578181015183820152602001610fa1565b50505050905090810190601f168015610fe65780820380516001836020036101000a031916815260200191505b5060408051601f198184030181529190526020810180516001600160e01b031663319af33360e01b179052935061117892505050565b5050565b604080516001600160a01b0385811660248301528481166044830152606480830185905283518084039091018152608490920183526020820180516001600160e01b03166323b872dd60e01b178152925182516000948594938a169392918291908083835b602083106110a45780518252601f199092019160209182019101611085565b6001836020036101000a0380198251168184511680821785525050505050509050019150506000604051808303816000865af19150503d8060008114611106576040519150601f19603f3d011682016040523d82523d6000602084013e61110b565b606091505b5091509150818015611139575080511580611139575080806020019051602081101561113657600080fd5b50515b611170576040805162461bcd60e51b815260206004820152600360248201526229aa2360e91b604482015290519081900360640190fd5b505050505050565b61118f816111876111926111b3565b63ffffffff16565b50565b60006a636f6e736f6c652e6c6f679050600080835160208501845afa505050565b90565b80356001600160a01b03811681146111cd57600080fd5b919050565b803562ffffff811681146111cd57600080fd5b6000806000606084860312156111f9578283fd5b611202846111b6565b925060208401359150611217604085016111b6565b90509250925092565b6000818303610100811215611233578182fd5b6040805160c0810167ffffffffffffffff828210818311171561125257fe5b818452863583526020870135602084015261126e8488016111b6565b838501526060605f1986011215611283578586fd5b83519450606085019150848210818311171561129b57fe5b5082526112aa606086016111b6565b83526112b8608086016111b6565b60208401526112c960a086016111d2565b828401528260608201526112df60c086016111d2565b60808201526112f060e086016111d2565b60a082015295945050505050565b600060e0828403121561130f578081fd5b60405160e0810181811067ffffffffffffffff8211171561132c57fe5b604052611338836111b6565b8152611346602084016111b6565b6020820152611357604084016111d2565b6040820152606083013560608201526080830135608082015261137c60a084016111d2565b60a082015261138d60c084016111d2565b60c08201529392505050565b6000602082840312156113aa578081fd5b5051919050565b600080604083850312156113c3578182fd5b823591506113d3602084016111b6565b90509250929050565b600080600080606085870312156113f1578081fd5b8435935060208501359250604085013567ffffffffffffffff80821115611416578283fd5b818701915087601f830112611429578283fd5b813581811115611437578384fd5b886020828501011115611448578384fd5b95989497505060200194505050565b62ffffff169052565b6001600160a01b0391909116815260200190565b600060018060a01b038616825260208581840152846040840152608060608401528351806080850152825b818110156114bb5785810183015185820160a00152820161149f565b818111156114cc578360a083870101525b50601f01601f19169290920160a0019695505050505050565b81516001600160a01b03908116825260208084015182169083015260408084015162ffffff16908301526060808401518216908301526080808401519083015260a0838101519083015260c0808401519083015260e09283015116918101919091526101000190565b81518152602080830151818301526040808401516001600160a01b03908116828501526060808601518051831691860191909152928301511660808085019190915291015162ffffff1660a08301528201516101008201906115b360c0840182611457565b5060a08301516115c660e0840182611457565b509291505056fe506f6f6c416464726573732e636f6d707574654164647265737328666163746f72792c206b6579292d706f6f6c3a202573a164736f6c6343000706000a",
  "linkReferences": {},
  "deployedLinkReferences": {}
}