{
  "_format": "hh-sol-artifact-1",
  "contractName": "PoolAddressTest",
  "sourceName": "contracts/uniswap/v3-periphery/test/PoolAddressTest.sol",
  "abi": [
    {
      "inputs": [],
      "name": "POOL_INIT_CODE_HASH",
      "outputs": [
        {
          "internalType": "bytes32",
          "name": "",
          "type": "bytes32"
        }
      ],
      "stateMutability": "pure",
      "type": "function"
    },
    {
      "inputs": [
        {
          "internalType": "address",
          "name": "factory",
          "type": "address"
        },
        {
          "internalType": "address",
          "name": "token0",
          "type": "address"
        },
        {
          "internalType": "address",
          "name": "token1",
          "type": "address"
        },
        {
          "internalType": "uint24",
          "name": "fee",
          "type": "uint24"
        }
      ],
      "name": "computeAddress",
      "outputs": [
        {
          "internalType": "address",
          "name": "",
          "type": "address"
        }
      ],
      "stateMutability": "pure",
      "type": "function"
    },
    {
      "inputs": [
        {
          "internalType": "address",
          "name": "factory",
          "type": "address"
        },
        {
          "internalType": "address",
          "name": "token0",
          "type": "address"
        },
        {
          "internalType": "address",
          "name": "token1",
          "type": "address"
        },
        {
          "internalType": "uint24",
          "name": "fee",
          "type": "uint24"
        }
      ],
      "name": "getGasCostOfComputeAddress",
      "outputs": [
        {
          "internalType": "uint256",
          "name": "",
          "type": "uint256"
        }
      ],
      "stateMutability": "view",
      "type": "function"
    }
  ],
  "bytecode": "0x608060405234801561001057600080fd5b506103fb806100206000396000f3fe608060405234801561001057600080fd5b50600436106100415760003560e01c80638716c5ff14610046578063cce34ec6146100a4578063dc6fd8ab146100f8575b600080fd5b6100886004803603608081101561005c57600080fd5b5080356001600160a01b03908116916020810135821691604082013516906060013562ffffff16610100565b604080516001600160a01b039092168252519081900360200190f35b6100e6600480360360808110156100ba57600080fd5b5080356001600160a01b03908116916020810135821691604082013516906060013562ffffff16610146565b60408051918252519081900360200190f35b6100e6610194565b600061013d856040518060600160405280876001600160a01b03168152602001866001600160a01b031681526020018562ffffff168152506101b8565b95945050505050565b6000805a9050610187866040518060600160405280886001600160a01b03168152602001876001600160a01b031681526020018662ffffff168152506101b8565b505a900395945050505050565b7fd3e7f58b9af034cfa7a0597e539bae7c6b393817a47a6fc1e1503cd6eaffe22a90565b600081602001516001600160a01b031682600001516001600160a01b0316106101e057600080fd5b50805160208083015160408085015181516001600160a01b0395861681860152949092168482015262ffffff9091166060808501919091528151808503820181526080850183528051908401206001600160f81b031960a08601529086901b6bffffffffffffffffffffffff191660a185015260b58401527fd3e7f58b9af034cfa7a0597e539bae7c6b393817a47a6fc1e1503cd6eaffe22a60d5808501919091528151808503909101815260f58401808352815191909301206101558401909152603180835290926102be9291906103be906101150139826102c4565b92915050565b61037b82826040516024018080602001836001600160a01b03168152602001828103825284818151815260200191508051906020019080838360005b83811015610318578181015183820152602001610300565b50505050905090810190601f1680156103455780820380516001836020036101000a031916815260200191505b5060408051601f198184030181529190526020810180516001600160e01b031663319af33360e01b179052935061037f92505050565b5050565b6103968161038e6103996103ba565b63ffffffff16565b50565b60006a636f6e736f6c652e6c6f679050600080835160208501845afa505050565b9056fe506f6f6c416464726573732e636f6d707574654164647265737328666163746f72792c206b6579292d706f6f6c3a202573a164736f6c6343000706000a",
  "linkReferences": {},
  "deployedLinkReferences": {}
}