{
  "_format": "hh-sol-artifact-1",
  "contractName": "TickMathTest2",
  "sourceName": "contracts/TickMathTest.sol",
  "abi": [
    {
      "inputs": [
        {
          "internalType": "int24",
          "name": "tick",
          "type": "int24"
        }
      ],
      "name": "getSqrtRatioAtTick",
      "outputs": [
        {
          "internalType": "uint160",
          "name": "sqrtPriceX96",
          "type": "uint160"
        }
      ],
      "stateMutability": "pure",
      "type": "function"
    }
  ],
  "bytecode": "0x608060405234801561001057600080fd5b506103ab806100206000396000f3fe608060405234801561001057600080fd5b506004361061002b5760003560e01c8063986cfba314610030575b600080fd5b6100506004803603602081101561004657600080fd5b503560020b61006c565b604080516001600160a01b039092168252519081900360200190f35b60008060008360020b12610083578260020b61008b565b8260020b6000035b9050620d89e88111156100c9576040805162461bcd60e51b81526020600482015260016024820152601560fa1b604482015290519081900360640190fd5b6000600182166100dd57600160801b6100ef565b6ffffcb933bd6fad37aa2d162d1a5940015b70ffffffffffffffffffffffffffffffffff1690506002821615610123576ffff97272373d413259a46990580e213a0260801c5b6004821615610142576ffff2e50f5f656932ef12357cf3c7fdcc0260801c5b6008821615610161576fffe5caca7e10e4e61c3624eaa0941cd00260801c5b6010821615610180576fffcb9843d60f6159c9db58835c9266440260801c5b602082161561019f576fff973b41fa98c081472e6896dfb254c00260801c5b60408216156101be576fff2ea16466c96a3843ec78b326b528610260801c5b60808216156101dd576ffe5dee046a99a2a811c461f1969c30530260801c5b6101008216156101fd576ffcbe86c7900a88aedcffc83b479aa3a40260801c5b61020082161561021d576ff987a7253ac413176f2b074cf7815e540260801c5b61040082161561023d576ff3392b0822b70005940c7a398e4b70f30260801c5b61080082161561025d576fe7159475a2c29b7443b29c7fa6e889d90260801c5b61100082161561027d576fd097f3bdfd2022b8845ad8f792aa58250260801c5b61200082161561029d576fa9f746462d870fdf8a65dc1f90e061e50260801c5b6140008216156102bd576f70d869a156d2a1b890bb3df62baf32f70260801c5b6180008216156102dd576f31be135f97d08fd981231505542fcfa60260801c5b620100008216156102fe576f09aa508b5b7a84e1c677de54f3e99bc90260801c5b6202000082161561031e576e5d6af8dedb81196699c329225ee6040260801c5b6204000082161561033d576d2216e584f5fa1ea926041bedfe980260801c5b6208000082161561035a576b048a170391f7dc42444e8fa20260801c5b60008460020b131561037557806000198161037157fe5b0490505b64010000000081061561038957600161038c565b60005b60ff16602082901c019250505091905056fea164736f6c6343000706000a",
  "linkReferences": {},
  "deployedLinkReferences": {}
}