{
  "_format": "hh-sol-artifact-1",
  "contractName": "MockTimeSwapRouter",
  "sourceName": "contracts/uniswap/v3-periphery/test/MockTimeSwapRouter.sol",
  "abi": [
    {
      "inputs": [
        {
          "internalType": "address",
          "name": "_factory",
          "type": "address"
        },
        {
          "internalType": "address",
          "name": "_WETH9",
          "type": "address"
        }
      ],
      "stateMutability": "nonpayable",
      "type": "constructor"
    },
    {
      "inputs": [],
      "name": "WETH9",
      "outputs": [
        {
          "internalType": "address",
          "name": "",
          "type": "address"
        }
      ],
      "stateMutability": "view",
      "type": "function"
    },
    {
      "inputs": [
        {
          "components": [
            {
              "internalType": "bytes",
              "name": "path",
              "type": "bytes"
            },
            {
              "internalType": "address",
              "name": "recipient",
              "type": "address"
            },
            {
              "internalType": "uint256",
              "name": "deadline",
              "type": "uint256"
            },
            {
              "internalType": "uint256",
              "name": "amountIn",
              "type": "uint256"
            },
            {
              "internalType": "uint256",
              "name": "amountOutMinimum",
              "type": "uint256"
            }
          ],
          "internalType": "struct ISwapRouter.ExactInputParams",
          "name": "params",
          "type": "tuple"
        }
      ],
      "name": "exactInput",
      "outputs": [
        {
          "internalType": "uint256",
          "name": "amountOut",
          "type": "uint256"
        }
      ],
      "stateMutability": "payable",
      "type": "function"
    },
    {
      "inputs": [
        {
          "components": [
            {
              "internalType": "address",
              "name": "tokenIn",
              "type": "address"
            },
            {
              "internalType": "address",
              "name": "tokenOut",
              "type": "address"
            },
            {
              "internalType": "uint24",
              "name": "fee",
              "type": "uint24"
            },
            {
              "internalType": "address",
              "name": "recipient",
              "type": "address"
            },
            {
              "internalType": "uint256",
              "name": "deadline",
              "type": "uint256"
            },
            {
              "internalType": "uint256",
              "name": "amountIn",
              "type": "uint256"
            },
            {
              "internalType": "uint256",
              "name": "amountOutMinimum",
              "type": "uint256"
            },
            {
              "internalType": "uint160",
              "name": "sqrtPriceLimitX96",
              "type": "uint160"
            }
          ],
          "internalType": "struct ISwapRouter.ExactInputSingleParams",
          "name": "params",
          "type": "tuple"
        }
      ],
      "name": "exactInputSingle",
      "outputs": [
        {
          "internalType": "uint256",
          "name": "amountOut",
          "type": "uint256"
        }
      ],
      "stateMutability": "payable",
      "type": "function"
    },
    {
      "inputs": [
        {
          "components": [
            {
              "internalType": "bytes",
              "name": "path",
              "type": "bytes"
            },
            {
              "internalType": "address",
              "name": "recipient",
              "type": "address"
            },
            {
              "internalType": "uint256",
              "name": "deadline",
              "type": "uint256"
            },
            {
              "internalType": "uint256",
              "name": "amountOut",
              "type": "uint256"
            },
            {
              "internalType": "uint256",
              "name": "amountInMaximum",
              "type": "uint256"
            }
          ],
          "internalType": "struct ISwapRouter.ExactOutputParams",
          "name": "params",
          "type": "tuple"
        }
      ],
      "name": "exactOutput",
      "outputs": [
        {
          "internalType": "uint256",
          "name": "amountIn",
          "type": "uint256"
        }
      ],
      "stateMutability": "payable",
      "type": "function"
    },
    {
      "inputs": [
        {
          "components": [
            {
              "internalType": "address",
              "name": "tokenIn",
              "type": "address"
            },
            {
              "internalType": "address",
              "name": "tokenOut",
              "type": "address"
            },
            {
              "internalType": "uint24",
              "name": "fee",
              "type": "uint24"
            },
            {
              "internalType": "address",
              "name": "recipient",
              "type": "address"
            },
            {
              "internalType": "uint256",
              "name": "deadline",
              "type": "uint256"
            },
            {
              "internalType": "uint256",
              "name": "amountOut",
              "type": "uint256"
            },
            {
              "internalType": "uint256",
              "name": "amountInMaximum",
              "type": "uint256"
            },
            {
              "internalType": "uint160",
              "name": "sqrtPriceLimitX96",
              "type": "uint160"
            }
          ],
          "internalType": "struct ISwapRouter.ExactOutputSingleParams",
          "name": "params",
          "type": "tuple"
        }
      ],
      "name": "exactOutputSingle",
      "outputs": [
        {
          "internalType": "uint256",
          "name": "amountIn",
          "type": "uint256"
        }
      ],
      "stateMutability": "payable",
      "type": "function"
    },
    {
      "inputs": [],
      "name": "factory",
      "outputs": [
        {
          "internalType": "address",
          "name": "",
          "type": "address"
        }
      ],
      "stateMutability": "view",
      "type": "function"
    },
    {
      "inputs": [
        {
          "internalType": "bytes[]",
          "name": "data",
          "type": "bytes[]"
        }
      ],
      "name": "multicall",
      "outputs": [
        {
          "internalType": "bytes[]",
          "name": "results",
          "type": "bytes[]"
        }
      ],
      "stateMutability": "payable",
      "type": "function"
    },
    {
      "inputs": [],
      "name": "refundETH",
      "outputs": [],
      "stateMutability": "payable",
      "type": "function"
    },
    {
      "inputs": [
        {
          "internalType": "address",
          "name": "token",
          "type": "address"
        },
        {
          "internalType": "uint256",
          "name": "value",
          "type": "uint256"
        },
        {
          "internalType": "uint256",
          "name": "deadline",
          "type": "uint256"
        },
        {
          "internalType": "uint8",
          "name": "v",
          "type": "uint8"
        },
        {
          "internalType": "bytes32",
          "name": "r",
          "type": "bytes32"
        },
        {
          "internalType": "bytes32",
          "name": "s",
          "type": "bytes32"
        }
      ],
      "name": "selfPermit",
      "outputs": [],
      "stateMutability": "payable",
      "type": "function"
    },
    {
      "inputs": [
        {
          "internalType": "address",
          "name": "token",
          "type": "address"
        },
        {
          "internalType": "uint256",
          "name": "nonce",
          "type": "uint256"
        },
        {
          "internalType": "uint256",
          "name": "expiry",
          "type": "uint256"
        },
        {
          "internalType": "uint8",
          "name": "v",
          "type": "uint8"
        },
        {
          "internalType": "bytes32",
          "name": "r",
          "type": "bytes32"
        },
        {
          "internalType": "bytes32",
          "name": "s",
          "type": "bytes32"
        }
      ],
      "name": "selfPermitAllowed",
      "outputs": [],
      "stateMutability": "payable",
      "type": "function"
    },
    {
      "inputs": [
        {
          "internalType": "address",
          "name": "token",
          "type": "address"
        },
        {
          "internalType": "uint256",
          "name": "nonce",
          "type": "uint256"
        },
        {
          "internalType": "uint256",
          "name": "expiry",
          "type": "uint256"
        },
        {
          "internalType": "uint8",
          "name": "v",
          "type": "uint8"
        },
        {
          "internalType": "bytes32",
          "name": "r",
          "type": "bytes32"
        },
        {
          "internalType": "bytes32",
          "name": "s",
          "type": "bytes32"
        }
      ],
      "name": "selfPermitAllowedIfNecessary",
      "outputs": [],
      "stateMutability": "payable",
      "type": "function"
    },
    {
      "inputs": [
        {
          "internalType": "address",
          "name": "token",
          "type": "address"
        },
        {
          "internalType": "uint256",
          "name": "value",
          "type": "uint256"
        },
        {
          "internalType": "uint256",
          "name": "deadline",
          "type": "uint256"
        },
        {
          "internalType": "uint8",
          "name": "v",
          "type": "uint8"
        },
        {
          "internalType": "bytes32",
          "name": "r",
          "type": "bytes32"
        },
        {
          "internalType": "bytes32",
          "name": "s",
          "type": "bytes32"
        }
      ],
      "name": "selfPermitIfNecessary",
      "outputs": [],
      "stateMutability": "payable",
      "type": "function"
    },
    {
      "inputs": [
        {
          "internalType": "uint256",
          "name": "_time",
          "type": "uint256"
        }
      ],
      "name": "setTime",
      "outputs": [],
      "stateMutability": "nonpayable",
      "type": "function"
    },
    {
      "inputs": [
        {
          "internalType": "address",
          "name": "token",
          "type": "address"
        },
        {
          "internalType": "uint256",
          "name": "amountMinimum",
          "type": "uint256"
        },
        {
          "internalType": "address",
          "name": "recipient",
          "type": "address"
        }
      ],
      "name": "sweepToken",
      "outputs": [],
      "stateMutability": "payable",
      "type": "function"
    },
    {
      "inputs": [
        {
          "internalType": "address",
          "name": "token",
          "type": "address"
        },
        {
          "internalType": "uint256",
          "name": "amountMinimum",
          "type": "uint256"
        },
        {
          "internalType": "address",
          "name": "recipient",
          "type": "address"
        },
        {
          "internalType": "uint256",
          "name": "feeBips",
          "type": "uint256"
        },
        {
          "internalType": "address",
          "name": "feeRecipient",
          "type": "address"
        }
      ],
      "name": "sweepTokenWithFee",
      "outputs": [],
      "stateMutability": "payable",
      "type": "function"
    },
    {
      "inputs": [
        {
          "internalType": "int256",
          "name": "amount0Delta",
          "type": "int256"
        },
        {
          "internalType": "int256",
          "name": "amount1Delta",
          "type": "int256"
        },
        {
          "internalType": "bytes",
          "name": "_data",
          "type": "bytes"
        }
      ],
      "name": "uniswapV3SwapCallback",
      "outputs": [],
      "stateMutability": "nonpayable",
      "type": "function"
    },
    {
      "inputs": [
        {
          "internalType": "uint256",
          "name": "amountMinimum",
          "type": "uint256"
        },
        {
          "internalType": "address",
          "name": "recipient",
          "type": "address"
        }
      ],
      "name": "unwrapWETH9",
      "outputs": [],
      "stateMutability": "payable",
      "type": "function"
    },
    {
      "inputs": [
        {
          "internalType": "uint256",
          "name": "amountMinimum",
          "type": "uint256"
        },
        {
          "internalType": "address",
          "name": "recipient",
          "type": "address"
        },
        {
          "internalType": "uint256",
          "name": "feeBips",
          "type": "uint256"
        },
        {
          "internalType": "address",
          "name": "feeRecipient",
          "type": "address"
        }
      ],
      "name": "unwrapWETH9WithFee",
      "outputs": [],
      "stateMutability": "payable",
      "type": "function"
    },
    {
      "stateMutability": "payable",
      "type": "receive"
    }
  ],
  "bytecode": "0x60c06040526000196000553480156200001757600080fd5b5060405162002944380380620029448339810160408190526200003a9162000076565b6001600160601b0319606092831b8116608052911b1660a052620000ad565b80516001600160a01b03811681146200007157600080fd5b919050565b6000806040838503121562000089578182fd5b620000948362000059565b9150620000a46020840162000059565b90509250929050565b60805160601c60a05160601c61283b620001096000398061011d52806104f752806105e2528061066f52806106af528061079a528061178a52806117d05280611844525080610bd352806110e1528061191f525061283b6000f3fe60806040526004361061010d5760003560e01c8063c04b8d5911610095578063df2ab5bb11610064578063df2ab5bb146102af578063e0e189a0146102c2578063f28c0498146102d5578063f3995c67146102e8578063fa461e33146102fb5761017d565b8063c04b8d5914610261578063c2e3140a14610274578063c45a015514610287578063db3e21981461029c5761017d565b806349404b7c116100dc57806349404b7c146101e65780634aa4a4fc146101f95780639b2c0a371461021b578063a4a78f0c1461022e578063ac9650d8146102415761017d565b806312210e8a146101825780633beb26c41461018a578063414bf389146101aa5780634659a494146101d35761017d565b3661017d57336001600160a01b037f0000000000000000000000000000000000000000000000000000000000000000161461017b576040805162461bcd60e51b81526020600482015260096024820152684e6f7420574554483960b81b604482015290519081900360640190fd5b005b600080fd5b61017b61031b565b34801561019657600080fd5b5061017b6101a5366004612498565b61032d565b6101bd6101b8366004612391565b610332565b6040516101ca919061272b565b60405180910390f35b61017b6101e136600461210f565b610459565b61017b6101f43660046124b0565b6104f3565b34801561020557600080fd5b5061020e61066d565b6040516101ca919061259f565b61017b6102293660046124df565b610691565b61017b61023c36600461210f565b61085d565b61025461024f36600461216f565b6108ee565b6040516101ca91906125f9565b6101bd61026f3660046122e6565b610a2e565b61017b61028236600461210f565b610b42565b34801561029357600080fd5b5061020e610bd1565b6101bd6102aa366004612391565b610bf5565b61017b6102bd366004612070565b610d1c565b61017b6102d03660046120b1565b610dfa565b6101bd6102e33660046123ad565b610f21565b61017b6102f636600461210f565b611017565b34801561030757600080fd5b5061017b610316366004612201565b611089565b471561032b5761032b33476111af565b565b600155565b600081608001358061034261129e565b111561038b576040805162461bcd60e51b8152602060048201526013602482015272151c985b9cd858dd1a5bdb881d1bdbc81bdb19606a1b604482015290519081900360640190fd5b61042460a08401356103a3608086016060870161204d565b6103b4610100870160e0880161204d565b60408051808201909152806103cc60208a018a61204d565b6103dc60608b0160408c01612475565b6103ec60408c0160208d0161204d565b6040516020016103fe93929190612554565b6040516020818303038152906040528152602001336001600160a01b03168152506112a4565b91508260c001358210156104535760405162461bcd60e51b815260040161044a906126c1565b60405180910390fd5b50919050565b604080516323f2ebc360e21b815233600482015230602482015260448101879052606481018690526001608482015260ff851660a482015260c4810184905260e4810183905290516001600160a01b03881691638fcbaf0c9161010480830192600092919082900301818387803b1580156104d357600080fd5b505af11580156104e7573d6000803e3d6000fd5b50505050505050505050565b60007f00000000000000000000000000000000000000000000000000000000000000006001600160a01b03166370a08231306040518263ffffffff1660e01b815260040180826001600160a01b0316815260200191505060206040518083038186803b15801561056257600080fd5b505afa158015610576573d6000803e3d6000fd5b505050506040513d602081101561058c57600080fd5b50519050828110156105da576040805162461bcd60e51b8152602060048201526012602482015271496e73756666696369656e7420574554483960701b604482015290519081900360640190fd5b8015610668577f00000000000000000000000000000000000000000000000000000000000000006001600160a01b0316632e1a7d4d826040518263ffffffff1660e01b815260040180828152602001915050600060405180830381600087803b15801561064657600080fd5b505af115801561065a573d6000803e3d6000fd5b5050505061066882826111af565b505050565b7f000000000000000000000000000000000000000000000000000000000000000081565b6000821180156106a2575060648211155b6106ab57600080fd5b60007f00000000000000000000000000000000000000000000000000000000000000006001600160a01b03166370a08231306040518263ffffffff1660e01b815260040180826001600160a01b0316815260200191505060206040518083038186803b15801561071a57600080fd5b505afa15801561072e573d6000803e3d6000fd5b505050506040513d602081101561074457600080fd5b5051905084811015610792576040805162461bcd60e51b8152602060048201526012602482015271496e73756666696369656e7420574554483960701b604482015290519081900360640190fd5b8015610856577f00000000000000000000000000000000000000000000000000000000000000006001600160a01b0316632e1a7d4d826040518263ffffffff1660e01b815260040180828152602001915050600060405180830381600087803b1580156107fe57600080fd5b505af1158015610812573d6000803e3d6000fd5b50505050600061271061082e858461141a90919063ffffffff16565b8161083557fe5b04905080156108485761084883826111af565b610854858284036111af565b505b5050505050565b60408051636eb1769f60e11b81523360048201523060248201529051600019916001600160a01b0389169163dd62ed3e91604480820192602092909190829003018186803b1580156108ae57600080fd5b505afa1580156108c2573d6000803e3d6000fd5b505050506040513d60208110156108d857600080fd5b5051101561085457610854868686868686610459565b60608167ffffffffffffffff8111801561090757600080fd5b5060405190808252806020026020018201604052801561093b57816020015b60608152602001906001900390816109265790505b50905060005b82811015610a27576000803086868581811061095957fe5b905060200281019061096b9190612734565b60405161097992919061258f565b600060405180830381855af49150503d80600081146109b4576040519150601f19603f3d011682016040523d82523d6000602084013e6109b9565b606091505b509150915081610a05576044815110156109d257600080fd5b600481019050808060200190518101906109ec919061227c565b60405162461bcd60e51b815260040161044a9190612659565b80848481518110610a1257fe5b60209081029190910101525050600101610941565b5092915050565b6000816040015180610a3e61129e565b1115610a87576040805162461bcd60e51b8152602060048201526013602482015272151c985b9cd858dd1a5bdb881d1bdbc81bdb19606a1b604482015290519081900360640190fd5b335b6000610a988560000151611444565b9050610ae4856060015182610ab1578660200151610ab3565b305b60006040518060400160405280610acd8b60000151611450565b8152602001876001600160a01b03168152506112a4565b60608601528015610b04578451309250610afd9061145f565b8552610b11565b8460600151935050610b17565b50610a89565b8360800151831015610b3b5760405162461bcd60e51b815260040161044a906126c1565b5050919050565b60408051636eb1769f60e11b8152336004820152306024820152905186916001600160a01b0389169163dd62ed3e91604480820192602092909190829003018186803b158015610b9157600080fd5b505afa158015610ba5573d6000803e3d6000fd5b505050506040513d6020811015610bbb57600080fd5b5051101561085457610854868686868686611017565b7f000000000000000000000000000000000000000000000000000000000000000081565b6000816080013580610c0561129e565b1115610c4e576040805162461bcd60e51b8152602060048201526013602482015272151c985b9cd858dd1a5bdb881d1bdbc81bdb19606a1b604482015290519081900360640190fd5b610cea60a0840135610c66608086016060870161204d565b610c77610100870160e0880161204d565b6040518060400160405280886020016020810190610c95919061204d565b610ca560608b0160408c01612475565b610cb260208c018c61204d565b604051602001610cc493929190612554565b6040516020818303038152906040528152602001336001600160a01b0316815250611476565b91508260c00135821115610d105760405162461bcd60e51b815260040161044a90612695565b50600019600055919050565b6000836001600160a01b03166370a08231306040518263ffffffff1660e01b815260040180826001600160a01b0316815260200191505060206040518083038186803b158015610d6b57600080fd5b505afa158015610d7f573d6000803e3d6000fd5b505050506040513d6020811015610d9557600080fd5b5051905082811015610de3576040805162461bcd60e51b815260206004820152601260248201527124b739bab33334b1b4b2b73a103a37b5b2b760711b604482015290519081900360640190fd5b8015610df457610df48483836115f1565b50505050565b600082118015610e0b575060648211155b610e1457600080fd5b6000856001600160a01b03166370a08231306040518263ffffffff1660e01b815260040180826001600160a01b0316815260200191505060206040518083038186803b158015610e6357600080fd5b505afa158015610e77573d6000803e3d6000fd5b505050506040513d6020811015610e8d57600080fd5b5051905084811015610edb576040805162461bcd60e51b815260206004820152601260248201527124b739bab33334b1b4b2b73a103a37b5b2b760711b604482015290519081900360640190fd5b8015610854576000612710610ef0838661141a565b81610ef757fe5b0490508015610f0b57610f0b8784836115f1565b610f1887868385036115f1565b50505050505050565b6000816040013580610f3161129e565b1115610f7a576040805162461bcd60e51b8152602060048201526013602482015272151c985b9cd858dd1a5bdb881d1bdbc81bdb19606a1b604482015290519081900360640190fd5b610fed6060840135610f92604086016020870161204d565b6040805180820190915260009080610faa8980612734565b8080601f01602080910402602001604051908101604052809392919081815260200183838082843760009201919091525050509082525033602090910152611476565b5060005491508260800135821115610d105760405162461bcd60e51b815260040161044a90612695565b6040805163d505accf60e01b8152336004820152306024820152604481018790526064810186905260ff8516608482015260a4810184905260c4810183905290516001600160a01b0388169163d505accf9160e480830192600092919082900301818387803b1580156104d357600080fd5b60008413806110985750600083135b6110b45760405162461bcd60e51b815260040161044a9061266c565b60006110c2828401846123e5565b905060008060006110d68460000151611738565b9250925092506111087f0000000000000000000000000000000000000000000000000000000000000000848484611769565b5060008060008a1361112f57846001600160a01b0316846001600160a01b03161089611146565b836001600160a01b0316856001600160a01b0316108a5b915091508115611165576111608587602001513384611788565b6104e7565b855161117090611444565b156111955785516111809061145f565b865261118f8133600089611476565b506104e7565b806000819055508394506104e78587602001513384611788565b604080516000808252602082019092526001600160a01b0384169083906040518082805190602001908083835b602083106111fb5780518252601f1990920191602091820191016111dc565b6001836020036101000a03801982511681845116808217855250505050505090500191505060006040518083038185875af1925050503d806000811461125d576040519150601f19603f3d011682016040523d82523d6000602084013e611262565b606091505b5050905080610668576040805162461bcd60e51b815260206004820152600360248201526253544560e81b604482015290519081900360640190fd5b60015490565b60006001600160a01b0384166112b8573093505b60008060006112ca8560000151611738565b919450925090506001600160a01b03808316908416106000806112ee868686611918565b6001600160a01b031663128acb088b856113078f611956565b6001600160a01b038e161561131c578d611342565b8761133b5773fffd8963efd1fc6a506488495d951d5263988d25611342565b6401000276a45b8d60405160200161135391906126ee565b6040516020818303038152906040526040518663ffffffff1660e01b81526004016113829594939291906125b3565b6040805180830381600087803b15801561139b57600080fd5b505af11580156113af573d6000803e3d6000fd5b505050506040513d601f19601f820116820180604052508101906113d391906121de565b915091506113fb6040518060600160405280602781526020016128086027913983838661196c565b826114065781611408565b805b6000039b9a5050505050505050505050565b60008215806114355750508181028183828161143257fe5b04145b61143e57600080fd5b92915050565b8051604211155b919050565b606061143e826000602b611a2c565b805160609061143e90839060179060161901611a2c565b60006001600160a01b03841661148a573093505b600080600061149c8560000151611738565b919450925090506001600160a01b03808416908316106000806114c0858786611918565b6001600160a01b031663128acb088b856114d98f611956565b6000036001600160a01b038e16156114f1578d611517565b876115105773fffd8963efd1fc6a506488495d951d5263988d25611517565b6401000276a45b8d60405160200161152891906126ee565b6040516020818303038152906040526040518663ffffffff1660e01b81526004016115579594939291906125b3565b6040805180830381600087803b15801561157057600080fd5b505af1158015611584573d6000803e3d6000fd5b505050506040513d601f19601f820116820180604052508101906115a891906121de565b915091506000836115bd5781836000036115c3565b82826000035b90985090506001600160a01b038a166115e2578b81146115e257600080fd5b50505050505050949350505050565b604080516001600160a01b038481166024830152604480830185905283518084039091018152606490920183526020820180516001600160e01b031663a9059cbb60e01b1781529251825160009485949389169392918291908083835b6020831061166d5780518252601f19909201916020918201910161164e565b6001836020036101000a0380198251168184511680821785525050505050509050019150506000604051808303816000865af19150503d80600081146116cf576040519150601f19603f3d011682016040523d82523d6000602084013e6116d4565b606091505b509150915081801561170257508051158061170257508080602001905160208110156116ff57600080fd5b50515b610856576040805162461bcd60e51b815260206004820152600260248201526114d560f21b604482015290519081900360640190fd5b600080806117468482611b7d565b9250611753846014611c2d565b9050611760846017611b7d565b91509193909250565b600061177f8561177a868686611cd4565b611d2a565b95945050505050565b7f00000000000000000000000000000000000000000000000000000000000000006001600160a01b0316846001600160a01b03161480156117c95750804710155b156118eb577f00000000000000000000000000000000000000000000000000000000000000006001600160a01b031663d0e30db0826040518263ffffffff1660e01b81526004016000604051808303818588803b15801561182957600080fd5b505af115801561183d573d6000803e3d6000fd5b50505050507f00000000000000000000000000000000000000000000000000000000000000006001600160a01b031663a9059cbb83836040518363ffffffff1660e01b815260040180836001600160a01b0316815260200182815260200192505050602060405180830381600087803b1580156118b957600080fd5b505af11580156118cd573d6000803e3d6000fd5b505050506040513d60208110156118e357600080fd5b50610df49050565b6001600160a01b03831630141561190c576119078483836115f1565b610df4565b610df484848484611d4d565b600061194e7f0000000000000000000000000000000000000000000000000000000000000000611949868686611cd4565b611e9d565b949350505050565b6000600160ff1b821061196857600080fd5b5090565b610df48484848460405160240180806020018581526020018481526020018315158152602001828103825286818151815260200191508051906020019080838360005b838110156119c75781810151838201526020016119af565b50505050905090810190601f1680156119f45780820380516001836020036101000a031916815260200191505b5060408051601f198184030181529190526020810180516001600160e01b0316633b136dc960e11b1790529550611f81945050505050565b60608182601f011015611a77576040805162461bcd60e51b815260206004820152600e60248201526d736c6963655f6f766572666c6f7760901b604482015290519081900360640190fd5b828284011015611abf576040805162461bcd60e51b815260206004820152600e60248201526d736c6963655f6f766572666c6f7760901b604482015290519081900360640190fd5b81830184511015611b0b576040805162461bcd60e51b8152602060048201526011602482015270736c6963655f6f75744f66426f756e647360781b604482015290519081900360640190fd5b606082158015611b2a5760405191506000825260208201604052611b74565b6040519150601f8416801560200281840101858101878315602002848b0101015b81831015611b63578051835260209283019201611b4b565b5050858452601f01601f1916604052505b50949350505050565b600081826014011015611bcc576040805162461bcd60e51b8152602060048201526012602482015271746f416464726573735f6f766572666c6f7760701b604482015290519081900360640190fd5b8160140183511015611c1d576040805162461bcd60e51b8152602060048201526015602482015274746f416464726573735f6f75744f66426f756e647360581b604482015290519081900360640190fd5b500160200151600160601b900490565b600081826003011015611c7b576040805162461bcd60e51b8152602060048201526011602482015270746f55696e7432345f6f766572666c6f7760781b604482015290519081900360640190fd5b8160030183511015611ccb576040805162461bcd60e51b8152602060048201526014602482015273746f55696e7432345f6f75744f66426f756e647360601b604482015290519081900360640190fd5b50016003015190565b611cdc611fbf565b826001600160a01b0316846001600160a01b03161115611cfa579192915b50604080516060810182526001600160a01b03948516815292909316602083015262ffffff169181019190915290565b6000611d368383611e9d565b9050336001600160a01b0382161461143e57600080fd5b604080516001600160a01b0385811660248301528481166044830152606480830185905283518084039091018152608490920183526020820180516001600160e01b03166323b872dd60e01b178152925182516000948594938a169392918291908083835b60208310611dd15780518252601f199092019160209182019101611db2565b6001836020036101000a0380198251168184511680821785525050505050509050019150506000604051808303816000865af19150503d8060008114611e33576040519150601f19603f3d011682016040523d82523d6000602084013e611e38565b606091505b5091509150818015611e66575080511580611e665750808060200190516020811015611e6357600080fd5b50515b610854576040805162461bcd60e51b815260206004820152600360248201526229aa2360e91b604482015290519081900360640190fd5b600081602001516001600160a01b031682600001516001600160a01b031610611ec557600080fd5b50805160208083015160409384015184516001600160a01b0394851681850152939091168385015262ffffff166060808401919091528351808403820181526080840185528051908301206001600160f81b031960a085015294901b6bffffffffffffffffffffffff191660a183015260b58201939093527fd3e7f58b9af034cfa7a0597e539bae7c6b393817a47a6fc1e1503cd6eaffe22a60d5808301919091528251808303909101815260f5909101909152805191012090565b611f9881611f90611f9b611fbc565b63ffffffff16565b50565b60006a636f6e736f6c652e6c6f679050600080835160208501845afa505050565b90565b604080516060810182526000808252602082018190529181019190915290565b803561144b816127f2565b600082601f830112611ffa578081fd5b813561200d612008826127a4565b612780565b818152846020838601011115612021578283fd5b816020850160208301379081016020019190915292915050565b60006101008284031215610453578081fd5b60006020828403121561205e578081fd5b8135612069816127f2565b9392505050565b600080600060608486031215612084578182fd5b833561208f816127f2565b92506020840135915060408401356120a6816127f2565b809150509250925092565b600080600080600060a086880312156120c8578081fd5b85356120d3816127f2565b94506020860135935060408601356120ea816127f2565b9250606086013591506080860135612101816127f2565b809150509295509295909350565b60008060008060008060c08789031215612127578081fd5b8635612132816127f2565b95506020870135945060408701359350606087013560ff81168114612155578182fd5b9598949750929560808101359460a0909101359350915050565b60008060208385031215612181578182fd5b823567ffffffffffffffff80821115612198578384fd5b818501915085601f8301126121ab578384fd5b8135818111156121b9578485fd5b86602080830285010111156121cc578485fd5b60209290920196919550909350505050565b600080604083850312156121f0578182fd5b505080516020909101519092909150565b60008060008060608587031215612216578182fd5b8435935060208501359250604085013567ffffffffffffffff8082111561223b578384fd5b818701915087601f83011261224e578384fd5b81358181111561225c578485fd5b88602082850101111561226d578485fd5b95989497505060200194505050565b60006020828403121561228d578081fd5b815167ffffffffffffffff8111156122a3578182fd5b8201601f810184136122b3578182fd5b80516122c1612008826127a4565b8181528560208385010111156122d5578384fd5b61177f8260208301602086016127c6565b6000602082840312156122f7578081fd5b813567ffffffffffffffff8082111561230e578283fd5b9083019060a08286031215612321578283fd5b60405160a08101818110838211171561233657fe5b604052823582811115612347578485fd5b61235387828601611fea565b82525061236260208401611fdf565b602082015260408301356040820152606083013560608201526080830135608082015280935050505092915050565b600061010082840312156123a3578081fd5b612069838361203b565b6000602082840312156123be578081fd5b813567ffffffffffffffff8111156123d4578182fd5b820160a08185031215612069578182fd5b6000602082840312156123f6578081fd5b813567ffffffffffffffff8082111561240d578283fd5b9083019060408286031215612420578283fd5b60405160408101818110838211171561243557fe5b604052823582811115612446578485fd5b61245287828601611fea565b82525060208301359250612465836127f2565b6020810192909252509392505050565b600060208284031215612486578081fd5b813562ffffff81168114612069578182fd5b6000602082840312156124a9578081fd5b5035919050565b600080604083850312156124c2578182fd5b8235915060208301356124d4816127f2565b809150509250929050565b600080600080608085870312156124f4578182fd5b843593506020850135612506816127f2565b925060408501359150606085013561251d816127f2565b939692955090935050565b600081518084526125408160208601602086016127c6565b601f01601f19169290920160200192915050565b606093841b6bffffffffffffffffffffffff19908116825260e89390931b6001600160e81b0319166014820152921b166017820152602b0190565b6000828483379101908152919050565b6001600160a01b0391909116815260200190565b6001600160a01b0386811682528515156020830152604082018590528316606082015260a0608082018190526000906125ee90830184612528565b979650505050505050565b6000602080830181845280855180835260408601915060408482028701019250838701855b8281101561264c57603f1988860301845261263a858351612528565b9450928501929085019060010161261e565b5092979650505050505050565b6000602082526120696020830184612528565b6020808252600f908201526e5a65726f20737761702064656c746160881b604082015260600190565b602080825260129082015271151bdbc81b5d58da081c995c5d595cdd195960721b604082015260600190565b602080825260139082015272151bdbc81b1a5d1d1b19481c9958d95a5d9959606a1b604082015260600190565b60006020825282516040602084015261270a6060840182612528565b602094909401516001600160a01b0316604093909301929092525090919050565b90815260200190565b6000808335601e1984360301811261274a578283fd5b83018035915067ffffffffffffffff821115612764578283fd5b60200191503681900382131561277957600080fd5b9250929050565b60405181810167ffffffffffffffff8111828210171561279c57fe5b604052919050565b600067ffffffffffffffff8211156127b857fe5b50601f01601f191660200190565b60005b838110156127e15781810151838201526020016127c9565b83811115610df45750506000910152565b6001600160a01b0381168114611f9857600080fdfe53776170526f757465722d6578616374496e707574496e7465726e616c28292d746f6b656e496ea164736f6c6343000706000a",
  "linkReferences": {},
  "deployedLinkReferences": {}
}