{
  "_format": "hh-sol-artifact-1",
  "contractName": "MockTimeSwapRouter",
  "sourceName": "contracts/uniswap/v3-periphery/test/MockTimeSwapRouter.sol",
  "abi": [
    {
      "inputs": [
        {
          "internalType": "address",
          "name": "_factory",
          "type": "address"
        },
        {
          "internalType": "address",
          "name": "_WETH9",
          "type": "address"
        }
      ],
      "stateMutability": "nonpayable",
      "type": "constructor"
    },
    {
      "inputs": [],
      "name": "WETH9",
      "outputs": [
        {
          "internalType": "address",
          "name": "",
          "type": "address"
        }
      ],
      "stateMutability": "view",
      "type": "function"
    },
    {
      "inputs": [
        {
          "components": [
            {
              "internalType": "bytes",
              "name": "path",
              "type": "bytes"
            },
            {
              "internalType": "address",
              "name": "recipient",
              "type": "address"
            },
            {
              "internalType": "uint256",
              "name": "deadline",
              "type": "uint256"
            },
            {
              "internalType": "uint256",
              "name": "amountIn",
              "type": "uint256"
            },
            {
              "internalType": "uint256",
              "name": "amountOutMinimum",
              "type": "uint256"
            }
          ],
          "internalType": "struct ISwapRouter.ExactInputParams",
          "name": "params",
          "type": "tuple"
        }
      ],
      "name": "exactInput",
      "outputs": [
        {
          "internalType": "uint256",
          "name": "amountOut",
          "type": "uint256"
        }
      ],
      "stateMutability": "payable",
      "type": "function"
    },
    {
      "inputs": [
        {
          "components": [
            {
              "internalType": "address",
              "name": "tokenIn",
              "type": "address"
            },
            {
              "internalType": "address",
              "name": "tokenOut",
              "type": "address"
            },
            {
              "internalType": "uint24",
              "name": "fee",
              "type": "uint24"
            },
            {
              "internalType": "address",
              "name": "recipient",
              "type": "address"
            },
            {
              "internalType": "uint256",
              "name": "deadline",
              "type": "uint256"
            },
            {
              "internalType": "uint256",
              "name": "amountIn",
              "type": "uint256"
            },
            {
              "internalType": "uint256",
              "name": "amountOutMinimum",
              "type": "uint256"
            },
            {
              "internalType": "uint160",
              "name": "sqrtPriceLimitX96",
              "type": "uint160"
            }
          ],
          "internalType": "struct ISwapRouter.ExactInputSingleParams",
          "name": "params",
          "type": "tuple"
        }
      ],
      "name": "exactInputSingle",
      "outputs": [
        {
          "internalType": "uint256",
          "name": "amountOut",
          "type": "uint256"
        }
      ],
      "stateMutability": "payable",
      "type": "function"
    },
    {
      "inputs": [
        {
          "components": [
            {
              "internalType": "bytes",
              "name": "path",
              "type": "bytes"
            },
            {
              "internalType": "address",
              "name": "recipient",
              "type": "address"
            },
            {
              "internalType": "uint256",
              "name": "deadline",
              "type": "uint256"
            },
            {
              "internalType": "uint256",
              "name": "amountOut",
              "type": "uint256"
            },
            {
              "internalType": "uint256",
              "name": "amountInMaximum",
              "type": "uint256"
            }
          ],
          "internalType": "struct ISwapRouter.ExactOutputParams",
          "name": "params",
          "type": "tuple"
        }
      ],
      "name": "exactOutput",
      "outputs": [
        {
          "internalType": "uint256",
          "name": "amountIn",
          "type": "uint256"
        }
      ],
      "stateMutability": "payable",
      "type": "function"
    },
    {
      "inputs": [
        {
          "components": [
            {
              "internalType": "address",
              "name": "tokenIn",
              "type": "address"
            },
            {
              "internalType": "address",
              "name": "tokenOut",
              "type": "address"
            },
            {
              "internalType": "uint24",
              "name": "fee",
              "type": "uint24"
            },
            {
              "internalType": "address",
              "name": "recipient",
              "type": "address"
            },
            {
              "internalType": "uint256",
              "name": "deadline",
              "type": "uint256"
            },
            {
              "internalType": "uint256",
              "name": "amountOut",
              "type": "uint256"
            },
            {
              "internalType": "uint256",
              "name": "amountInMaximum",
              "type": "uint256"
            },
            {
              "internalType": "uint160",
              "name": "sqrtPriceLimitX96",
              "type": "uint160"
            }
          ],
          "internalType": "struct ISwapRouter.ExactOutputSingleParams",
          "name": "params",
          "type": "tuple"
        }
      ],
      "name": "exactOutputSingle",
      "outputs": [
        {
          "internalType": "uint256",
          "name": "amountIn",
          "type": "uint256"
        }
      ],
      "stateMutability": "payable",
      "type": "function"
    },
    {
      "inputs": [],
      "name": "factory",
      "outputs": [
        {
          "internalType": "address",
          "name": "",
          "type": "address"
        }
      ],
      "stateMutability": "view",
      "type": "function"
    },
    {
      "inputs": [
        {
          "internalType": "bytes[]",
          "name": "data",
          "type": "bytes[]"
        }
      ],
      "name": "multicall",
      "outputs": [
        {
          "internalType": "bytes[]",
          "name": "results",
          "type": "bytes[]"
        }
      ],
      "stateMutability": "payable",
      "type": "function"
    },
    {
      "inputs": [],
      "name": "refundETH",
      "outputs": [],
      "stateMutability": "payable",
      "type": "function"
    },
    {
      "inputs": [
        {
          "internalType": "address",
          "name": "token",
          "type": "address"
        },
        {
          "internalType": "uint256",
          "name": "value",
          "type": "uint256"
        },
        {
          "internalType": "uint256",
          "name": "deadline",
          "type": "uint256"
        },
        {
          "internalType": "uint8",
          "name": "v",
          "type": "uint8"
        },
        {
          "internalType": "bytes32",
          "name": "r",
          "type": "bytes32"
        },
        {
          "internalType": "bytes32",
          "name": "s",
          "type": "bytes32"
        }
      ],
      "name": "selfPermit",
      "outputs": [],
      "stateMutability": "payable",
      "type": "function"
    },
    {
      "inputs": [
        {
          "internalType": "address",
          "name": "token",
          "type": "address"
        },
        {
          "internalType": "uint256",
          "name": "nonce",
          "type": "uint256"
        },
        {
          "internalType": "uint256",
          "name": "expiry",
          "type": "uint256"
        },
        {
          "internalType": "uint8",
          "name": "v",
          "type": "uint8"
        },
        {
          "internalType": "bytes32",
          "name": "r",
          "type": "bytes32"
        },
        {
          "internalType": "bytes32",
          "name": "s",
          "type": "bytes32"
        }
      ],
      "name": "selfPermitAllowed",
      "outputs": [],
      "stateMutability": "payable",
      "type": "function"
    },
    {
      "inputs": [
        {
          "internalType": "address",
          "name": "token",
          "type": "address"
        },
        {
          "internalType": "uint256",
          "name": "nonce",
          "type": "uint256"
        },
        {
          "internalType": "uint256",
          "name": "expiry",
          "type": "uint256"
        },
        {
          "internalType": "uint8",
          "name": "v",
          "type": "uint8"
        },
        {
          "internalType": "bytes32",
          "name": "r",
          "type": "bytes32"
        },
        {
          "internalType": "bytes32",
          "name": "s",
          "type": "bytes32"
        }
      ],
      "name": "selfPermitAllowedIfNecessary",
      "outputs": [],
      "stateMutability": "payable",
      "type": "function"
    },
    {
      "inputs": [
        {
          "internalType": "address",
          "name": "token",
          "type": "address"
        },
        {
          "internalType": "uint256",
          "name": "value",
          "type": "uint256"
        },
        {
          "internalType": "uint256",
          "name": "deadline",
          "type": "uint256"
        },
        {
          "internalType": "uint8",
          "name": "v",
          "type": "uint8"
        },
        {
          "internalType": "bytes32",
          "name": "r",
          "type": "bytes32"
        },
        {
          "internalType": "bytes32",
          "name": "s",
          "type": "bytes32"
        }
      ],
      "name": "selfPermitIfNecessary",
      "outputs": [],
      "stateMutability": "payable",
      "type": "function"
    },
    {
      "inputs": [
        {
          "internalType": "uint256",
          "name": "_time",
          "type": "uint256"
        }
      ],
      "name": "setTime",
      "outputs": [],
      "stateMutability": "nonpayable",
      "type": "function"
    },
    {
      "inputs": [
        {
          "internalType": "address",
          "name": "token",
          "type": "address"
        },
        {
          "internalType": "uint256",
          "name": "amountMinimum",
          "type": "uint256"
        },
        {
          "internalType": "address",
          "name": "recipient",
          "type": "address"
        }
      ],
      "name": "sweepToken",
      "outputs": [],
      "stateMutability": "payable",
      "type": "function"
    },
    {
      "inputs": [
        {
          "internalType": "address",
          "name": "token",
          "type": "address"
        },
        {
          "internalType": "uint256",
          "name": "amountMinimum",
          "type": "uint256"
        },
        {
          "internalType": "address",
          "name": "recipient",
          "type": "address"
        },
        {
          "internalType": "uint256",
          "name": "feeBips",
          "type": "uint256"
        },
        {
          "internalType": "address",
          "name": "feeRecipient",
          "type": "address"
        }
      ],
      "name": "sweepTokenWithFee",
      "outputs": [],
      "stateMutability": "payable",
      "type": "function"
    },
    {
      "inputs": [
        {
          "internalType": "int256",
          "name": "amount0Delta",
          "type": "int256"
        },
        {
          "internalType": "int256",
          "name": "amount1Delta",
          "type": "int256"
        },
        {
          "internalType": "bytes",
          "name": "_data",
          "type": "bytes"
        }
      ],
      "name": "uniswapV3SwapCallback",
      "outputs": [],
      "stateMutability": "nonpayable",
      "type": "function"
    },
    {
      "inputs": [
        {
          "internalType": "uint256",
          "name": "amountMinimum",
          "type": "uint256"
        },
        {
          "internalType": "address",
          "name": "recipient",
          "type": "address"
        }
      ],
      "name": "unwrapWETH9",
      "outputs": [],
      "stateMutability": "payable",
      "type": "function"
    },
    {
      "inputs": [
        {
          "internalType": "uint256",
          "name": "amountMinimum",
          "type": "uint256"
        },
        {
          "internalType": "address",
          "name": "recipient",
          "type": "address"
        },
        {
          "internalType": "uint256",
          "name": "feeBips",
          "type": "uint256"
        },
        {
          "internalType": "address",
          "name": "feeRecipient",
          "type": "address"
        }
      ],
      "name": "unwrapWETH9WithFee",
      "outputs": [],
      "stateMutability": "payable",
      "type": "function"
    },
    {
      "stateMutability": "payable",
      "type": "receive"
    }
  ],
  "bytecode": "0x60c06040526000196000553480156200001757600080fd5b5060405162002906380380620029068339810160408190526200003a9162000076565b6001600160601b0319606092831b8116608052911b1660a052620000ad565b80516001600160a01b03811681146200007157600080fd5b919050565b6000806040838503121562000089578182fd5b620000948362000059565b9150620000a46020840162000059565b90509250929050565b60805160601c60a05160601c6127fd620001096000398061011d52806104f752806105e2528061066f52806106af528061079a52806117535280611799528061180d525080610bd352806110ce52806118e852506127fd6000f3fe60806040526004361061010d5760003560e01c8063c04b8d5911610095578063df2ab5bb11610064578063df2ab5bb146102af578063e0e189a0146102c2578063f28c0498146102d5578063f3995c67146102e8578063fa461e33146102fb5761017d565b8063c04b8d5914610261578063c2e3140a14610274578063c45a015514610287578063db3e21981461029c5761017d565b806349404b7c116100dc57806349404b7c146101e65780634aa4a4fc146101f95780639b2c0a371461021b578063a4a78f0c1461022e578063ac9650d8146102415761017d565b806312210e8a146101825780633beb26c41461018a578063414bf389146101aa5780634659a494146101d35761017d565b3661017d57336001600160a01b037f0000000000000000000000000000000000000000000000000000000000000000161461017b576040805162461bcd60e51b81526020600482015260096024820152684e6f7420574554483960b81b604482015290519081900360640190fd5b005b600080fd5b61017b61031b565b34801561019657600080fd5b5061017b6101a5366004612479565b61032d565b6101bd6101b8366004612372565b610332565b6040516101ca91906126e3565b60405180910390f35b61017b6101e13660046120f0565b610459565b61017b6101f4366004612491565b6104f3565b34801561020557600080fd5b5061020e61066d565b6040516101ca9190612580565b61017b6102293660046124c0565b610691565b61017b61023c3660046120f0565b61085d565b61025461024f366004612150565b6108ee565b6040516101ca91906125da565b6101bd61026f3660046122c7565b610a2e565b61017b6102823660046120f0565b610b42565b34801561029357600080fd5b5061020e610bd1565b6101bd6102aa366004612372565b610bf5565b61017b6102bd366004612051565b610d1c565b61017b6102d0366004612092565b610dfa565b6101bd6102e336600461238e565b610f21565b61017b6102f63660046120f0565b611017565b34801561030757600080fd5b5061017b6103163660046121e2565b611089565b471561032b5761032b334761119c565b565b600155565b600081608001358061034261128b565b111561038b576040805162461bcd60e51b8152602060048201526013602482015272151c985b9cd858dd1a5bdb881d1bdbc81bdb19606a1b604482015290519081900360640190fd5b61042460a08401356103a3608086016060870161202e565b6103b4610100870160e0880161202e565b60408051808201909152806103cc60208a018a61202e565b6103dc60608b0160408c01612456565b6103ec60408c0160208d0161202e565b6040516020016103fe93929190612535565b6040516020818303038152906040528152602001336001600160a01b0316815250611291565b91508260c001358210156104535760405162461bcd60e51b815260040161044a90612679565b60405180910390fd5b50919050565b604080516323f2ebc360e21b815233600482015230602482015260448101879052606481018690526001608482015260ff851660a482015260c4810184905260e4810183905290516001600160a01b03881691638fcbaf0c9161010480830192600092919082900301818387803b1580156104d357600080fd5b505af11580156104e7573d6000803e3d6000fd5b50505050505050505050565b60007f00000000000000000000000000000000000000000000000000000000000000006001600160a01b03166370a08231306040518263ffffffff1660e01b815260040180826001600160a01b0316815260200191505060206040518083038186803b15801561056257600080fd5b505afa158015610576573d6000803e3d6000fd5b505050506040513d602081101561058c57600080fd5b50519050828110156105da576040805162461bcd60e51b8152602060048201526012602482015271496e73756666696369656e7420574554483960701b604482015290519081900360640190fd5b8015610668577f00000000000000000000000000000000000000000000000000000000000000006001600160a01b0316632e1a7d4d826040518263ffffffff1660e01b815260040180828152602001915050600060405180830381600087803b15801561064657600080fd5b505af115801561065a573d6000803e3d6000fd5b50505050610668828261119c565b505050565b7f000000000000000000000000000000000000000000000000000000000000000081565b6000821180156106a2575060648211155b6106ab57600080fd5b60007f00000000000000000000000000000000000000000000000000000000000000006001600160a01b03166370a08231306040518263ffffffff1660e01b815260040180826001600160a01b0316815260200191505060206040518083038186803b15801561071a57600080fd5b505afa15801561072e573d6000803e3d6000fd5b505050506040513d602081101561074457600080fd5b5051905084811015610792576040805162461bcd60e51b8152602060048201526012602482015271496e73756666696369656e7420574554483960701b604482015290519081900360640190fd5b8015610856577f00000000000000000000000000000000000000000000000000000000000000006001600160a01b0316632e1a7d4d826040518263ffffffff1660e01b815260040180828152602001915050600060405180830381600087803b1580156107fe57600080fd5b505af1158015610812573d6000803e3d6000fd5b50505050600061271061082e85846113e390919063ffffffff16565b8161083557fe5b049050801561084857610848838261119c565b6108548582840361119c565b505b5050505050565b60408051636eb1769f60e11b81523360048201523060248201529051600019916001600160a01b0389169163dd62ed3e91604480820192602092909190829003018186803b1580156108ae57600080fd5b505afa1580156108c2573d6000803e3d6000fd5b505050506040513d60208110156108d857600080fd5b5051101561085457610854868686868686610459565b60608167ffffffffffffffff8111801561090757600080fd5b5060405190808252806020026020018201604052801561093b57816020015b60608152602001906001900390816109265790505b50905060005b82811015610a27576000803086868581811061095957fe5b905060200281019061096b91906126ec565b604051610979929190612570565b600060405180830381855af49150503d80600081146109b4576040519150601f19603f3d011682016040523d82523d6000602084013e6109b9565b606091505b509150915081610a05576044815110156109d257600080fd5b600481019050808060200190518101906109ec919061225d565b60405162461bcd60e51b815260040161044a919061263a565b80848481518110610a1257fe5b60209081029190910101525050600101610941565b5092915050565b6000816040015180610a3e61128b565b1115610a87576040805162461bcd60e51b8152602060048201526013602482015272151c985b9cd858dd1a5bdb881d1bdbc81bdb19606a1b604482015290519081900360640190fd5b335b6000610a98856000015161140d565b9050610ae4856060015182610ab1578660200151610ab3565b305b60006040518060400160405280610acd8b60000151611419565b8152602001876001600160a01b0316815250611291565b60608601528015610b04578451309250610afd90611428565b8552610b11565b8460600151935050610b17565b50610a89565b8360800151831015610b3b5760405162461bcd60e51b815260040161044a90612679565b5050919050565b60408051636eb1769f60e11b8152336004820152306024820152905186916001600160a01b0389169163dd62ed3e91604480820192602092909190829003018186803b158015610b9157600080fd5b505afa158015610ba5573d6000803e3d6000fd5b505050506040513d6020811015610bbb57600080fd5b5051101561085457610854868686868686611017565b7f000000000000000000000000000000000000000000000000000000000000000081565b6000816080013580610c0561128b565b1115610c4e576040805162461bcd60e51b8152602060048201526013602482015272151c985b9cd858dd1a5bdb881d1bdbc81bdb19606a1b604482015290519081900360640190fd5b610cea60a0840135610c66608086016060870161202e565b610c77610100870160e0880161202e565b6040518060400160405280886020016020810190610c95919061202e565b610ca560608b0160408c01612456565b610cb260208c018c61202e565b604051602001610cc493929190612535565b6040516020818303038152906040528152602001336001600160a01b031681525061143f565b91508260c00135821115610d105760405162461bcd60e51b815260040161044a9061264d565b50600019600055919050565b6000836001600160a01b03166370a08231306040518263ffffffff1660e01b815260040180826001600160a01b0316815260200191505060206040518083038186803b158015610d6b57600080fd5b505afa158015610d7f573d6000803e3d6000fd5b505050506040513d6020811015610d9557600080fd5b5051905082811015610de3576040805162461bcd60e51b815260206004820152601260248201527124b739bab33334b1b4b2b73a103a37b5b2b760711b604482015290519081900360640190fd5b8015610df457610df48483836115ba565b50505050565b600082118015610e0b575060648211155b610e1457600080fd5b6000856001600160a01b03166370a08231306040518263ffffffff1660e01b815260040180826001600160a01b0316815260200191505060206040518083038186803b158015610e6357600080fd5b505afa158015610e77573d6000803e3d6000fd5b505050506040513d6020811015610e8d57600080fd5b5051905084811015610edb576040805162461bcd60e51b815260206004820152601260248201527124b739bab33334b1b4b2b73a103a37b5b2b760711b604482015290519081900360640190fd5b8015610854576000612710610ef083866113e3565b81610ef757fe5b0490508015610f0b57610f0b8784836115ba565b610f1887868385036115ba565b50505050505050565b6000816040013580610f3161128b565b1115610f7a576040805162461bcd60e51b8152602060048201526013602482015272151c985b9cd858dd1a5bdb881d1bdbc81bdb19606a1b604482015290519081900360640190fd5b610fed6060840135610f92604086016020870161202e565b6040805180820190915260009080610faa89806126ec565b8080601f0160208091040260200160405190810160405280939291908181526020018383808284376000920191909152505050908252503360209091015261143f565b5060005491508260800135821115610d105760405162461bcd60e51b815260040161044a9061264d565b6040805163d505accf60e01b8152336004820152306024820152604481018790526064810186905260ff8516608482015260a4810184905260c4810183905290516001600160a01b0388169163d505accf9160e480830192600092919082900301818387803b1580156104d357600080fd5b60008413806110985750600083135b6110a157600080fd5b60006110af828401846123c6565b905060008060006110c38460000151611701565b9250925092506110f57f0000000000000000000000000000000000000000000000000000000000000000848484611732565b5060008060008a1361111c57846001600160a01b0316846001600160a01b03161089611133565b836001600160a01b0316856001600160a01b0316108a5b9150915081156111525761114d8587602001513384611751565b6104e7565b855161115d9061140d565b1561118257855161116d90611428565b865261117c813360008961143f565b506104e7565b806000819055508394506104e78587602001513384611751565b604080516000808252602082019092526001600160a01b0384169083906040518082805190602001908083835b602083106111e85780518252601f1990920191602091820191016111c9565b6001836020036101000a03801982511681845116808217855250505050505090500191505060006040518083038185875af1925050503d806000811461124a576040519150601f19603f3d011682016040523d82523d6000602084013e61124f565b606091505b5050905080610668576040805162461bcd60e51b815260206004820152600360248201526253544560e81b604482015290519081900360640190fd5b60015490565b60006001600160a01b0384166112a5573093505b60008060006112b78560000151611701565b919450925090506001600160a01b03808316908416106000806112db8686866118e1565b6001600160a01b031663128acb088b856112f48f61191f565b6001600160a01b038e1615611309578d61132f565b876113285773fffd8963efd1fc6a506488495d951d5263988d2561132f565b6401000276a45b8d60405160200161134091906126a6565b6040516020818303038152906040526040518663ffffffff1660e01b815260040161136f959493929190612594565b6040805180830381600087803b15801561138857600080fd5b505af115801561139c573d6000803e3d6000fd5b505050506040513d601f19601f820116820180604052508101906113c091906121bf565b91509150826113cf57816113d1565b805b6000039b9a5050505050505050505050565b60008215806113fe575050818102818382816113fb57fe5b04145b61140757600080fd5b92915050565b8051604211155b919050565b6060611407826000602b611935565b805160609061140790839060179060161901611935565b60006001600160a01b038416611453573093505b60008060006114658560000151611701565b919450925090506001600160a01b03808416908316106000806114898587866118e1565b6001600160a01b031663128acb088b856114a28f61191f565b6000036001600160a01b038e16156114ba578d6114e0565b876114d95773fffd8963efd1fc6a506488495d951d5263988d256114e0565b6401000276a45b8d6040516020016114f191906126a6565b6040516020818303038152906040526040518663ffffffff1660e01b8152600401611520959493929190612594565b6040805180830381600087803b15801561153957600080fd5b505af115801561154d573d6000803e3d6000fd5b505050506040513d601f19601f8201168201806040525081019061157191906121bf565b9150915060008361158657818360000361158c565b82826000035b90985090506001600160a01b038a166115ab578b81146115ab57600080fd5b50505050505050949350505050565b604080516001600160a01b038481166024830152604480830185905283518084039091018152606490920183526020820180516001600160e01b031663a9059cbb60e01b1781529251825160009485949389169392918291908083835b602083106116365780518252601f199092019160209182019101611617565b6001836020036101000a0380198251168184511680821785525050505050509050019150506000604051808303816000865af19150503d8060008114611698576040519150601f19603f3d011682016040523d82523d6000602084013e61169d565b606091505b50915091508180156116cb5750805115806116cb57508080602001905160208110156116c857600080fd5b50515b610856576040805162461bcd60e51b815260206004820152600260248201526114d560f21b604482015290519081900360640190fd5b6000808061170f8482611a86565b925061171c846014611b36565b9050611729846017611a86565b91509193909250565b600061174885611743868686611bdd565b611c33565b95945050505050565b7f00000000000000000000000000000000000000000000000000000000000000006001600160a01b0316846001600160a01b03161480156117925750804710155b156118b4577f00000000000000000000000000000000000000000000000000000000000000006001600160a01b031663d0e30db0826040518263ffffffff1660e01b81526004016000604051808303818588803b1580156117f257600080fd5b505af1158015611806573d6000803e3d6000fd5b50505050507f00000000000000000000000000000000000000000000000000000000000000006001600160a01b031663a9059cbb83836040518363ffffffff1660e01b815260040180836001600160a01b0316815260200182815260200192505050602060405180830381600087803b15801561188257600080fd5b505af1158015611896573d6000803e3d6000fd5b505050506040513d60208110156118ac57600080fd5b50610df49050565b6001600160a01b0383163014156118d5576118d08483836115ba565b610df4565b610df484848484611c56565b60006119177f0000000000000000000000000000000000000000000000000000000000000000611912868686611bdd565b611da6565b949350505050565b6000600160ff1b821061193157600080fd5b5090565b60608182601f011015611980576040805162461bcd60e51b815260206004820152600e60248201526d736c6963655f6f766572666c6f7760901b604482015290519081900360640190fd5b8282840110156119c8576040805162461bcd60e51b815260206004820152600e60248201526d736c6963655f6f766572666c6f7760901b604482015290519081900360640190fd5b81830184511015611a14576040805162461bcd60e51b8152602060048201526011602482015270736c6963655f6f75744f66426f756e647360781b604482015290519081900360640190fd5b606082158015611a335760405191506000825260208201604052611a7d565b6040519150601f8416801560200281840101858101878315602002848b0101015b81831015611a6c578051835260209283019201611a54565b5050858452601f01601f1916604052505b50949350505050565b600081826014011015611ad5576040805162461bcd60e51b8152602060048201526012602482015271746f416464726573735f6f766572666c6f7760701b604482015290519081900360640190fd5b8160140183511015611b26576040805162461bcd60e51b8152602060048201526015602482015274746f416464726573735f6f75744f66426f756e647360581b604482015290519081900360640190fd5b500160200151600160601b900490565b600081826003011015611b84576040805162461bcd60e51b8152602060048201526011602482015270746f55696e7432345f6f766572666c6f7760781b604482015290519081900360640190fd5b8160030183511015611bd4576040805162461bcd60e51b8152602060048201526014602482015273746f55696e7432345f6f75744f66426f756e647360601b604482015290519081900360640190fd5b50016003015190565b611be5611fa0565b826001600160a01b0316846001600160a01b03161115611c03579192915b50604080516060810182526001600160a01b03948516815292909316602083015262ffffff169181019190915290565b6000611c3f8383611da6565b9050336001600160a01b0382161461140757600080fd5b604080516001600160a01b0385811660248301528481166044830152606480830185905283518084039091018152608490920183526020820180516001600160e01b03166323b872dd60e01b178152925182516000948594938a169392918291908083835b60208310611cda5780518252601f199092019160209182019101611cbb565b6001836020036101000a0380198251168184511680821785525050505050509050019150506000604051808303816000865af19150503d8060008114611d3c576040519150601f19603f3d011682016040523d82523d6000602084013e611d41565b606091505b5091509150818015611d6f575080511580611d6f5750808060200190516020811015611d6c57600080fd5b50515b610854576040805162461bcd60e51b815260206004820152600360248201526229aa2360e91b604482015290519081900360640190fd5b600081602001516001600160a01b031682600001516001600160a01b031610611dce57600080fd5b50805160208083015160408085015181516001600160a01b0395861681860152949092168482015262ffffff9091166060808501919091528151808503820181526080850183528051908401206001600160f81b031960a08601529086901b6bffffffffffffffffffffffff191660a185015260b58401527fd3e7f58b9af034cfa7a0597e539bae7c6b393817a47a6fc1e1503cd6eaffe22a60d5808501919091528151808503909101815260f58401808352815191909301206101558401909152603180835290926114079291906127c090610115013982611f5e82826040516024018080602001836001600160a01b03168152602001828103825284818151815260200191508051906020019080838360005b83811015611efb578181015183820152602001611ee3565b50505050905090810190601f168015611f285780820380516001836020036101000a031916815260200191505b5060408051601f198184030181529190526020810180516001600160e01b031663319af33360e01b1790529350611f6292505050565b5050565b611f7981611f71611f7c611f9d565b63ffffffff16565b50565b60006a636f6e736f6c652e6c6f679050600080835160208501845afa505050565b90565b604080516060810182526000808252602082018190529181019190915290565b8035611414816127aa565b600082601f830112611fdb578081fd5b8135611fee611fe98261275c565b612738565b818152846020838601011115612002578283fd5b816020850160208301379081016020019190915292915050565b60006101008284031215610453578081fd5b60006020828403121561203f578081fd5b813561204a816127aa565b9392505050565b600080600060608486031215612065578182fd5b8335612070816127aa565b9250602084013591506040840135612087816127aa565b809150509250925092565b600080600080600060a086880312156120a9578081fd5b85356120b4816127aa565b94506020860135935060408601356120cb816127aa565b92506060860135915060808601356120e2816127aa565b809150509295509295909350565b60008060008060008060c08789031215612108578081fd5b8635612113816127aa565b95506020870135945060408701359350606087013560ff81168114612136578182fd5b9598949750929560808101359460a0909101359350915050565b60008060208385031215612162578182fd5b823567ffffffffffffffff80821115612179578384fd5b818501915085601f83011261218c578384fd5b81358181111561219a578485fd5b86602080830285010111156121ad578485fd5b60209290920196919550909350505050565b600080604083850312156121d1578182fd5b505080516020909101519092909150565b600080600080606085870312156121f7578182fd5b8435935060208501359250604085013567ffffffffffffffff8082111561221c578384fd5b818701915087601f83011261222f578384fd5b81358181111561223d578485fd5b88602082850101111561224e578485fd5b95989497505060200194505050565b60006020828403121561226e578081fd5b815167ffffffffffffffff811115612284578182fd5b8201601f81018413612294578182fd5b80516122a2611fe98261275c565b8181528560208385010111156122b6578384fd5b61174882602083016020860161277e565b6000602082840312156122d8578081fd5b813567ffffffffffffffff808211156122ef578283fd5b9083019060a08286031215612302578283fd5b60405160a08101818110838211171561231757fe5b604052823582811115612328578485fd5b61233487828601611fcb565b82525061234360208401611fc0565b602082015260408301356040820152606083013560608201526080830135608082015280935050505092915050565b60006101008284031215612384578081fd5b61204a838361201c565b60006020828403121561239f578081fd5b813567ffffffffffffffff8111156123b5578182fd5b820160a0818503121561204a578182fd5b6000602082840312156123d7578081fd5b813567ffffffffffffffff808211156123ee578283fd5b9083019060408286031215612401578283fd5b60405160408101818110838211171561241657fe5b604052823582811115612427578485fd5b61243387828601611fcb565b82525060208301359250612446836127aa565b6020810192909252509392505050565b600060208284031215612467578081fd5b813562ffffff8116811461204a578182fd5b60006020828403121561248a578081fd5b5035919050565b600080604083850312156124a3578182fd5b8235915060208301356124b5816127aa565b809150509250929050565b600080600080608085870312156124d5578182fd5b8435935060208501356124e7816127aa565b92506040850135915060608501356124fe816127aa565b939692955090935050565b6000815180845261252181602086016020860161277e565b601f01601f19169290920160200192915050565b606093841b6bffffffffffffffffffffffff19908116825260e89390931b6001600160e81b0319166014820152921b166017820152602b0190565b6000828483379101908152919050565b6001600160a01b0391909116815260200190565b6001600160a01b0386811682528515156020830152604082018590528316606082015260a0608082018190526000906125cf90830184612509565b979650505050505050565b6000602080830181845280855180835260408601915060408482028701019250838701855b8281101561262d57603f1988860301845261261b858351612509565b945092850192908501906001016125ff565b5092979650505050505050565b60006020825261204a6020830184612509565b602080825260129082015271151bdbc81b5d58da081c995c5d595cdd195960721b604082015260600190565b602080825260139082015272151bdbc81b1a5d1d1b19481c9958d95a5d9959606a1b604082015260600190565b6000602082528251604060208401526126c26060840182612509565b602094909401516001600160a01b0316604093909301929092525090919050565b90815260200190565b6000808335601e19843603018112612702578283fd5b83018035915067ffffffffffffffff82111561271c578283fd5b60200191503681900382131561273157600080fd5b9250929050565b60405181810167ffffffffffffffff8111828210171561275457fe5b604052919050565b600067ffffffffffffffff82111561277057fe5b50601f01601f191660200190565b60005b83811015612799578181015183820152602001612781565b83811115610df45750506000910152565b6001600160a01b0381168114611f7957600080fdfe506f6f6c416464726573732e636f6d707574654164647265737328666163746f72792c206b6579292d706f6f6c3a202573a164736f6c6343000706000a",
  "linkReferences": {},
  "deployedLinkReferences": {}
}