{
  "_format": "hh-sol-artifact-1",
  "contractName": "NoDelegateCallTest",
  "sourceName": "contracts/uniswap/v3-core/test/NoDelegateCallTest.sol",
  "abi": [
    {
      "inputs": [],
      "name": "callsIntoNoDelegateCallFunction",
      "outputs": [],
      "stateMutability": "view",
      "type": "function"
    },
    {
      "inputs": [],
      "name": "canBeDelegateCalled",
      "outputs": [
        {
          "internalType": "uint256",
          "name": "",
          "type": "uint256"
        }
      ],
      "stateMutability": "view",
      "type": "function"
    },
    {
      "inputs": [],
      "name": "cannotBeDelegateCalled",
      "outputs": [
        {
          "internalType": "uint256",
          "name": "",
          "type": "uint256"
        }
      ],
      "stateMutability": "view",
      "type": "function"
    },
    {
      "inputs": [],
      "name": "getGasCostOfCanBeDelegateCalled",
      "outputs": [
        {
          "internalType": "uint256",
          "name": "",
          "type": "uint256"
        }
      ],
      "stateMutability": "view",
      "type": "function"
    },
    {
      "inputs": [],
      "name": "getGasCostOfCannotBeDelegateCalled",
      "outputs": [
        {
          "internalType": "uint256",
          "name": "",
          "type": "uint256"
        }
      ],
      "stateMutability": "view",
      "type": "function"
    }
  ],
  "bytecode": "0x60a060405234801561001057600080fd5b5030606081901b60805261012b6100306000398060ec525061012b6000f3fe608060405234801561001057600080fd5b50600436106100575760003560e01c80633045a6e01461005c5780633c7c8dd014610076578063423ecb051461007e5780636427016414610086578063f45f416e14610090575b600080fd5b610064610098565b60408051918252519081900360200190f35b6100646100af565b6100646100b9565b61008e6100cd565b005b6100646100d7565b6000805a90506100a66100d7565b505a9003905090565b6000805a90506100a65b60006100c36100e1565b6005425b04905090565b6100d5610116565b565b60006005426100c7565b306001600160a01b037f000000000000000000000000000000000000000000000000000000000000000016146100d557600080fd5b6100d56100e156fea164736f6c6343000706000a",
  "linkReferences": {},
  "deployedLinkReferences": {}
}