{
  "_format": "hh-sol-artifact-1",
  "contractName": "SwapRouter",
  "sourceName": "contracts/uniswap/v3-periphery/SwapRouter.sol",
  "abi": [
    {
      "inputs": [
        {
          "internalType": "address",
          "name": "_factory",
          "type": "address"
        },
        {
          "internalType": "address",
          "name": "_WETH9",
          "type": "address"
        }
      ],
      "stateMutability": "nonpayable",
      "type": "constructor"
    },
    {
      "inputs": [],
      "name": "WETH9",
      "outputs": [
        {
          "internalType": "address",
          "name": "",
          "type": "address"
        }
      ],
      "stateMutability": "view",
      "type": "function"
    },
    {
      "inputs": [
        {
          "components": [
            {
              "internalType": "bytes",
              "name": "path",
              "type": "bytes"
            },
            {
              "internalType": "address",
              "name": "recipient",
              "type": "address"
            },
            {
              "internalType": "uint256",
              "name": "deadline",
              "type": "uint256"
            },
            {
              "internalType": "uint256",
              "name": "amountIn",
              "type": "uint256"
            },
            {
              "internalType": "uint256",
              "name": "amountOutMinimum",
              "type": "uint256"
            }
          ],
          "internalType": "struct ISwapRouter.ExactInputParams",
          "name": "params",
          "type": "tuple"
        }
      ],
      "name": "exactInput",
      "outputs": [
        {
          "internalType": "uint256",
          "name": "amountOut",
          "type": "uint256"
        }
      ],
      "stateMutability": "payable",
      "type": "function"
    },
    {
      "inputs": [
        {
          "components": [
            {
              "internalType": "address",
              "name": "tokenIn",
              "type": "address"
            },
            {
              "internalType": "address",
              "name": "tokenOut",
              "type": "address"
            },
            {
              "internalType": "uint24",
              "name": "fee",
              "type": "uint24"
            },
            {
              "internalType": "address",
              "name": "recipient",
              "type": "address"
            },
            {
              "internalType": "uint256",
              "name": "deadline",
              "type": "uint256"
            },
            {
              "internalType": "uint256",
              "name": "amountIn",
              "type": "uint256"
            },
            {
              "internalType": "uint256",
              "name": "amountOutMinimum",
              "type": "uint256"
            },
            {
              "internalType": "uint160",
              "name": "sqrtPriceLimitX96",
              "type": "uint160"
            }
          ],
          "internalType": "struct ISwapRouter.ExactInputSingleParams",
          "name": "params",
          "type": "tuple"
        }
      ],
      "name": "exactInputSingle",
      "outputs": [
        {
          "internalType": "uint256",
          "name": "amountOut",
          "type": "uint256"
        }
      ],
      "stateMutability": "payable",
      "type": "function"
    },
    {
      "inputs": [
        {
          "components": [
            {
              "internalType": "bytes",
              "name": "path",
              "type": "bytes"
            },
            {
              "internalType": "address",
              "name": "recipient",
              "type": "address"
            },
            {
              "internalType": "uint256",
              "name": "deadline",
              "type": "uint256"
            },
            {
              "internalType": "uint256",
              "name": "amountOut",
              "type": "uint256"
            },
            {
              "internalType": "uint256",
              "name": "amountInMaximum",
              "type": "uint256"
            }
          ],
          "internalType": "struct ISwapRouter.ExactOutputParams",
          "name": "params",
          "type": "tuple"
        }
      ],
      "name": "exactOutput",
      "outputs": [
        {
          "internalType": "uint256",
          "name": "amountIn",
          "type": "uint256"
        }
      ],
      "stateMutability": "payable",
      "type": "function"
    },
    {
      "inputs": [
        {
          "components": [
            {
              "internalType": "address",
              "name": "tokenIn",
              "type": "address"
            },
            {
              "internalType": "address",
              "name": "tokenOut",
              "type": "address"
            },
            {
              "internalType": "uint24",
              "name": "fee",
              "type": "uint24"
            },
            {
              "internalType": "address",
              "name": "recipient",
              "type": "address"
            },
            {
              "internalType": "uint256",
              "name": "deadline",
              "type": "uint256"
            },
            {
              "internalType": "uint256",
              "name": "amountOut",
              "type": "uint256"
            },
            {
              "internalType": "uint256",
              "name": "amountInMaximum",
              "type": "uint256"
            },
            {
              "internalType": "uint160",
              "name": "sqrtPriceLimitX96",
              "type": "uint160"
            }
          ],
          "internalType": "struct ISwapRouter.ExactOutputSingleParams",
          "name": "params",
          "type": "tuple"
        }
      ],
      "name": "exactOutputSingle",
      "outputs": [
        {
          "internalType": "uint256",
          "name": "amountIn",
          "type": "uint256"
        }
      ],
      "stateMutability": "payable",
      "type": "function"
    },
    {
      "inputs": [],
      "name": "factory",
      "outputs": [
        {
          "internalType": "address",
          "name": "",
          "type": "address"
        }
      ],
      "stateMutability": "view",
      "type": "function"
    },
    {
      "inputs": [
        {
          "internalType": "bytes[]",
          "name": "data",
          "type": "bytes[]"
        }
      ],
      "name": "multicall",
      "outputs": [
        {
          "internalType": "bytes[]",
          "name": "results",
          "type": "bytes[]"
        }
      ],
      "stateMutability": "payable",
      "type": "function"
    },
    {
      "inputs": [],
      "name": "refundETH",
      "outputs": [],
      "stateMutability": "payable",
      "type": "function"
    },
    {
      "inputs": [
        {
          "internalType": "address",
          "name": "token",
          "type": "address"
        },
        {
          "internalType": "uint256",
          "name": "value",
          "type": "uint256"
        },
        {
          "internalType": "uint256",
          "name": "deadline",
          "type": "uint256"
        },
        {
          "internalType": "uint8",
          "name": "v",
          "type": "uint8"
        },
        {
          "internalType": "bytes32",
          "name": "r",
          "type": "bytes32"
        },
        {
          "internalType": "bytes32",
          "name": "s",
          "type": "bytes32"
        }
      ],
      "name": "selfPermit",
      "outputs": [],
      "stateMutability": "payable",
      "type": "function"
    },
    {
      "inputs": [
        {
          "internalType": "address",
          "name": "token",
          "type": "address"
        },
        {
          "internalType": "uint256",
          "name": "nonce",
          "type": "uint256"
        },
        {
          "internalType": "uint256",
          "name": "expiry",
          "type": "uint256"
        },
        {
          "internalType": "uint8",
          "name": "v",
          "type": "uint8"
        },
        {
          "internalType": "bytes32",
          "name": "r",
          "type": "bytes32"
        },
        {
          "internalType": "bytes32",
          "name": "s",
          "type": "bytes32"
        }
      ],
      "name": "selfPermitAllowed",
      "outputs": [],
      "stateMutability": "payable",
      "type": "function"
    },
    {
      "inputs": [
        {
          "internalType": "address",
          "name": "token",
          "type": "address"
        },
        {
          "internalType": "uint256",
          "name": "nonce",
          "type": "uint256"
        },
        {
          "internalType": "uint256",
          "name": "expiry",
          "type": "uint256"
        },
        {
          "internalType": "uint8",
          "name": "v",
          "type": "uint8"
        },
        {
          "internalType": "bytes32",
          "name": "r",
          "type": "bytes32"
        },
        {
          "internalType": "bytes32",
          "name": "s",
          "type": "bytes32"
        }
      ],
      "name": "selfPermitAllowedIfNecessary",
      "outputs": [],
      "stateMutability": "payable",
      "type": "function"
    },
    {
      "inputs": [
        {
          "internalType": "address",
          "name": "token",
          "type": "address"
        },
        {
          "internalType": "uint256",
          "name": "value",
          "type": "uint256"
        },
        {
          "internalType": "uint256",
          "name": "deadline",
          "type": "uint256"
        },
        {
          "internalType": "uint8",
          "name": "v",
          "type": "uint8"
        },
        {
          "internalType": "bytes32",
          "name": "r",
          "type": "bytes32"
        },
        {
          "internalType": "bytes32",
          "name": "s",
          "type": "bytes32"
        }
      ],
      "name": "selfPermitIfNecessary",
      "outputs": [],
      "stateMutability": "payable",
      "type": "function"
    },
    {
      "inputs": [
        {
          "internalType": "address",
          "name": "token",
          "type": "address"
        },
        {
          "internalType": "uint256",
          "name": "amountMinimum",
          "type": "uint256"
        },
        {
          "internalType": "address",
          "name": "recipient",
          "type": "address"
        }
      ],
      "name": "sweepToken",
      "outputs": [],
      "stateMutability": "payable",
      "type": "function"
    },
    {
      "inputs": [
        {
          "internalType": "address",
          "name": "token",
          "type": "address"
        },
        {
          "internalType": "uint256",
          "name": "amountMinimum",
          "type": "uint256"
        },
        {
          "internalType": "address",
          "name": "recipient",
          "type": "address"
        },
        {
          "internalType": "uint256",
          "name": "feeBips",
          "type": "uint256"
        },
        {
          "internalType": "address",
          "name": "feeRecipient",
          "type": "address"
        }
      ],
      "name": "sweepTokenWithFee",
      "outputs": [],
      "stateMutability": "payable",
      "type": "function"
    },
    {
      "inputs": [
        {
          "internalType": "int256",
          "name": "amount0Delta",
          "type": "int256"
        },
        {
          "internalType": "int256",
          "name": "amount1Delta",
          "type": "int256"
        },
        {
          "internalType": "bytes",
          "name": "_data",
          "type": "bytes"
        }
      ],
      "name": "uniswapV3SwapCallback",
      "outputs": [],
      "stateMutability": "nonpayable",
      "type": "function"
    },
    {
      "inputs": [
        {
          "internalType": "uint256",
          "name": "amountMinimum",
          "type": "uint256"
        },
        {
          "internalType": "address",
          "name": "recipient",
          "type": "address"
        }
      ],
      "name": "unwrapWETH9",
      "outputs": [],
      "stateMutability": "payable",
      "type": "function"
    },
    {
      "inputs": [
        {
          "internalType": "uint256",
          "name": "amountMinimum",
          "type": "uint256"
        },
        {
          "internalType": "address",
          "name": "recipient",
          "type": "address"
        },
        {
          "internalType": "uint256",
          "name": "feeBips",
          "type": "uint256"
        },
        {
          "internalType": "address",
          "name": "feeRecipient",
          "type": "address"
        }
      ],
      "name": "unwrapWETH9WithFee",
      "outputs": [],
      "stateMutability": "payable",
      "type": "function"
    },
    {
      "stateMutability": "payable",
      "type": "receive"
    }
  ],
  "bytecode": "0x60c06040526000196000553480156200001757600080fd5b5060405162002a3638038062002a368339810160408190526200003a9162000076565b6001600160601b0319606092831b8116608052911b1660a052620000ad565b80516001600160a01b03811681146200007157600080fd5b919050565b6000806040838503121562000089578182fd5b620000948362000059565b9150620000a46020840162000059565b90509250929050565b60805160601c60a05160601c61292d620001096000398061011252806104c752806105b2528061063f528061067f528061076a528061187552806118bb528061192f525080610ba352806110e45280611a0a525061292d6000f3fe6080604052600436106101025760003560e01c8063c04b8d5911610095578063df2ab5bb11610064578063df2ab5bb14610284578063e0e189a014610297578063f28c0498146102aa578063f3995c67146102bd578063fa461e33146102d057610172565b8063c04b8d5914610236578063c2e3140a14610249578063c45a01551461025c578063db3e21981461027157610172565b80634aa4a4fc116100d15780634aa4a4fc146101ce5780639b2c0a37146101f0578063a4a78f0c14610203578063ac9650d81461021657610172565b806312210e8a14610177578063414bf3891461017f5780634659a494146101a857806349404b7c146101bb57610172565b3661017257336001600160a01b037f00000000000000000000000000000000000000000000000000000000000000001614610170576040805162461bcd60e51b81526020600482015260096024820152684e6f7420574554483960b81b604482015290519081900360640190fd5b005b600080fd5b6101706102f0565b61019261018d366004612479565b610302565b60405161019f91906127fb565b60405180910390f35b6101706101b63660046121f7565b610429565b6101706101c9366004612580565b6104c3565b3480156101da57600080fd5b506101e361063d565b60405161019f919061266f565b6101706101fe3660046125af565b610661565b6101706102113660046121f7565b61082d565b610229610224366004612257565b6108be565b60405161019f91906126c9565b6101926102443660046123ce565b6109fe565b6101706102573660046121f7565b610b12565b34801561026857600080fd5b506101e3610ba1565b61019261027f366004612479565b610bc5565b610170610292366004612158565b610cec565b6101706102a5366004612199565b610dca565b6101926102b8366004612495565b610ef1565b6101706102cb3660046121f7565b610fe7565b3480156102dc57600080fd5b506101706102eb3660046122e9565b611059565b47156103005761030033476111b2565b565b60008160800135806103126112a1565b111561035b576040805162461bcd60e51b8152602060048201526013602482015272151c985b9cd858dd1a5bdb881d1bdbc81bdb19606a1b604482015290519081900360640190fd5b6103f460a08401356103736080860160608701612135565b610384610100870160e08801612135565b604080518082019091528061039c60208a018a612135565b6103ac60608b0160408c0161255d565b6103bc60408c0160208d01612135565b6040516020016103ce93929190612624565b6040516020818303038152906040528152602001336001600160a01b03168152506112a5565b91508260c001358210156104235760405162461bcd60e51b815260040161041a90612791565b60405180910390fd5b50919050565b604080516323f2ebc360e21b815233600482015230602482015260448101879052606481018690526001608482015260ff851660a482015260c4810184905260e4810183905290516001600160a01b03881691638fcbaf0c9161010480830192600092919082900301818387803b1580156104a357600080fd5b505af11580156104b7573d6000803e3d6000fd5b50505050505050505050565b60007f00000000000000000000000000000000000000000000000000000000000000006001600160a01b03166370a08231306040518263ffffffff1660e01b815260040180826001600160a01b0316815260200191505060206040518083038186803b15801561053257600080fd5b505afa158015610546573d6000803e3d6000fd5b505050506040513d602081101561055c57600080fd5b50519050828110156105aa576040805162461bcd60e51b8152602060048201526012602482015271496e73756666696369656e7420574554483960701b604482015290519081900360640190fd5b8015610638577f00000000000000000000000000000000000000000000000000000000000000006001600160a01b0316632e1a7d4d826040518263ffffffff1660e01b815260040180828152602001915050600060405180830381600087803b15801561061657600080fd5b505af115801561062a573d6000803e3d6000fd5b5050505061063882826111b2565b505050565b7f000000000000000000000000000000000000000000000000000000000000000081565b600082118015610672575060648211155b61067b57600080fd5b60007f00000000000000000000000000000000000000000000000000000000000000006001600160a01b03166370a08231306040518263ffffffff1660e01b815260040180826001600160a01b0316815260200191505060206040518083038186803b1580156106ea57600080fd5b505afa1580156106fe573d6000803e3d6000fd5b505050506040513d602081101561071457600080fd5b5051905084811015610762576040805162461bcd60e51b8152602060048201526012602482015271496e73756666696369656e7420574554483960701b604482015290519081900360640190fd5b8015610826577f00000000000000000000000000000000000000000000000000000000000000006001600160a01b0316632e1a7d4d826040518263ffffffff1660e01b815260040180828152602001915050600060405180830381600087803b1580156107ce57600080fd5b505af11580156107e2573d6000803e3d6000fd5b5050505060006127106107fe858461141b90919063ffffffff16565b8161080557fe5b04905080156108185761081883826111b2565b610824858284036111b2565b505b5050505050565b60408051636eb1769f60e11b81523360048201523060248201529051600019916001600160a01b0389169163dd62ed3e91604480820192602092909190829003018186803b15801561087e57600080fd5b505afa158015610892573d6000803e3d6000fd5b505050506040513d60208110156108a857600080fd5b5051101561082457610824868686868686610429565b60608167ffffffffffffffff811180156108d757600080fd5b5060405190808252806020026020018201604052801561090b57816020015b60608152602001906001900390816108f65790505b50905060005b828110156109f7576000803086868581811061092957fe5b905060200281019061093b9190612804565b60405161094992919061265f565b600060405180830381855af49150503d8060008114610984576040519150601f19603f3d011682016040523d82523d6000602084013e610989565b606091505b5091509150816109d5576044815110156109a257600080fd5b600481019050808060200190518101906109bc9190612364565b60405162461bcd60e51b815260040161041a9190612729565b808484815181106109e257fe5b60209081029190910101525050600101610911565b5092915050565b6000816040015180610a0e6112a1565b1115610a57576040805162461bcd60e51b8152602060048201526013602482015272151c985b9cd858dd1a5bdb881d1bdbc81bdb19606a1b604482015290519081900360640190fd5b335b6000610a688560000151611445565b9050610ab4856060015182610a81578660200151610a83565b305b60006040518060400160405280610a9d8b60000151611451565b8152602001876001600160a01b03168152506112a5565b60608601528015610ad4578451309250610acd90611460565b8552610ae1565b8460600151935050610ae7565b50610a59565b8360800151831015610b0b5760405162461bcd60e51b815260040161041a90612791565b5050919050565b60408051636eb1769f60e11b8152336004820152306024820152905186916001600160a01b0389169163dd62ed3e91604480820192602092909190829003018186803b158015610b6157600080fd5b505afa158015610b75573d6000803e3d6000fd5b505050506040513d6020811015610b8b57600080fd5b5051101561082457610824868686868686610fe7565b7f000000000000000000000000000000000000000000000000000000000000000081565b6000816080013580610bd56112a1565b1115610c1e576040805162461bcd60e51b8152602060048201526013602482015272151c985b9cd858dd1a5bdb881d1bdbc81bdb19606a1b604482015290519081900360640190fd5b610cba60a0840135610c366080860160608701612135565b610c47610100870160e08801612135565b6040518060400160405280886020016020810190610c659190612135565b610c7560608b0160408c0161255d565b610c8260208c018c612135565b604051602001610c9493929190612624565b6040516020818303038152906040528152602001336001600160a01b0316815250611477565b91508260c00135821115610ce05760405162461bcd60e51b815260040161041a90612765565b50600019600055919050565b6000836001600160a01b03166370a08231306040518263ffffffff1660e01b815260040180826001600160a01b0316815260200191505060206040518083038186803b158015610d3b57600080fd5b505afa158015610d4f573d6000803e3d6000fd5b505050506040513d6020811015610d6557600080fd5b5051905082811015610db3576040805162461bcd60e51b815260206004820152601260248201527124b739bab33334b1b4b2b73a103a37b5b2b760711b604482015290519081900360640190fd5b8015610dc457610dc48483836115f2565b50505050565b600082118015610ddb575060648211155b610de457600080fd5b6000856001600160a01b03166370a08231306040518263ffffffff1660e01b815260040180826001600160a01b0316815260200191505060206040518083038186803b158015610e3357600080fd5b505afa158015610e47573d6000803e3d6000fd5b505050506040513d6020811015610e5d57600080fd5b5051905084811015610eab576040805162461bcd60e51b815260206004820152601260248201527124b739bab33334b1b4b2b73a103a37b5b2b760711b604482015290519081900360640190fd5b8015610824576000612710610ec0838661141b565b81610ec757fe5b0490508015610edb57610edb8784836115f2565b610ee887868385036115f2565b50505050505050565b6000816040013580610f016112a1565b1115610f4a576040805162461bcd60e51b8152602060048201526013602482015272151c985b9cd858dd1a5bdb881d1bdbc81bdb19606a1b604482015290519081900360640190fd5b610fbd6060840135610f626040860160208701612135565b6040805180820190915260009080610f7a8980612804565b8080601f01602080910402602001604051908101604052809392919081815260200183838082843760009201919091525050509082525033602090910152611477565b5060005491508260800135821115610ce05760405162461bcd60e51b815260040161041a90612765565b6040805163d505accf60e01b8152336004820152306024820152604481018790526064810186905260ff8516608482015260a4810184905260c4810183905290516001600160a01b0388169163d505accf9160e480830192600092919082900301818387803b1580156104a357600080fd5b61107a6040518060600160405280602281526020016128ff60229139611739565b611083846117e2565b61108c836117e2565b600084138061109b5750600083135b6110b75760405162461bcd60e51b815260040161041a9061273c565b60006110c5828401846124cd565b905060008060006110d98460000151611823565b92509250925061110b7f0000000000000000000000000000000000000000000000000000000000000000848484611854565b5060008060008a1361113257846001600160a01b0316846001600160a01b03161089611149565b836001600160a01b0316856001600160a01b0316108a5b915091508115611168576111638587602001513384611873565b6104b7565b855161117390611445565b1561119857855161118390611460565b86526111928133600089611477565b506104b7565b806000819055508394506104b78587602001513384611873565b604080516000808252602082019092526001600160a01b0384169083906040518082805190602001908083835b602083106111fe5780518252601f1990920191602091820191016111df565b6001836020036101000a03801982511681845116808217855250505050505090500191505060006040518083038185875af1925050503d8060008114611260576040519150601f19603f3d011682016040523d82523d6000602084013e611265565b606091505b5050905080610638576040805162461bcd60e51b815260206004820152600360248201526253544560e81b604482015290519081900360640190fd5b4290565b60006001600160a01b0384166112b9573093505b60008060006112cb8560000151611823565b919450925090506001600160a01b03808316908416106000806112ef868686611a03565b6001600160a01b031663128acb088b856113088f611a41565b6001600160a01b038e161561131d578d611343565b8761133c5773fffd8963efd1fc6a506488495d951d5263988d25611343565b6401000276a45b8d60405160200161135491906127be565b6040516020818303038152906040526040518663ffffffff1660e01b8152600401611383959493929190612683565b6040805180830381600087803b15801561139c57600080fd5b505af11580156113b0573d6000803e3d6000fd5b505050506040513d601f19601f820116820180604052508101906113d491906122c6565b915091506113fc6040518060600160405280602781526020016128d860279139838386611a57565b826114075781611409565b805b6000039b9a5050505050505050505050565b60008215806114365750508181028183828161143357fe5b04145b61143f57600080fd5b92915050565b8051604211155b919050565b606061143f826000602b611b17565b805160609061143f90839060179060161901611b17565b60006001600160a01b03841661148b573093505b600080600061149d8560000151611823565b919450925090506001600160a01b03808416908316106000806114c1858786611a03565b6001600160a01b031663128acb088b856114da8f611a41565b6000036001600160a01b038e16156114f2578d611518565b876115115773fffd8963efd1fc6a506488495d951d5263988d25611518565b6401000276a45b8d60405160200161152991906127be565b6040516020818303038152906040526040518663ffffffff1660e01b8152600401611558959493929190612683565b6040805180830381600087803b15801561157157600080fd5b505af1158015611585573d6000803e3d6000fd5b505050506040513d601f19601f820116820180604052508101906115a991906122c6565b915091506000836115be5781836000036115c4565b82826000035b90985090506001600160a01b038a166115e3578b81146115e357600080fd5b50505050505050949350505050565b604080516001600160a01b038481166024830152604480830185905283518084039091018152606490920183526020820180516001600160e01b031663a9059cbb60e01b1781529251825160009485949389169392918291908083835b6020831061166e5780518252601f19909201916020918201910161164f565b6001836020036101000a0380198251168184511680821785525050505050509050019150506000604051808303816000865af19150503d80600081146116d0576040519150601f19603f3d011682016040523d82523d6000602084013e6116d5565b606091505b5091509150818015611703575080511580611703575080806020019051602081101561170057600080fd5b50515b610826576040805162461bcd60e51b815260206004820152600260248201526114d560f21b604482015290519081900360640190fd5b6117df816040516024018080602001828103825283818151815260200191508051906020019080838360005b8381101561177d578181015183820152602001611765565b50505050905090810190601f1680156117aa5780820380516001836020036101000a031916815260200191505b5060408051601f198184030181529190526020810180516001600160e01b031663104c13eb60e21b1790529250611c68915050565b50565b6040805160248082018490528251808303909101815260449091019091526020810180516001600160e01b0316632d5b6cb960e01b1790526117df90611c68565b600080806118318482611c7f565b925061183e846014611d2f565b905061184b846017611c7f565b91509193909250565b600061186a85611865868686611dd6565b611e2c565b95945050505050565b7f00000000000000000000000000000000000000000000000000000000000000006001600160a01b0316846001600160a01b03161480156118b45750804710155b156119d6577f00000000000000000000000000000000000000000000000000000000000000006001600160a01b031663d0e30db0826040518263ffffffff1660e01b81526004016000604051808303818588803b15801561191457600080fd5b505af1158015611928573d6000803e3d6000fd5b50505050507f00000000000000000000000000000000000000000000000000000000000000006001600160a01b031663a9059cbb83836040518363ffffffff1660e01b815260040180836001600160a01b0316815260200182815260200192505050602060405180830381600087803b1580156119a457600080fd5b505af11580156119b8573d6000803e3d6000fd5b505050506040513d60208110156119ce57600080fd5b50610dc49050565b6001600160a01b0383163014156119f7576119f28483836115f2565b610dc4565b610dc484848484611e4f565b6000611a397f0000000000000000000000000000000000000000000000000000000000000000611a34868686611dd6565b611f9f565b949350505050565b6000600160ff1b8210611a5357600080fd5b5090565b610dc48484848460405160240180806020018581526020018481526020018315158152602001828103825286818151815260200191508051906020019080838360005b83811015611ab2578181015183820152602001611a9a565b50505050905090810190601f168015611adf5780820380516001836020036101000a031916815260200191505b5060408051601f198184030181529190526020810180516001600160e01b0316633b136dc960e11b1790529550611c68945050505050565b60608182601f011015611b62576040805162461bcd60e51b815260206004820152600e60248201526d736c6963655f6f766572666c6f7760901b604482015290519081900360640190fd5b828284011015611baa576040805162461bcd60e51b815260206004820152600e60248201526d736c6963655f6f766572666c6f7760901b604482015290519081900360640190fd5b81830184511015611bf6576040805162461bcd60e51b8152602060048201526011602482015270736c6963655f6f75744f66426f756e647360781b604482015290519081900360640190fd5b606082158015611c155760405191506000825260208201604052611c5f565b6040519150601f8416801560200281840101858101878315602002848b0101015b81831015611c4e578051835260209283019201611c36565b5050858452601f01601f1916604052505b50949350505050565b6117df81611c776120836120a4565b63ffffffff16565b600081826014011015611cce576040805162461bcd60e51b8152602060048201526012602482015271746f416464726573735f6f766572666c6f7760701b604482015290519081900360640190fd5b8160140183511015611d1f576040805162461bcd60e51b8152602060048201526015602482015274746f416464726573735f6f75744f66426f756e647360581b604482015290519081900360640190fd5b500160200151600160601b900490565b600081826003011015611d7d576040805162461bcd60e51b8152602060048201526011602482015270746f55696e7432345f6f766572666c6f7760781b604482015290519081900360640190fd5b8160030183511015611dcd576040805162461bcd60e51b8152602060048201526014602482015273746f55696e7432345f6f75744f66426f756e647360601b604482015290519081900360640190fd5b50016003015190565b611dde6120a7565b826001600160a01b0316846001600160a01b03161115611dfc579192915b50604080516060810182526001600160a01b03948516815292909316602083015262ffffff169181019190915290565b6000611e388383611f9f565b9050336001600160a01b0382161461143f57600080fd5b604080516001600160a01b0385811660248301528481166044830152606480830185905283518084039091018152608490920183526020820180516001600160e01b03166323b872dd60e01b178152925182516000948594938a169392918291908083835b60208310611ed35780518252601f199092019160209182019101611eb4565b6001836020036101000a0380198251168184511680821785525050505050509050019150506000604051808303816000865af19150503d8060008114611f35576040519150601f19603f3d011682016040523d82523d6000602084013e611f3a565b606091505b5091509150818015611f68575080511580611f685750808060200190516020811015611f6557600080fd5b50515b610824576040805162461bcd60e51b815260206004820152600360248201526229aa2360e91b604482015290519081900360640190fd5b600081602001516001600160a01b031682600001516001600160a01b031610611fc757600080fd5b50805160208083015160409384015184516001600160a01b0394851681850152939091168385015262ffffff166060808401919091528351808403820181526080840185528051908301206001600160f81b031960a085015294901b6bffffffffffffffffffffffff191660a183015260b58201939093527fd3e7f58b9af034cfa7a0597e539bae7c6b393817a47a6fc1e1503cd6eaffe22a60d5808301919091528251808303909101815260f5909101909152805191012090565b60006a636f6e736f6c652e6c6f679050600080835160208501845afa505050565b90565b604080516060810182526000808252602082018190529181019190915290565b803561144c816128c2565b600082601f8301126120e2578081fd5b81356120f56120f082612874565b612850565b818152846020838601011115612109578283fd5b816020850160208301379081016020019190915292915050565b60006101008284031215610423578081fd5b600060208284031215612146578081fd5b8135612151816128c2565b9392505050565b60008060006060848603121561216c578182fd5b8335612177816128c2565b925060208401359150604084013561218e816128c2565b809150509250925092565b600080600080600060a086880312156121b0578081fd5b85356121bb816128c2565b94506020860135935060408601356121d2816128c2565b92506060860135915060808601356121e9816128c2565b809150509295509295909350565b60008060008060008060c0878903121561220f578081fd5b863561221a816128c2565b95506020870135945060408701359350606087013560ff8116811461223d578182fd5b9598949750929560808101359460a0909101359350915050565b60008060208385031215612269578182fd5b823567ffffffffffffffff80821115612280578384fd5b818501915085601f830112612293578384fd5b8135818111156122a1578485fd5b86602080830285010111156122b4578485fd5b60209290920196919550909350505050565b600080604083850312156122d8578182fd5b505080516020909101519092909150565b600080600080606085870312156122fe578182fd5b8435935060208501359250604085013567ffffffffffffffff80821115612323578384fd5b818701915087601f830112612336578384fd5b813581811115612344578485fd5b886020828501011115612355578485fd5b95989497505060200194505050565b600060208284031215612375578081fd5b815167ffffffffffffffff81111561238b578182fd5b8201601f8101841361239b578182fd5b80516123a96120f082612874565b8181528560208385010111156123bd578384fd5b61186a826020830160208601612896565b6000602082840312156123df578081fd5b813567ffffffffffffffff808211156123f6578283fd5b9083019060a08286031215612409578283fd5b60405160a08101818110838211171561241e57fe5b60405282358281111561242f578485fd5b61243b878286016120d2565b82525061244a602084016120c7565b602082015260408301356040820152606083013560608201526080830135608082015280935050505092915050565b6000610100828403121561248b578081fd5b6121518383612123565b6000602082840312156124a6578081fd5b813567ffffffffffffffff8111156124bc578182fd5b820160a08185031215612151578182fd5b6000602082840312156124de578081fd5b813567ffffffffffffffff808211156124f5578283fd5b9083019060408286031215612508578283fd5b60405160408101818110838211171561251d57fe5b60405282358281111561252e578485fd5b61253a878286016120d2565b8252506020830135925061254d836128c2565b6020810192909252509392505050565b60006020828403121561256e578081fd5b813562ffffff81168114612151578182fd5b60008060408385031215612592578182fd5b8235915060208301356125a4816128c2565b809150509250929050565b600080600080608085870312156125c4578182fd5b8435935060208501356125d6816128c2565b92506040850135915060608501356125ed816128c2565b939692955090935050565b60008151808452612610816020860160208601612896565b601f01601f19169290920160200192915050565b606093841b6bffffffffffffffffffffffff19908116825260e89390931b6001600160e81b0319166014820152921b166017820152602b0190565b6000828483379101908152919050565b6001600160a01b0391909116815260200190565b6001600160a01b0386811682528515156020830152604082018590528316606082015260a0608082018190526000906126be908301846125f8565b979650505050505050565b6000602080830181845280855180835260408601915060408482028701019250838701855b8281101561271c57603f1988860301845261270a8583516125f8565b945092850192908501906001016126ee565b5092979650505050505050565b60006020825261215160208301846125f8565b6020808252600f908201526e5a65726f20737761702064656c746160881b604082015260600190565b602080825260129082015271151bdbc81b5d58da081c995c5d595cdd195960721b604082015260600190565b602080825260139082015272151bdbc81b1a5d1d1b19481c9958d95a5d9959606a1b604082015260600190565b6000602082528251604060208401526127da60608401826125f8565b602094909401516001600160a01b0316604093909301929092525090919050565b90815260200190565b6000808335601e1984360301811261281a578283fd5b83018035915067ffffffffffffffff821115612834578283fd5b60200191503681900382131561284957600080fd5b9250929050565b60405181810167ffffffffffffffff8111828210171561286c57fe5b604052919050565b600067ffffffffffffffff82111561288857fe5b50601f01601f191660200190565b60005b838110156128b1578181015183820152602001612899565b83811115610dc45750506000910152565b6001600160a01b03811681146117df57600080fdfe53776170526f757465722d6578616374496e707574496e7465726e616c28292d746f6b656e496e53776170526f757465722d756e697377617056335377617043616c6c6261636b2829a164736f6c6343000706000a",
  "linkReferences": {},
  "deployedLinkReferences": {}
}