{
  "_format": "hh-sol-artifact-1",
  "contractName": "SwapRouter",
  "sourceName": "contracts/uniswap/v3-periphery/SwapRouter.sol",
  "abi": [
    {
      "inputs": [
        {
          "internalType": "address",
          "name": "_factory",
          "type": "address"
        },
        {
          "internalType": "address",
          "name": "_WETH9",
          "type": "address"
        }
      ],
      "stateMutability": "nonpayable",
      "type": "constructor"
    },
    {
      "inputs": [],
      "name": "WETH9",
      "outputs": [
        {
          "internalType": "address",
          "name": "",
          "type": "address"
        }
      ],
      "stateMutability": "view",
      "type": "function"
    },
    {
      "inputs": [
        {
          "components": [
            {
              "internalType": "bytes",
              "name": "path",
              "type": "bytes"
            },
            {
              "internalType": "address",
              "name": "recipient",
              "type": "address"
            },
            {
              "internalType": "uint256",
              "name": "deadline",
              "type": "uint256"
            },
            {
              "internalType": "uint256",
              "name": "amountIn",
              "type": "uint256"
            },
            {
              "internalType": "uint256",
              "name": "amountOutMinimum",
              "type": "uint256"
            }
          ],
          "internalType": "struct ISwapRouter.ExactInputParams",
          "name": "params",
          "type": "tuple"
        }
      ],
      "name": "exactInput",
      "outputs": [
        {
          "internalType": "uint256",
          "name": "amountOut",
          "type": "uint256"
        }
      ],
      "stateMutability": "payable",
      "type": "function"
    },
    {
      "inputs": [
        {
          "components": [
            {
              "internalType": "address",
              "name": "tokenIn",
              "type": "address"
            },
            {
              "internalType": "address",
              "name": "tokenOut",
              "type": "address"
            },
            {
              "internalType": "uint24",
              "name": "fee",
              "type": "uint24"
            },
            {
              "internalType": "address",
              "name": "recipient",
              "type": "address"
            },
            {
              "internalType": "uint256",
              "name": "deadline",
              "type": "uint256"
            },
            {
              "internalType": "uint256",
              "name": "amountIn",
              "type": "uint256"
            },
            {
              "internalType": "uint256",
              "name": "amountOutMinimum",
              "type": "uint256"
            },
            {
              "internalType": "uint160",
              "name": "sqrtPriceLimitX96",
              "type": "uint160"
            }
          ],
          "internalType": "struct ISwapRouter.ExactInputSingleParams",
          "name": "params",
          "type": "tuple"
        }
      ],
      "name": "exactInputSingle",
      "outputs": [
        {
          "internalType": "uint256",
          "name": "amountOut",
          "type": "uint256"
        }
      ],
      "stateMutability": "payable",
      "type": "function"
    },
    {
      "inputs": [
        {
          "components": [
            {
              "internalType": "bytes",
              "name": "path",
              "type": "bytes"
            },
            {
              "internalType": "address",
              "name": "recipient",
              "type": "address"
            },
            {
              "internalType": "uint256",
              "name": "deadline",
              "type": "uint256"
            },
            {
              "internalType": "uint256",
              "name": "amountOut",
              "type": "uint256"
            },
            {
              "internalType": "uint256",
              "name": "amountInMaximum",
              "type": "uint256"
            }
          ],
          "internalType": "struct ISwapRouter.ExactOutputParams",
          "name": "params",
          "type": "tuple"
        }
      ],
      "name": "exactOutput",
      "outputs": [
        {
          "internalType": "uint256",
          "name": "amountIn",
          "type": "uint256"
        }
      ],
      "stateMutability": "payable",
      "type": "function"
    },
    {
      "inputs": [
        {
          "components": [
            {
              "internalType": "address",
              "name": "tokenIn",
              "type": "address"
            },
            {
              "internalType": "address",
              "name": "tokenOut",
              "type": "address"
            },
            {
              "internalType": "uint24",
              "name": "fee",
              "type": "uint24"
            },
            {
              "internalType": "address",
              "name": "recipient",
              "type": "address"
            },
            {
              "internalType": "uint256",
              "name": "deadline",
              "type": "uint256"
            },
            {
              "internalType": "uint256",
              "name": "amountOut",
              "type": "uint256"
            },
            {
              "internalType": "uint256",
              "name": "amountInMaximum",
              "type": "uint256"
            },
            {
              "internalType": "uint160",
              "name": "sqrtPriceLimitX96",
              "type": "uint160"
            }
          ],
          "internalType": "struct ISwapRouter.ExactOutputSingleParams",
          "name": "params",
          "type": "tuple"
        }
      ],
      "name": "exactOutputSingle",
      "outputs": [
        {
          "internalType": "uint256",
          "name": "amountIn",
          "type": "uint256"
        }
      ],
      "stateMutability": "payable",
      "type": "function"
    },
    {
      "inputs": [],
      "name": "factory",
      "outputs": [
        {
          "internalType": "address",
          "name": "",
          "type": "address"
        }
      ],
      "stateMutability": "view",
      "type": "function"
    },
    {
      "inputs": [
        {
          "internalType": "bytes[]",
          "name": "data",
          "type": "bytes[]"
        }
      ],
      "name": "multicall",
      "outputs": [
        {
          "internalType": "bytes[]",
          "name": "results",
          "type": "bytes[]"
        }
      ],
      "stateMutability": "payable",
      "type": "function"
    },
    {
      "inputs": [],
      "name": "refundETH",
      "outputs": [],
      "stateMutability": "payable",
      "type": "function"
    },
    {
      "inputs": [
        {
          "internalType": "address",
          "name": "token",
          "type": "address"
        },
        {
          "internalType": "uint256",
          "name": "value",
          "type": "uint256"
        },
        {
          "internalType": "uint256",
          "name": "deadline",
          "type": "uint256"
        },
        {
          "internalType": "uint8",
          "name": "v",
          "type": "uint8"
        },
        {
          "internalType": "bytes32",
          "name": "r",
          "type": "bytes32"
        },
        {
          "internalType": "bytes32",
          "name": "s",
          "type": "bytes32"
        }
      ],
      "name": "selfPermit",
      "outputs": [],
      "stateMutability": "payable",
      "type": "function"
    },
    {
      "inputs": [
        {
          "internalType": "address",
          "name": "token",
          "type": "address"
        },
        {
          "internalType": "uint256",
          "name": "nonce",
          "type": "uint256"
        },
        {
          "internalType": "uint256",
          "name": "expiry",
          "type": "uint256"
        },
        {
          "internalType": "uint8",
          "name": "v",
          "type": "uint8"
        },
        {
          "internalType": "bytes32",
          "name": "r",
          "type": "bytes32"
        },
        {
          "internalType": "bytes32",
          "name": "s",
          "type": "bytes32"
        }
      ],
      "name": "selfPermitAllowed",
      "outputs": [],
      "stateMutability": "payable",
      "type": "function"
    },
    {
      "inputs": [
        {
          "internalType": "address",
          "name": "token",
          "type": "address"
        },
        {
          "internalType": "uint256",
          "name": "nonce",
          "type": "uint256"
        },
        {
          "internalType": "uint256",
          "name": "expiry",
          "type": "uint256"
        },
        {
          "internalType": "uint8",
          "name": "v",
          "type": "uint8"
        },
        {
          "internalType": "bytes32",
          "name": "r",
          "type": "bytes32"
        },
        {
          "internalType": "bytes32",
          "name": "s",
          "type": "bytes32"
        }
      ],
      "name": "selfPermitAllowedIfNecessary",
      "outputs": [],
      "stateMutability": "payable",
      "type": "function"
    },
    {
      "inputs": [
        {
          "internalType": "address",
          "name": "token",
          "type": "address"
        },
        {
          "internalType": "uint256",
          "name": "value",
          "type": "uint256"
        },
        {
          "internalType": "uint256",
          "name": "deadline",
          "type": "uint256"
        },
        {
          "internalType": "uint8",
          "name": "v",
          "type": "uint8"
        },
        {
          "internalType": "bytes32",
          "name": "r",
          "type": "bytes32"
        },
        {
          "internalType": "bytes32",
          "name": "s",
          "type": "bytes32"
        }
      ],
      "name": "selfPermitIfNecessary",
      "outputs": [],
      "stateMutability": "payable",
      "type": "function"
    },
    {
      "inputs": [
        {
          "internalType": "address",
          "name": "token",
          "type": "address"
        },
        {
          "internalType": "uint256",
          "name": "amountMinimum",
          "type": "uint256"
        },
        {
          "internalType": "address",
          "name": "recipient",
          "type": "address"
        }
      ],
      "name": "sweepToken",
      "outputs": [],
      "stateMutability": "payable",
      "type": "function"
    },
    {
      "inputs": [
        {
          "internalType": "address",
          "name": "token",
          "type": "address"
        },
        {
          "internalType": "uint256",
          "name": "amountMinimum",
          "type": "uint256"
        },
        {
          "internalType": "address",
          "name": "recipient",
          "type": "address"
        },
        {
          "internalType": "uint256",
          "name": "feeBips",
          "type": "uint256"
        },
        {
          "internalType": "address",
          "name": "feeRecipient",
          "type": "address"
        }
      ],
      "name": "sweepTokenWithFee",
      "outputs": [],
      "stateMutability": "payable",
      "type": "function"
    },
    {
      "inputs": [
        {
          "internalType": "int256",
          "name": "amount0Delta",
          "type": "int256"
        },
        {
          "internalType": "int256",
          "name": "amount1Delta",
          "type": "int256"
        },
        {
          "internalType": "bytes",
          "name": "_data",
          "type": "bytes"
        }
      ],
      "name": "uniswapV3SwapCallback",
      "outputs": [],
      "stateMutability": "nonpayable",
      "type": "function"
    },
    {
      "inputs": [
        {
          "internalType": "uint256",
          "name": "amountMinimum",
          "type": "uint256"
        },
        {
          "internalType": "address",
          "name": "recipient",
          "type": "address"
        }
      ],
      "name": "unwrapWETH9",
      "outputs": [],
      "stateMutability": "payable",
      "type": "function"
    },
    {
      "inputs": [
        {
          "internalType": "uint256",
          "name": "amountMinimum",
          "type": "uint256"
        },
        {
          "internalType": "address",
          "name": "recipient",
          "type": "address"
        },
        {
          "internalType": "uint256",
          "name": "feeBips",
          "type": "uint256"
        },
        {
          "internalType": "address",
          "name": "feeRecipient",
          "type": "address"
        }
      ],
      "name": "unwrapWETH9WithFee",
      "outputs": [],
      "stateMutability": "payable",
      "type": "function"
    },
    {
      "stateMutability": "payable",
      "type": "receive"
    }
  ],
  "bytecode": "0x60c06040526000196000553480156200001757600080fd5b50604051620028fa380380620028fa8339810160408190526200003a9162000076565b6001600160601b0319606092831b8116608052911b1660a052620000ad565b80516001600160a01b03811681146200007157600080fd5b919050565b6000806040838503121562000089578182fd5b620000948362000059565b9150620000a46020840162000059565b90509250929050565b60805160601c60a05160601c6127f1620001096000398061011252806104c752806105b2528061063f528061067f528061076a5280611758528061179e5280611812525080610ba352806110b152806118ed52506127f16000f3fe6080604052600436106101025760003560e01c8063c04b8d5911610095578063df2ab5bb11610064578063df2ab5bb14610284578063e0e189a014610297578063f28c0498146102aa578063f3995c67146102bd578063fa461e33146102d057610172565b8063c04b8d5914610236578063c2e3140a14610249578063c45a01551461025c578063db3e21981461027157610172565b80634aa4a4fc116100d15780634aa4a4fc146101ce5780639b2c0a37146101f0578063a4a78f0c14610203578063ac9650d81461021657610172565b806312210e8a14610177578063414bf3891461017f5780634659a494146101a857806349404b7c146101bb57610172565b3661017257336001600160a01b037f00000000000000000000000000000000000000000000000000000000000000001614610170576040805162461bcd60e51b81526020600482015260096024820152684e6f7420574554483960b81b604482015290519081900360640190fd5b005b600080fd5b6101706102f0565b61019261018d36600461235f565b610302565b60405161019f91906126e1565b60405180910390f35b6101706101b63660046120dd565b610429565b6101706101c9366004612466565b6104c3565b3480156101da57600080fd5b506101e361063d565b60405161019f9190612555565b6101706101fe366004612495565b610661565b6101706102113660046120dd565b61082d565b61022961022436600461213d565b6108be565b60405161019f91906125af565b6101926102443660046122b4565b6109fe565b6101706102573660046120dd565b610b12565b34801561026857600080fd5b506101e3610ba1565b61019261027f36600461235f565b610bc5565b61017061029236600461203e565b610cec565b6101706102a536600461207f565b610dca565b6101926102b836600461237b565b610ef1565b6101706102cb3660046120dd565b610fe7565b3480156102dc57600080fd5b506101706102eb3660046121cf565b611059565b471561030057610300334761117f565b565b600081608001358061031261126e565b111561035b576040805162461bcd60e51b8152602060048201526013602482015272151c985b9cd858dd1a5bdb881d1bdbc81bdb19606a1b604482015290519081900360640190fd5b6103f460a0840135610373608086016060870161201b565b610384610100870160e0880161201b565b604080518082019091528061039c60208a018a61201b565b6103ac60608b0160408c01612443565b6103bc60408c0160208d0161201b565b6040516020016103ce9392919061250a565b6040516020818303038152906040528152602001336001600160a01b0316815250611272565b91508260c001358210156104235760405162461bcd60e51b815260040161041a90612677565b60405180910390fd5b50919050565b604080516323f2ebc360e21b815233600482015230602482015260448101879052606481018690526001608482015260ff851660a482015260c4810184905260e4810183905290516001600160a01b03881691638fcbaf0c9161010480830192600092919082900301818387803b1580156104a357600080fd5b505af11580156104b7573d6000803e3d6000fd5b50505050505050505050565b60007f00000000000000000000000000000000000000000000000000000000000000006001600160a01b03166370a08231306040518263ffffffff1660e01b815260040180826001600160a01b0316815260200191505060206040518083038186803b15801561053257600080fd5b505afa158015610546573d6000803e3d6000fd5b505050506040513d602081101561055c57600080fd5b50519050828110156105aa576040805162461bcd60e51b8152602060048201526012602482015271496e73756666696369656e7420574554483960701b604482015290519081900360640190fd5b8015610638577f00000000000000000000000000000000000000000000000000000000000000006001600160a01b0316632e1a7d4d826040518263ffffffff1660e01b815260040180828152602001915050600060405180830381600087803b15801561061657600080fd5b505af115801561062a573d6000803e3d6000fd5b50505050610638828261117f565b505050565b7f000000000000000000000000000000000000000000000000000000000000000081565b600082118015610672575060648211155b61067b57600080fd5b60007f00000000000000000000000000000000000000000000000000000000000000006001600160a01b03166370a08231306040518263ffffffff1660e01b815260040180826001600160a01b0316815260200191505060206040518083038186803b1580156106ea57600080fd5b505afa1580156106fe573d6000803e3d6000fd5b505050506040513d602081101561071457600080fd5b5051905084811015610762576040805162461bcd60e51b8152602060048201526012602482015271496e73756666696369656e7420574554483960701b604482015290519081900360640190fd5b8015610826577f00000000000000000000000000000000000000000000000000000000000000006001600160a01b0316632e1a7d4d826040518263ffffffff1660e01b815260040180828152602001915050600060405180830381600087803b1580156107ce57600080fd5b505af11580156107e2573d6000803e3d6000fd5b5050505060006127106107fe85846113e890919063ffffffff16565b8161080557fe5b049050801561081857610818838261117f565b6108248582840361117f565b505b5050505050565b60408051636eb1769f60e11b81523360048201523060248201529051600019916001600160a01b0389169163dd62ed3e91604480820192602092909190829003018186803b15801561087e57600080fd5b505afa158015610892573d6000803e3d6000fd5b505050506040513d60208110156108a857600080fd5b5051101561082457610824868686868686610429565b60608167ffffffffffffffff811180156108d757600080fd5b5060405190808252806020026020018201604052801561090b57816020015b60608152602001906001900390816108f65790505b50905060005b828110156109f7576000803086868581811061092957fe5b905060200281019061093b91906126ea565b604051610949929190612545565b600060405180830381855af49150503d8060008114610984576040519150601f19603f3d011682016040523d82523d6000602084013e610989565b606091505b5091509150816109d5576044815110156109a257600080fd5b600481019050808060200190518101906109bc919061224a565b60405162461bcd60e51b815260040161041a919061260f565b808484815181106109e257fe5b60209081029190910101525050600101610911565b5092915050565b6000816040015180610a0e61126e565b1115610a57576040805162461bcd60e51b8152602060048201526013602482015272151c985b9cd858dd1a5bdb881d1bdbc81bdb19606a1b604482015290519081900360640190fd5b335b6000610a688560000151611412565b9050610ab4856060015182610a81578660200151610a83565b305b60006040518060400160405280610a9d8b6000015161141e565b8152602001876001600160a01b0316815250611272565b60608601528015610ad4578451309250610acd9061142d565b8552610ae1565b8460600151935050610ae7565b50610a59565b8360800151831015610b0b5760405162461bcd60e51b815260040161041a90612677565b5050919050565b60408051636eb1769f60e11b8152336004820152306024820152905186916001600160a01b0389169163dd62ed3e91604480820192602092909190829003018186803b158015610b6157600080fd5b505afa158015610b75573d6000803e3d6000fd5b505050506040513d6020811015610b8b57600080fd5b5051101561082457610824868686868686610fe7565b7f000000000000000000000000000000000000000000000000000000000000000081565b6000816080013580610bd561126e565b1115610c1e576040805162461bcd60e51b8152602060048201526013602482015272151c985b9cd858dd1a5bdb881d1bdbc81bdb19606a1b604482015290519081900360640190fd5b610cba60a0840135610c36608086016060870161201b565b610c47610100870160e0880161201b565b6040518060400160405280886020016020810190610c65919061201b565b610c7560608b0160408c01612443565b610c8260208c018c61201b565b604051602001610c949392919061250a565b6040516020818303038152906040528152602001336001600160a01b0316815250611444565b91508260c00135821115610ce05760405162461bcd60e51b815260040161041a9061264b565b50600019600055919050565b6000836001600160a01b03166370a08231306040518263ffffffff1660e01b815260040180826001600160a01b0316815260200191505060206040518083038186803b158015610d3b57600080fd5b505afa158015610d4f573d6000803e3d6000fd5b505050506040513d6020811015610d6557600080fd5b5051905082811015610db3576040805162461bcd60e51b815260206004820152601260248201527124b739bab33334b1b4b2b73a103a37b5b2b760711b604482015290519081900360640190fd5b8015610dc457610dc48483836115bf565b50505050565b600082118015610ddb575060648211155b610de457600080fd5b6000856001600160a01b03166370a08231306040518263ffffffff1660e01b815260040180826001600160a01b0316815260200191505060206040518083038186803b158015610e3357600080fd5b505afa158015610e47573d6000803e3d6000fd5b505050506040513d6020811015610e5d57600080fd5b5051905084811015610eab576040805162461bcd60e51b815260206004820152601260248201527124b739bab33334b1b4b2b73a103a37b5b2b760711b604482015290519081900360640190fd5b8015610824576000612710610ec083866113e8565b81610ec757fe5b0490508015610edb57610edb8784836115bf565b610ee887868385036115bf565b50505050505050565b6000816040013580610f0161126e565b1115610f4a576040805162461bcd60e51b8152602060048201526013602482015272151c985b9cd858dd1a5bdb881d1bdbc81bdb19606a1b604482015290519081900360640190fd5b610fbd6060840135610f62604086016020870161201b565b6040805180820190915260009080610f7a89806126ea565b8080601f01602080910402602001604051908101604052809392919081815260200183838082843760009201919091525050509082525033602090910152611444565b5060005491508260800135821115610ce05760405162461bcd60e51b815260040161041a9061264b565b6040805163d505accf60e01b8152336004820152306024820152604481018790526064810186905260ff8516608482015260a4810184905260c4810183905290516001600160a01b0388169163d505accf9160e480830192600092919082900301818387803b1580156104a357600080fd5b60008413806110685750600083135b6110845760405162461bcd60e51b815260040161041a90612622565b6000611092828401846123b3565b905060008060006110a68460000151611706565b9250925092506110d87f0000000000000000000000000000000000000000000000000000000000000000848484611737565b5060008060008a136110ff57846001600160a01b0316846001600160a01b03161089611116565b836001600160a01b0316856001600160a01b0316108a5b915091508115611135576111308587602001513384611756565b6104b7565b855161114090611412565b156111655785516111509061142d565b865261115f8133600089611444565b506104b7565b806000819055508394506104b78587602001513384611756565b604080516000808252602082019092526001600160a01b0384169083906040518082805190602001908083835b602083106111cb5780518252601f1990920191602091820191016111ac565b6001836020036101000a03801982511681845116808217855250505050505090500191505060006040518083038185875af1925050503d806000811461122d576040519150601f19603f3d011682016040523d82523d6000602084013e611232565b606091505b5050905080610638576040805162461bcd60e51b815260206004820152600360248201526253544560e81b604482015290519081900360640190fd5b4290565b60006001600160a01b038416611286573093505b60008060006112988560000151611706565b919450925090506001600160a01b03808316908416106000806112bc8686866118e6565b6001600160a01b031663128acb088b856112d58f611924565b6001600160a01b038e16156112ea578d611310565b876113095773fffd8963efd1fc6a506488495d951d5263988d25611310565b6401000276a45b8d60405160200161132191906126a4565b6040516020818303038152906040526040518663ffffffff1660e01b8152600401611350959493929190612569565b6040805180830381600087803b15801561136957600080fd5b505af115801561137d573d6000803e3d6000fd5b505050506040513d601f19601f820116820180604052508101906113a191906121ac565b915091506113c96040518060600160405280602781526020016127be6027913983838661193a565b826113d457816113d6565b805b6000039b9a5050505050505050505050565b60008215806114035750508181028183828161140057fe5b04145b61140c57600080fd5b92915050565b8051604211155b919050565b606061140c826000602b6119fa565b805160609061140c908390601790601619016119fa565b60006001600160a01b038416611458573093505b600080600061146a8560000151611706565b919450925090506001600160a01b038084169083161060008061148e8587866118e6565b6001600160a01b031663128acb088b856114a78f611924565b6000036001600160a01b038e16156114bf578d6114e5565b876114de5773fffd8963efd1fc6a506488495d951d5263988d256114e5565b6401000276a45b8d6040516020016114f691906126a4565b6040516020818303038152906040526040518663ffffffff1660e01b8152600401611525959493929190612569565b6040805180830381600087803b15801561153e57600080fd5b505af1158015611552573d6000803e3d6000fd5b505050506040513d601f19601f8201168201806040525081019061157691906121ac565b9150915060008361158b578183600003611591565b82826000035b90985090506001600160a01b038a166115b0578b81146115b057600080fd5b50505050505050949350505050565b604080516001600160a01b038481166024830152604480830185905283518084039091018152606490920183526020820180516001600160e01b031663a9059cbb60e01b1781529251825160009485949389169392918291908083835b6020831061163b5780518252601f19909201916020918201910161161c565b6001836020036101000a0380198251168184511680821785525050505050509050019150506000604051808303816000865af19150503d806000811461169d576040519150601f19603f3d011682016040523d82523d6000602084013e6116a2565b606091505b50915091508180156116d05750805115806116d057508080602001905160208110156116cd57600080fd5b50515b610826576040805162461bcd60e51b815260206004820152600260248201526114d560f21b604482015290519081900360640190fd5b600080806117148482611b4b565b9250611721846014611bfb565b905061172e846017611b4b565b91509193909250565b600061174d85611748868686611ca2565b611cf8565b95945050505050565b7f00000000000000000000000000000000000000000000000000000000000000006001600160a01b0316846001600160a01b03161480156117975750804710155b156118b9577f00000000000000000000000000000000000000000000000000000000000000006001600160a01b031663d0e30db0826040518263ffffffff1660e01b81526004016000604051808303818588803b1580156117f757600080fd5b505af115801561180b573d6000803e3d6000fd5b50505050507f00000000000000000000000000000000000000000000000000000000000000006001600160a01b031663a9059cbb83836040518363ffffffff1660e01b815260040180836001600160a01b0316815260200182815260200192505050602060405180830381600087803b15801561188757600080fd5b505af115801561189b573d6000803e3d6000fd5b505050506040513d60208110156118b157600080fd5b50610dc49050565b6001600160a01b0383163014156118da576118d58483836115bf565b610dc4565b610dc484848484611d1b565b600061191c7f0000000000000000000000000000000000000000000000000000000000000000611917868686611ca2565b611e6b565b949350505050565b6000600160ff1b821061193657600080fd5b5090565b610dc48484848460405160240180806020018581526020018481526020018315158152602001828103825286818151815260200191508051906020019080838360005b8381101561199557818101518382015260200161197d565b50505050905090810190601f1680156119c25780820380516001836020036101000a031916815260200191505b5060408051601f198184030181529190526020810180516001600160e01b0316633b136dc960e11b1790529550611f4f945050505050565b60608182601f011015611a45576040805162461bcd60e51b815260206004820152600e60248201526d736c6963655f6f766572666c6f7760901b604482015290519081900360640190fd5b828284011015611a8d576040805162461bcd60e51b815260206004820152600e60248201526d736c6963655f6f766572666c6f7760901b604482015290519081900360640190fd5b81830184511015611ad9576040805162461bcd60e51b8152602060048201526011602482015270736c6963655f6f75744f66426f756e647360781b604482015290519081900360640190fd5b606082158015611af85760405191506000825260208201604052611b42565b6040519150601f8416801560200281840101858101878315602002848b0101015b81831015611b31578051835260209283019201611b19565b5050858452601f01601f1916604052505b50949350505050565b600081826014011015611b9a576040805162461bcd60e51b8152602060048201526012602482015271746f416464726573735f6f766572666c6f7760701b604482015290519081900360640190fd5b8160140183511015611beb576040805162461bcd60e51b8152602060048201526015602482015274746f416464726573735f6f75744f66426f756e647360581b604482015290519081900360640190fd5b500160200151600160601b900490565b600081826003011015611c49576040805162461bcd60e51b8152602060048201526011602482015270746f55696e7432345f6f766572666c6f7760781b604482015290519081900360640190fd5b8160030183511015611c99576040805162461bcd60e51b8152602060048201526014602482015273746f55696e7432345f6f75744f66426f756e647360601b604482015290519081900360640190fd5b50016003015190565b611caa611f8d565b826001600160a01b0316846001600160a01b03161115611cc8579192915b50604080516060810182526001600160a01b03948516815292909316602083015262ffffff169181019190915290565b6000611d048383611e6b565b9050336001600160a01b0382161461140c57600080fd5b604080516001600160a01b0385811660248301528481166044830152606480830185905283518084039091018152608490920183526020820180516001600160e01b03166323b872dd60e01b178152925182516000948594938a169392918291908083835b60208310611d9f5780518252601f199092019160209182019101611d80565b6001836020036101000a0380198251168184511680821785525050505050509050019150506000604051808303816000865af19150503d8060008114611e01576040519150601f19603f3d011682016040523d82523d6000602084013e611e06565b606091505b5091509150818015611e34575080511580611e345750808060200190516020811015611e3157600080fd5b50515b610824576040805162461bcd60e51b815260206004820152600360248201526229aa2360e91b604482015290519081900360640190fd5b600081602001516001600160a01b031682600001516001600160a01b031610611e9357600080fd5b50805160208083015160409384015184516001600160a01b0394851681850152939091168385015262ffffff166060808401919091528351808403820181526080840185528051908301206001600160f81b031960a085015294901b6bffffffffffffffffffffffff191660a183015260b58201939093527fd3e7f58b9af034cfa7a0597e539bae7c6b393817a47a6fc1e1503cd6eaffe22a60d5808301919091528251808303909101815260f5909101909152805191012090565b611f6681611f5e611f69611f8a565b63ffffffff16565b50565b60006a636f6e736f6c652e6c6f679050600080835160208501845afa505050565b90565b604080516060810182526000808252602082018190529181019190915290565b8035611419816127a8565b600082601f830112611fc8578081fd5b8135611fdb611fd68261275a565b612736565b818152846020838601011115611fef578283fd5b816020850160208301379081016020019190915292915050565b60006101008284031215610423578081fd5b60006020828403121561202c578081fd5b8135612037816127a8565b9392505050565b600080600060608486031215612052578182fd5b833561205d816127a8565b9250602084013591506040840135612074816127a8565b809150509250925092565b600080600080600060a08688031215612096578081fd5b85356120a1816127a8565b94506020860135935060408601356120b8816127a8565b92506060860135915060808601356120cf816127a8565b809150509295509295909350565b60008060008060008060c087890312156120f5578081fd5b8635612100816127a8565b95506020870135945060408701359350606087013560ff81168114612123578182fd5b9598949750929560808101359460a0909101359350915050565b6000806020838503121561214f578182fd5b823567ffffffffffffffff80821115612166578384fd5b818501915085601f830112612179578384fd5b813581811115612187578485fd5b866020808302850101111561219a578485fd5b60209290920196919550909350505050565b600080604083850312156121be578182fd5b505080516020909101519092909150565b600080600080606085870312156121e4578182fd5b8435935060208501359250604085013567ffffffffffffffff80821115612209578384fd5b818701915087601f83011261221c578384fd5b81358181111561222a578485fd5b88602082850101111561223b578485fd5b95989497505060200194505050565b60006020828403121561225b578081fd5b815167ffffffffffffffff811115612271578182fd5b8201601f81018413612281578182fd5b805161228f611fd68261275a565b8181528560208385010111156122a3578384fd5b61174d82602083016020860161277c565b6000602082840312156122c5578081fd5b813567ffffffffffffffff808211156122dc578283fd5b9083019060a082860312156122ef578283fd5b60405160a08101818110838211171561230457fe5b604052823582811115612315578485fd5b61232187828601611fb8565b82525061233060208401611fad565b602082015260408301356040820152606083013560608201526080830135608082015280935050505092915050565b60006101008284031215612371578081fd5b6120378383612009565b60006020828403121561238c578081fd5b813567ffffffffffffffff8111156123a2578182fd5b820160a08185031215612037578182fd5b6000602082840312156123c4578081fd5b813567ffffffffffffffff808211156123db578283fd5b90830190604082860312156123ee578283fd5b60405160408101818110838211171561240357fe5b604052823582811115612414578485fd5b61242087828601611fb8565b82525060208301359250612433836127a8565b6020810192909252509392505050565b600060208284031215612454578081fd5b813562ffffff81168114612037578182fd5b60008060408385031215612478578182fd5b82359150602083013561248a816127a8565b809150509250929050565b600080600080608085870312156124aa578182fd5b8435935060208501356124bc816127a8565b92506040850135915060608501356124d3816127a8565b939692955090935050565b600081518084526124f681602086016020860161277c565b601f01601f19169290920160200192915050565b606093841b6bffffffffffffffffffffffff19908116825260e89390931b6001600160e81b0319166014820152921b166017820152602b0190565b6000828483379101908152919050565b6001600160a01b0391909116815260200190565b6001600160a01b0386811682528515156020830152604082018590528316606082015260a0608082018190526000906125a4908301846124de565b979650505050505050565b6000602080830181845280855180835260408601915060408482028701019250838701855b8281101561260257603f198886030184526125f08583516124de565b945092850192908501906001016125d4565b5092979650505050505050565b60006020825261203760208301846124de565b6020808252600f908201526e5a65726f20737761702064656c746160881b604082015260600190565b602080825260129082015271151bdbc81b5d58da081c995c5d595cdd195960721b604082015260600190565b602080825260139082015272151bdbc81b1a5d1d1b19481c9958d95a5d9959606a1b604082015260600190565b6000602082528251604060208401526126c060608401826124de565b602094909401516001600160a01b0316604093909301929092525090919050565b90815260200190565b6000808335601e19843603018112612700578283fd5b83018035915067ffffffffffffffff82111561271a578283fd5b60200191503681900382131561272f57600080fd5b9250929050565b60405181810167ffffffffffffffff8111828210171561275257fe5b604052919050565b600067ffffffffffffffff82111561276e57fe5b50601f01601f191660200190565b60005b8381101561279757818101518382015260200161277f565b83811115610dc45750506000910152565b6001600160a01b0381168114611f6657600080fdfe53776170526f757465722d6578616374496e707574496e7465726e616c28292d746f6b656e496ea164736f6c6343000706000a",
  "linkReferences": {},
  "deployedLinkReferences": {}
}