{
  "_format": "hh-sol-artifact-1",
  "contractName": "Quoter",
  "sourceName": "contracts/uniswap/v3-periphery/lens/Quoter.sol",
  "abi": [
    {
      "inputs": [
        {
          "internalType": "address",
          "name": "_factory",
          "type": "address"
        },
        {
          "internalType": "address",
          "name": "_WETH9",
          "type": "address"
        }
      ],
      "stateMutability": "nonpayable",
      "type": "constructor"
    },
    {
      "inputs": [],
      "name": "WETH9",
      "outputs": [
        {
          "internalType": "address",
          "name": "",
          "type": "address"
        }
      ],
      "stateMutability": "view",
      "type": "function"
    },
    {
      "inputs": [],
      "name": "factory",
      "outputs": [
        {
          "internalType": "address",
          "name": "",
          "type": "address"
        }
      ],
      "stateMutability": "view",
      "type": "function"
    },
    {
      "inputs": [
        {
          "internalType": "bytes",
          "name": "path",
          "type": "bytes"
        },
        {
          "internalType": "uint256",
          "name": "amountIn",
          "type": "uint256"
        }
      ],
      "name": "quoteExactInput",
      "outputs": [
        {
          "internalType": "uint256",
          "name": "amountOut",
          "type": "uint256"
        }
      ],
      "stateMutability": "nonpayable",
      "type": "function"
    },
    {
      "inputs": [
        {
          "internalType": "address",
          "name": "tokenIn",
          "type": "address"
        },
        {
          "internalType": "address",
          "name": "tokenOut",
          "type": "address"
        },
        {
          "internalType": "uint24",
          "name": "fee",
          "type": "uint24"
        },
        {
          "internalType": "uint256",
          "name": "amountIn",
          "type": "uint256"
        },
        {
          "internalType": "uint160",
          "name": "sqrtPriceLimitX96",
          "type": "uint160"
        }
      ],
      "name": "quoteExactInputSingle",
      "outputs": [
        {
          "internalType": "uint256",
          "name": "amountOut",
          "type": "uint256"
        }
      ],
      "stateMutability": "nonpayable",
      "type": "function"
    },
    {
      "inputs": [
        {
          "internalType": "bytes",
          "name": "path",
          "type": "bytes"
        },
        {
          "internalType": "uint256",
          "name": "amountOut",
          "type": "uint256"
        }
      ],
      "name": "quoteExactOutput",
      "outputs": [
        {
          "internalType": "uint256",
          "name": "amountIn",
          "type": "uint256"
        }
      ],
      "stateMutability": "nonpayable",
      "type": "function"
    },
    {
      "inputs": [
        {
          "internalType": "address",
          "name": "tokenIn",
          "type": "address"
        },
        {
          "internalType": "address",
          "name": "tokenOut",
          "type": "address"
        },
        {
          "internalType": "uint24",
          "name": "fee",
          "type": "uint24"
        },
        {
          "internalType": "uint256",
          "name": "amountOut",
          "type": "uint256"
        },
        {
          "internalType": "uint160",
          "name": "sqrtPriceLimitX96",
          "type": "uint160"
        }
      ],
      "name": "quoteExactOutputSingle",
      "outputs": [
        {
          "internalType": "uint256",
          "name": "amountIn",
          "type": "uint256"
        }
      ],
      "stateMutability": "nonpayable",
      "type": "function"
    },
    {
      "inputs": [
        {
          "internalType": "int256",
          "name": "amount0Delta",
          "type": "int256"
        },
        {
          "internalType": "int256",
          "name": "amount1Delta",
          "type": "int256"
        },
        {
          "internalType": "bytes",
          "name": "path",
          "type": "bytes"
        }
      ],
      "name": "uniswapV3SwapCallback",
      "outputs": [],
      "stateMutability": "view",
      "type": "function"
    }
  ],
  "bytecode": "0x60c060405234801561001057600080fd5b506040516110a63803806110a683398101604081905261002f91610069565b6001600160601b0319606092831b8116608052911b1660a05261009b565b80516001600160a01b038116811461006457600080fd5b919050565b6000806040838503121561007b578182fd5b6100848361004d565b91506100926020840161004d565b90509250929050565b60805160601c60a05160601c610fd86100ce600039806102f052508061031452806104ef52806105ec5250610fd86000f3fe608060405234801561001057600080fd5b506004361061007d5760003560e01c8063c45a01551161005b578063c45a0155146100d3578063cdca1753146100db578063f7729d43146100ee578063fa461e33146101015761007d565b80632f80bb1d1461008257806330d07f21146100ab5780634aa4a4fc146100be575b600080fd5b610095610090366004610ccb565b610116565b6040516100a29190610f06565b60405180910390f35b6100956100b9366004610c5d565b61017b565b6100c66102ee565b6040516100a29190610e68565b6100c6610312565b6100956100e9366004610ccb565b610336565b6100956100fc366004610c5d565b610384565b61011461010f366004610d31565b6104be565b005b60005b600061012484610595565b905060008060006101348761059d565b92509250925061014882848389600061017b565b9550831561016057610159876105ce565b965061016c565b85945050505050610175565b50505050610119565b92915050565b60006001600160a01b03808616878216109083166101995760008490555b6101a48787876105e5565b6001600160a01b031663128acb0830836101bd88610623565b6000036001600160a01b038816156101d557876101fb565b856101f45773fffd8963efd1fc6a506488495d951d5263988d256101fb565b6401000276a45b8b8b8e60405160200161021093929190610e2d565b6040516020818303038152906040526040518663ffffffff1660e01b815260040161023f959493929190610e7c565b6040805180830381600087803b15801561025857600080fd5b505af1925050508015610288575060408051601f3d908101601f1916820190925261028591810190610d0e565b60015b6102e1573d8080156102b6576040519150601f19603f3d011682016040523d82523d6000602084013e6102bb565b606091505b506001600160a01b0384166102cf57600080555b6102d881610639565b925050506102e5565b5050505b95945050505050565b7f000000000000000000000000000000000000000000000000000000000000000081565b7f000000000000000000000000000000000000000000000000000000000000000081565b60005b600061034484610595565b905060008060006103548761059d565b925092509250610368838383896000610384565b9550831561016057610379876105ce565b965050505050610339565b60006001600160a01b03808616908716106103a08787876105e5565b6001600160a01b031663128acb0830836103b988610623565b6001600160a01b038816156103ce57876103f4565b856103ed5773fffd8963efd1fc6a506488495d951d5263988d256103f4565b6401000276a45b8c8b8d60405160200161040993929190610e2d565b6040516020818303038152906040526040518663ffffffff1660e01b8152600401610438959493929190610e7c565b6040805180830381600087803b15801561045157600080fd5b505af1925050508015610481575060408051601f3d908101601f1916820190925261047e91810190610d0e565b60015b6102e1573d8080156104af576040519150601f19603f3d011682016040523d82523d6000602084013e6104b4565b606091505b506102d881610639565b60008313806104cd5750600082135b6104d657600080fd5b60008060006104e48461059d565b9250925092506105167f00000000000000000000000000000000000000000000000000000000000000008484846106b6565b50600080600080891361054257856001600160a01b0316856001600160a01b031610888a60000361055d565b846001600160a01b0316866001600160a01b03161089896000035b925092509250821561057457604051818152602081fd5b6000541561058a57600054811461058a57600080fd5b604051828152602081fd5b516042111590565b600080806105ab84826106cc565b92506105b884601461077c565b90506105c58460176106cc565b91509193909250565b805160609061017590839060179060161901610823565b600061061b7f0000000000000000000000000000000000000000000000000000000000000000610616868686610974565b6109ca565b949350505050565b6000600160ff1b821061063557600080fd5b5090565b600081516020146106a25760448251101561066f5760405162461bcd60e51b815260040161066690610edc565b60405180910390fd5b600482019150818060200190518101906106899190610d7f565b60405162461bcd60e51b81526004016106669190610ec2565b818060200190518101906101759190610de9565b60006102e5856106c7868686610974565b610ad0565b60008182601401101561071b576040805162461bcd60e51b8152602060048201526012602482015271746f416464726573735f6f766572666c6f7760701b604482015290519081900360640190fd5b816014018351101561076c576040805162461bcd60e51b8152602060048201526015602482015274746f416464726573735f6f75744f66426f756e647360581b604482015290519081900360640190fd5b500160200151600160601b900490565b6000818260030110156107ca576040805162461bcd60e51b8152602060048201526011602482015270746f55696e7432345f6f766572666c6f7760781b604482015290519081900360640190fd5b816003018351101561081a576040805162461bcd60e51b8152602060048201526014602482015273746f55696e7432345f6f75744f66426f756e647360601b604482015290519081900360640190fd5b50016003015190565b60608182601f01101561086e576040805162461bcd60e51b815260206004820152600e60248201526d736c6963655f6f766572666c6f7760901b604482015290519081900360640190fd5b8282840110156108b6576040805162461bcd60e51b815260206004820152600e60248201526d736c6963655f6f766572666c6f7760901b604482015290519081900360640190fd5b81830184511015610902576040805162461bcd60e51b8152602060048201526011602482015270736c6963655f6f75744f66426f756e647360781b604482015290519081900360640190fd5b606082158015610921576040519150600082526020820160405261096b565b6040519150601f8416801560200281840101858101878315602002848b0101015b8183101561095a578051835260209283019201610942565b5050858452601f01601f1916604052505b50949350505050565b61097c610bec565b826001600160a01b0316846001600160a01b0316111561099a579192915b50604080516060810182526001600160a01b03948516815292909316602083015262ffffff169181019190915290565b600081602001516001600160a01b031682600001516001600160a01b0316106109f257600080fd5b50805160208083015160408085015181516001600160a01b0395861681860152949092168482015262ffffff9091166060808501919091528151808503820181526080850183528051908401206001600160f81b031960a08601529086901b6bffffffffffffffffffffffff191660a185015260b58401527fd3e7f58b9af034cfa7a0597e539bae7c6b393817a47a6fc1e1503cd6eaffe22a60d5808501919091528151808503909101815260f5840180835281519190930120610155840190915260318083529092610175929190610f9b90610115013982610af3565b6000610adc83836109ca565b9050336001600160a01b0382161461017557600080fd5b610baa82826040516024018080602001836001600160a01b03168152602001828103825284818151815260200191508051906020019080838360005b83811015610b47578181015183820152602001610b2f565b50505050905090810190601f168015610b745780820380516001836020036101000a031916815260200191505b5060408051601f198184030181529190526020810180516001600160e01b031663319af33360e01b1790529350610bae92505050565b5050565b610bc581610bbd610bc8610be9565b63ffffffff16565b50565b60006a636f6e736f6c652e6c6f679050600080835160208501845afa505050565b90565b604080516060810182526000808252602082018190529181019190915290565b600082601f830112610c1c578081fd5b8135610c2f610c2a82610f33565b610f0f565b818152846020838601011115610c43578283fd5b816020850160208301379081016020019190915292915050565b600080600080600060a08688031215610c74578081fd5b8535610c7f81610f85565b94506020860135610c8f81610f85565b9350604086013562ffffff81168114610ca6578182fd5b9250606086013591506080860135610cbd81610f85565b809150509295509295909350565b60008060408385031215610cdd578182fd5b823567ffffffffffffffff811115610cf3578283fd5b610cff85828601610c0c565b95602094909401359450505050565b60008060408385031215610d20578182fd5b505080516020909101519092909150565b600080600060608486031215610d45578283fd5b8335925060208401359150604084013567ffffffffffffffff811115610d69578182fd5b610d7586828701610c0c565b9150509250925092565b600060208284031215610d90578081fd5b815167ffffffffffffffff811115610da6578182fd5b8201601f81018413610db6578182fd5b8051610dc4610c2a82610f33565b818152856020838501011115610dd8578384fd5b6102e5826020830160208601610f55565b600060208284031215610dfa578081fd5b5051919050565b60008151808452610e19816020860160208601610f55565b601f01601f19169290920160200192915050565b606093841b6bffffffffffffffffffffffff19908116825260e89390931b6001600160e81b0319166014820152921b166017820152602b0190565b6001600160a01b0391909116815260200190565b6001600160a01b0386811682528515156020830152604082018590528316606082015260a060808201819052600090610eb790830184610e01565b979650505050505050565b600060208252610ed56020830184610e01565b9392505050565b60208082526010908201526f2ab732bc3832b1ba32b21032b93937b960811b604082015260600190565b90815260200190565b60405181810167ffffffffffffffff81118282101715610f2b57fe5b604052919050565b600067ffffffffffffffff821115610f4757fe5b50601f01601f191660200190565b60005b83811015610f70578181015183820152602001610f58565b83811115610f7f576000848401525b50505050565b6001600160a01b0381168114610bc557600080fdfe506f6f6c416464726573732e636f6d707574654164647265737328666163746f72792c206b6579292d706f6f6c3a202573a164736f6c6343000706000a",
  "linkReferences": {},
  "deployedLinkReferences": {}
}