{
  "_format": "hh-sol-artifact-1",
  "contractName": "PositionValueTest",
  "sourceName": "contracts/uniswap/v3-periphery/test/PositionValueTest.sol",
  "abi": [
    {
      "inputs": [
        {
          "internalType": "contract INonfungiblePositionManager",
          "name": "nft",
          "type": "address"
        },
        {
          "internalType": "uint256",
          "name": "tokenId",
          "type": "uint256"
        }
      ],
      "name": "fees",
      "outputs": [
        {
          "internalType": "uint256",
          "name": "amount0",
          "type": "uint256"
        },
        {
          "internalType": "uint256",
          "name": "amount1",
          "type": "uint256"
        }
      ],
      "stateMutability": "view",
      "type": "function"
    },
    {
      "inputs": [
        {
          "internalType": "contract INonfungiblePositionManager",
          "name": "nft",
          "type": "address"
        },
        {
          "internalType": "uint256",
          "name": "tokenId",
          "type": "uint256"
        }
      ],
      "name": "feesGas",
      "outputs": [
        {
          "internalType": "uint256",
          "name": "",
          "type": "uint256"
        }
      ],
      "stateMutability": "view",
      "type": "function"
    },
    {
      "inputs": [
        {
          "internalType": "contract INonfungiblePositionManager",
          "name": "nft",
          "type": "address"
        },
        {
          "internalType": "uint256",
          "name": "tokenId",
          "type": "uint256"
        },
        {
          "internalType": "uint160",
          "name": "sqrtRatioX96",
          "type": "uint160"
        }
      ],
      "name": "principal",
      "outputs": [
        {
          "internalType": "uint256",
          "name": "amount0",
          "type": "uint256"
        },
        {
          "internalType": "uint256",
          "name": "amount1",
          "type": "uint256"
        }
      ],
      "stateMutability": "view",
      "type": "function"
    },
    {
      "inputs": [
        {
          "internalType": "contract INonfungiblePositionManager",
          "name": "nft",
          "type": "address"
        },
        {
          "internalType": "uint256",
          "name": "tokenId",
          "type": "uint256"
        },
        {
          "internalType": "uint160",
          "name": "sqrtRatioX96",
          "type": "uint160"
        }
      ],
      "name": "principalGas",
      "outputs": [
        {
          "internalType": "uint256",
          "name": "",
          "type": "uint256"
        }
      ],
      "stateMutability": "view",
      "type": "function"
    },
    {
      "inputs": [
        {
          "internalType": "contract INonfungiblePositionManager",
          "name": "nft",
          "type": "address"
        },
        {
          "internalType": "uint256",
          "name": "tokenId",
          "type": "uint256"
        },
        {
          "internalType": "uint160",
          "name": "sqrtRatioX96",
          "type": "uint160"
        }
      ],
      "name": "total",
      "outputs": [
        {
          "internalType": "uint256",
          "name": "amount0",
          "type": "uint256"
        },
        {
          "internalType": "uint256",
          "name": "amount1",
          "type": "uint256"
        }
      ],
      "stateMutability": "view",
      "type": "function"
    },
    {
      "inputs": [
        {
          "internalType": "contract INonfungiblePositionManager",
          "name": "nft",
          "type": "address"
        },
        {
          "internalType": "uint256",
          "name": "tokenId",
          "type": "uint256"
        },
        {
          "internalType": "uint160",
          "name": "sqrtRatioX96",
          "type": "uint160"
        }
      ],
      "name": "totalGas",
      "outputs": [
        {
          "internalType": "uint256",
          "name": "",
          "type": "uint256"
        }
      ],
      "stateMutability": "view",
      "type": "function"
    }
  ],
  "bytecode": "0x608060405234801561001057600080fd5b50611038806100206000396000f3fe608060405234801561001057600080fd5b50600436106100625760003560e01c80632263539714610067578063263a5362146100b65780633803770c146100e25780635b6dc0921461012057806390594f9114610156578063ee4e9ba31461018c575b600080fd5b61009d6004803603606081101561007d57600080fd5b506001600160a01b038135811691602081013591604090910135166101c2565b6040805192835260208301919091528051918290030190f35b61009d600480360360408110156100cc57600080fd5b506001600160a01b0381351690602001356101dc565b61010e600480360360408110156100f857600080fd5b506001600160a01b0381351690602001356101f4565b60408051918252519081900360200190f35b61009d6004803603606081101561013657600080fd5b506001600160a01b03813581169160208101359160409091013516610212565b61010e6004803603606081101561016c57600080fd5b506001600160a01b03813581169160208101359160409091013516610220565b61010e600480360360608110156101a257600080fd5b506001600160a01b03813581169160208101359160409091013516610240565b6000806101d085858561024d565b91509150935093915050565b6000806101e98484610309565b915091509250929050565b6000805a90506102048484610309565b50505a900390505b92915050565b6000806101d08585856104bc565b6000805a90506102318585856104bc565b50505a900390505b9392505050565b6000805a90506102318585855b6000806000806000876001600160a01b03166399fbab88886040518263ffffffff1660e01b8152600401808281526020019150506101806040518083038186803b15801561029a57600080fd5b505afa1580156102ae573d6000803e3d6000fd5b505050506040513d6101808110156102c557600080fd5b5060a081015160c082015160e09092015190945090925090506102fa866102eb856104ef565b6102f4856104ef565b84610821565b94509450505050935093915050565b6000806000806000806000806000806000808d6001600160a01b03166399fbab888e6040518263ffffffff1660e01b8152600401808281526020019150506101806040518083038186803b15801561036057600080fd5b505afa158015610374573d6000803e3d6000fd5b505050506040513d61018081101561038b57600080fd5b810190808051906020019092919080519060200190929190805190602001909291908051906020019092919080519060200190929190805190602001909291908051906020019092919080519060200190929190805190602001909291908051906020019092919080519060200190929190805190602001909291905050506001600160801b03169b506001600160801b03169b509b509b509b509b509b509b509b509b5050506104a78e6040518061014001604052808d6001600160a01b031681526020018c6001600160a01b031681526020018b62ffffff1681526020018a60020b81526020018960020b8152602001886001600160801b03168152602001878152602001868152602001858152602001848152506108bd565b9b509b50505050505050505050509250929050565b6000806000806104cd87878761024d565b915091506000806104de8989610309565b940195505050019050935093915050565b60008060008360020b12610506578260020b61050e565b8260020b6000035b9050620d89e881111561054c576040805162461bcd60e51b81526020600482015260016024820152601560fa1b604482015290519081900360640190fd5b60006001821661056057600160801b610572565b6ffffcb933bd6fad37aa2d162d1a5940015b70ffffffffffffffffffffffffffffffffff16905060028216156105a6576ffff97272373d413259a46990580e213a0260801c5b60048216156105c5576ffff2e50f5f656932ef12357cf3c7fdcc0260801c5b60088216156105e4576fffe5caca7e10e4e61c3624eaa0941cd00260801c5b6010821615610603576fffcb9843d60f6159c9db58835c9266440260801c5b6020821615610622576fff973b41fa98c081472e6896dfb254c00260801c5b6040821615610641576fff2ea16466c96a3843ec78b326b528610260801c5b6080821615610660576ffe5dee046a99a2a811c461f1969c30530260801c5b610100821615610680576ffcbe86c7900a88aedcffc83b479aa3a40260801c5b6102008216156106a0576ff987a7253ac413176f2b074cf7815e540260801c5b6104008216156106c0576ff3392b0822b70005940c7a398e4b70f30260801c5b6108008216156106e0576fe7159475a2c29b7443b29c7fa6e889d90260801c5b611000821615610700576fd097f3bdfd2022b8845ad8f792aa58250260801c5b612000821615610720576fa9f746462d870fdf8a65dc1f90e061e50260801c5b614000821615610740576f70d869a156d2a1b890bb3df62baf32f70260801c5b618000821615610760576f31be135f97d08fd981231505542fcfa60260801c5b62010000821615610781576f09aa508b5b7a84e1c677de54f3e99bc90260801c5b620200008216156107a1576e5d6af8dedb81196699c329225ee6040260801c5b620400008216156107c0576d2216e584f5fa1ea926041bedfe980260801c5b620800008216156107dd576b048a170391f7dc42444e8fa20260801c5b60008460020b13156107f85780600019816107f457fe5b0490505b64010000000081061561080c57600161080f565b60005b60ff16602082901c0192505050919050565b600080836001600160a01b0316856001600160a01b03161115610842579293925b846001600160a01b0316866001600160a01b03161161086d576108668585856109db565b91506108b4565b836001600160a01b0316866001600160a01b031610156108a6576108928685856109db565b915061089f858785610a44565b90506108b4565b6108b1858585610a44565b90505b94509492505050565b600080600080610978610969876001600160a01b031663c45a01556040518163ffffffff1660e01b815260040160206040518083038186803b15801561090257600080fd5b505afa158015610916573d6000803e3d6000fd5b505050506040513d602081101561092c57600080fd5b50516040805160608101825289516001600160a01b03908116825260208b810151909116908201528982015162ffffff1691810191909152610a8f565b86606001518760800151610b95565b915091508461010001516109a48660c0015184038760a001516001600160801b0316600160801b610e52565b0193508461012001516109cf8660e0015183038760a001516001600160801b0316600160801b610e52565b01925050509250929050565b6000826001600160a01b0316846001600160a01b031611156109fb579192915b836001600160a01b0316610a34606060ff16846001600160801b0316901b8686036001600160a01b0316866001600160a01b0316610e52565b81610a3b57fe5b04949350505050565b6000826001600160a01b0316846001600160a01b03161115610a64579192915b610a87826001600160801b03168585036001600160a01b0316600160601b610e52565b949350505050565b600081602001516001600160a01b031682600001516001600160a01b031610610ab757600080fd5b50805160208083015160408085015181516001600160a01b0395861681860152949092168482015262ffffff9091166060808501919091528151808503820181526080850183528051908401206001600160f81b031960a08601529086901b6bffffffffffffffffffffffff191660a185015260b58401527fd3e7f58b9af034cfa7a0597e539bae7c6b393817a47a6fc1e1503cd6eaffe22a60d5808501919091528151808503909101815260f584018083528151919093012061015584019091526031808352909261020c929190610ffb90610115013982610f01565b6000806000856001600160a01b0316633850c7bd6040518163ffffffff1660e01b815260040160e06040518083038186803b158015610bd357600080fd5b505afa158015610be7573d6000803e3d6000fd5b505050506040513d60e0811015610bfd57600080fd5b50602001516040805163f30dba9360e01b8152600288900b6004820152905191925060009182916001600160a01b038a169163f30dba939160248082019261010092909190829003018186803b158015610c5657600080fd5b505afa158015610c6a573d6000803e3d6000fd5b505050506040513d610100811015610c8157600080fd5b50604080820151606090920151815163f30dba9360e01b815260028a900b60048201529151929450925060009182916001600160a01b038c169163f30dba939160248082019261010092909190829003018186803b158015610ce257600080fd5b505afa158015610cf6573d6000803e3d6000fd5b505050506040513d610100811015610d0d57600080fd5b5060408101516060909101519092509050600289810b9086900b1215610d3c5781840396508083039550610e45565b8760020b8560020b1215610e3a5760008a6001600160a01b031663f30583996040518163ffffffff1660e01b815260040160206040518083038186803b158015610d8557600080fd5b505afa158015610d99573d6000803e3d6000fd5b505050506040513d6020811015610daf57600080fd5b505160408051634614131960e01b815290519192506000916001600160a01b038e16916346141319916004808301926020929190829003018186803b158015610df757600080fd5b505afa158015610e0b573d6000803e3d6000fd5b505050506040513d6020811015610e2157600080fd5b5051918690038490039850508390038190039550610e45565b838203965082810395505b5050505050935093915050565b6000808060001985870986860292508281109083900303905080610e885760008411610e7d57600080fd5b508290049050610239565b808411610e9457600080fd5b6000848688096000868103871696879004966002600389028118808a02820302808a02820302808a02820302808a02820302808a02820302808a02909103029181900381900460010186841190950394909402919094039290920491909117919091029150509392505050565b610fb882826040516024018080602001836001600160a01b03168152602001828103825284818151815260200191508051906020019080838360005b83811015610f55578181015183820152602001610f3d565b50505050905090810190601f168015610f825780820380516001836020036101000a031916815260200191505b5060408051601f198184030181529190526020810180516001600160e01b031663319af33360e01b1790529350610fbc92505050565b5050565b610fd381610fcb610fd6610ff7565b63ffffffff16565b50565b60006a636f6e736f6c652e6c6f679050600080835160208501845afa505050565b9056fe506f6f6c416464726573732e636f6d707574654164647265737328666163746f72792c206b6579292d706f6f6c3a202573a164736f6c6343000706000a",
  "linkReferences": {},
  "deployedLinkReferences": {}
}