{
  "_format": "hh-sol-artifact-1",
  "contractName": "TickBitmapTest",
  "sourceName": "contracts/uniswap/v3-core/test/TickBitmapTest.sol",
  "abi": [
    {
      "inputs": [
        {
          "internalType": "int16",
          "name": "",
          "type": "int16"
        }
      ],
      "name": "bitmap",
      "outputs": [
        {
          "internalType": "uint256",
          "name": "",
          "type": "uint256"
        }
      ],
      "stateMutability": "view",
      "type": "function"
    },
    {
      "inputs": [
        {
          "internalType": "int24",
          "name": "tick",
          "type": "int24"
        }
      ],
      "name": "flipTick",
      "outputs": [],
      "stateMutability": "nonpayable",
      "type": "function"
    },
    {
      "inputs": [
        {
          "internalType": "int24",
          "name": "tick",
          "type": "int24"
        }
      ],
      "name": "getGasCostOfFlipTick",
      "outputs": [
        {
          "internalType": "uint256",
          "name": "",
          "type": "uint256"
        }
      ],
      "stateMutability": "nonpayable",
      "type": "function"
    },
    {
      "inputs": [
        {
          "internalType": "int24",
          "name": "tick",
          "type": "int24"
        },
        {
          "internalType": "bool",
          "name": "lte",
          "type": "bool"
        }
      ],
      "name": "getGasCostOfNextInitializedTickWithinOneWord",
      "outputs": [
        {
          "internalType": "uint256",
          "name": "",
          "type": "uint256"
        }
      ],
      "stateMutability": "view",
      "type": "function"
    },
    {
      "inputs": [
        {
          "internalType": "int24",
          "name": "tick",
          "type": "int24"
        }
      ],
      "name": "isInitialized",
      "outputs": [
        {
          "internalType": "bool",
          "name": "",
          "type": "bool"
        }
      ],
      "stateMutability": "view",
      "type": "function"
    },
    {
      "inputs": [
        {
          "internalType": "int24",
          "name": "tick",
          "type": "int24"
        },
        {
          "internalType": "int24",
          "name": "tickSpacing",
          "type": "int24"
        },
        {
          "internalType": "address",
          "name": "pool",
          "type": "address"
        }
      ],
      "name": "isInitialized2",
      "outputs": [
        {
          "internalType": "bool",
          "name": "",
          "type": "bool"
        }
      ],
      "stateMutability": "view",
      "type": "function"
    },
    {
      "inputs": [
        {
          "internalType": "int24",
          "name": "tick",
          "type": "int24"
        },
        {
          "internalType": "bool",
          "name": "lte",
          "type": "bool"
        }
      ],
      "name": "nextInitializedTickWithinOneWord",
      "outputs": [
        {
          "internalType": "int24",
          "name": "next",
          "type": "int24"
        },
        {
          "internalType": "bool",
          "name": "initialized",
          "type": "bool"
        }
      ],
      "stateMutability": "view",
      "type": "function"
    },
    {
      "inputs": [
        {
          "internalType": "uint256",
          "name": "arrayWordPos",
          "type": "uint256"
        },
        {
          "internalType": "int24",
          "name": "tick",
          "type": "int24"
        },
        {
          "internalType": "int24",
          "name": "tickSpacing",
          "type": "int24"
        },
        {
          "internalType": "bool",
          "name": "lte",
          "type": "bool"
        }
      ],
      "name": "nextInitializedTickWithinOneWord2",
      "outputs": [
        {
          "internalType": "int24",
          "name": "next",
          "type": "int24"
        },
        {
          "internalType": "bool",
          "name": "initialized",
          "type": "bool"
        }
      ],
      "stateMutability": "pure",
      "type": "function"
    },
    {
      "inputs": [
        {
          "internalType": "int24",
          "name": "tick",
          "type": "int24"
        }
      ],
      "name": "position",
      "outputs": [
        {
          "internalType": "int16",
          "name": "wordPos",
          "type": "int16"
        },
        {
          "internalType": "uint8",
          "name": "bitPos",
          "type": "uint8"
        }
      ],
      "stateMutability": "pure",
      "type": "function"
    }
  ],
  "bytecode": "0x608060405234801561001057600080fd5b5061081f806100206000396000f3fe608060405234801561001057600080fd5b50600436106100935760003560e01c80634cfa4523116100665780634cfa4523146101845780638815912f146101bd578063e8e15fd7146101df578063f04bc94314610219578063f0fc92241461023957610093565b80632bdc2fd3146100985780633e7b7779146100cc5780633e7ba2281461010c5780633ffc81ee14610152575b600080fd5b6100b8600480360360208110156100ae57600080fd5b503560020b610261565b604080519115158252519081900360200190f35b6100ec600480360360208110156100e257600080fd5b503560020b610297565b6040805160019390930b835260ff90911660208301528051918290030190f35b6101346004803603604081101561012257600080fd5b50803560020b906020013515156102a9565b6040805160029390930b835290151560208301528051918290030190f35b6101726004803603602081101561016857600080fd5b503560010b6102c4565b60408051918252519081900360200190f35b6101346004803603608081101561019a57600080fd5b508035906020810135600290810b91604081013590910b906060013515156102d6565b6101dd600480360360208110156101d357600080fd5b503560020b6103e2565b005b6100b8600480360360608110156101f557600080fd5b508035600290810b91602081013590910b90604001356001600160a01b03166103f2565b6101726004803603602081101561022f57600080fd5b503560020b6104e0565b6101726004803603604081101561024f57600080fd5b50803560020b906020013515156104fc565b600080806102738185603c600161051c565b915091508360020b8260020b1461028b57600061028d565b805b925050505b919050565b60020b600881901d9161010090910790565b6000806102b98185603c8661051c565b915091509250929050565b60006020819052908152604090205481565b60008060008460020b8660020b816102ea57fe5b05905060008660020b12801561031157508460020b8660020b8161030a57fe5b0760020b15155b1561031b57600019015b83156103795760008061032d83610297565b600160ff82161b8001600019018b81168015159750929450909250908561035b57888360ff1686030261036e565b8861036582610619565b840360ff168603025b9650505050506103d8565b60008061038883600101610297565b600019600160ff83161b01198b8116801515975092945090925090856103bb57888360ff0360ff168660010101026103d1565b88836103c6836106b9565b0360ff168660010101025b9650505050505b5094509492505050565b6103ef600082603c6107ac565b50565b6000808360020b8560020b8161040457fe5b05905060008560020b12801561042b57508360020b8560020b8161042457fe5b0760020b15155b1561043557600019015b600281900b600881901d90600090610100900762ffffff1690506000856001600160a01b0316635339c296846040518263ffffffff1660e01b8152600401808260010b815260200191505060206040518083038186803b15801561049857600080fd5b505afa1580156104ac573d6000803e3d6000fd5b505050506040513d60208110156104c257600080fd5b5051600160ff9093169290921b909116151593505050509392505050565b6000805a90506104f360008460016107ac565b5a900392915050565b6000805a905061051060008560018661051c565b50505a90039392505050565b60008060008460020b8660020b8161053057fe5b05905060008660020b12801561055757508460020b8660020b8161055057fe5b0760020b15155b1561056157600019015b83156105b85760008061057383610297565b600182810b810b600090815260208d9052604090205460ff83169190911b8001600019019081168015159750929450909250908561035b57888360ff1686030261036e565b6000806105c783600101610297565b91509150600060018260ff166001901b031990506000818b60008660010b60010b81526020019081526020016000205416905080600014159550856103bb57888360ff0360ff168660010101026103d1565b600080821161062757600080fd5b600160801b821061063a57608091821c91015b68010000000000000000821061065257604091821c91015b640100000000821061066657602091821c91015b62010000821061067857601091821c91015b610100821061068957600891821c91015b6010821061069957600491821c91015b600482106106a957600291821c91015b6002821061029257600101919050565b60008082116106c757600080fd5b5060ff6fffffffffffffffffffffffffffffffff8216156106eb57607f19016106f3565b608082901c91505b67ffffffffffffffff82161561070c57603f1901610714565b604082901c91505b63ffffffff82161561072957601f1901610731565b602082901c91505b61ffff82161561074457600f190161074c565b601082901c91505b60ff82161561075e5760071901610766565b600882901c91505b600f8216156107785760031901610780565b600482901c91505b6003821615610792576001190161079a565b600282901c91505b60018216156102925760001901919050565b8060020b8260020b816107bb57fe5b0760020b156107c957600080fd5b6000806107e48360020b8560020b816107de57fe5b05610297565b600191820b820b60009081526020979097526040909620805460ff9097169190911b9095189094555050505056fea164736f6c6343000706000a",
  "linkReferences": {},
  "deployedLinkReferences": {}
}